
nucleo053_test.elf:     file format elf32-littlearm

Sections:
Idx Name          Size      VMA       LMA       File off  Algn
  0 .isr_vector   000000c0  08000000  08000000  00010000  2**0
                  CONTENTS, ALLOC, LOAD, READONLY, DATA
  1 .text         00002d54  080000c0  080000c0  000100c0  2**4
                  CONTENTS, ALLOC, LOAD, READONLY, CODE
  2 .rodata       000001e0  08002e14  08002e14  00012e14  2**2
                  CONTENTS, ALLOC, LOAD, READONLY, DATA
  3 .init_array   00000004  08002ff4  08002ff4  00012ff4  2**2
                  CONTENTS, ALLOC, LOAD, DATA
  4 .fini_array   00000004  08002ff8  08002ff8  00012ff8  2**2
                  CONTENTS, ALLOC, LOAD, DATA
  5 .data         00000028  20000000  08002ffc  00020000  2**2
                  CONTENTS, ALLOC, LOAD, DATA
  6 .bss          00001b64  20000028  08003024  00020028  2**2
                  ALLOC
  7 ._user_heap_stack 00000080  20001b8c  08003024  00021b8c  2**0
                  ALLOC
  8 .ARM.attributes 00000028  00000000  00000000  00020028  2**0
                  CONTENTS, READONLY
  9 .debug_info   00008f14  00000000  00000000  00020050  2**0
                  CONTENTS, READONLY, DEBUGGING
 10 .debug_abbrev 00001832  00000000  00000000  00028f64  2**0
                  CONTENTS, READONLY, DEBUGGING
 11 .debug_aranges 000006a0  00000000  00000000  0002a798  2**3
                  CONTENTS, READONLY, DEBUGGING
 12 .debug_ranges 000005b8  00000000  00000000  0002ae38  2**3
                  CONTENTS, READONLY, DEBUGGING
 13 .debug_line   00004249  00000000  00000000  0002b3f0  2**0
                  CONTENTS, READONLY, DEBUGGING
 14 .debug_str    00002b18  00000000  00000000  0002f639  2**0
                  CONTENTS, READONLY, DEBUGGING
 15 .comment      0000007c  00000000  00000000  00032151  2**0
                  CONTENTS, READONLY
 16 .debug_frame  00001568  00000000  00000000  000321d0  2**2
                  CONTENTS, READONLY, DEBUGGING
 17 .stabstr      0000003f  00000000  00000000  00033738  2**0
                  CONTENTS, READONLY, DEBUGGING

Disassembly of section .text:

080000c0 <__do_global_dtors_aux>:
 80000c0:	b510      	push	{r4, lr}
 80000c2:	4c06      	ldr	r4, [pc, #24]	; (80000dc <__do_global_dtors_aux+0x1c>)
 80000c4:	7823      	ldrb	r3, [r4, #0]
 80000c6:	2b00      	cmp	r3, #0
 80000c8:	d107      	bne.n	80000da <__do_global_dtors_aux+0x1a>
 80000ca:	4b05      	ldr	r3, [pc, #20]	; (80000e0 <__do_global_dtors_aux+0x20>)
 80000cc:	2b00      	cmp	r3, #0
 80000ce:	d002      	beq.n	80000d6 <__do_global_dtors_aux+0x16>
 80000d0:	4804      	ldr	r0, [pc, #16]	; (80000e4 <__do_global_dtors_aux+0x24>)
 80000d2:	e000      	b.n	80000d6 <__do_global_dtors_aux+0x16>
 80000d4:	bf00      	nop
 80000d6:	2301      	movs	r3, #1
 80000d8:	7023      	strb	r3, [r4, #0]
 80000da:	bd10      	pop	{r4, pc}
 80000dc:	20000028 	.word	0x20000028
 80000e0:	00000000 	.word	0x00000000
 80000e4:	08002dfc 	.word	0x08002dfc

080000e8 <frame_dummy>:
 80000e8:	4b04      	ldr	r3, [pc, #16]	; (80000fc <frame_dummy+0x14>)
 80000ea:	b510      	push	{r4, lr}
 80000ec:	2b00      	cmp	r3, #0
 80000ee:	d003      	beq.n	80000f8 <frame_dummy+0x10>
 80000f0:	4903      	ldr	r1, [pc, #12]	; (8000100 <frame_dummy+0x18>)
 80000f2:	4804      	ldr	r0, [pc, #16]	; (8000104 <frame_dummy+0x1c>)
 80000f4:	e000      	b.n	80000f8 <frame_dummy+0x10>
 80000f6:	bf00      	nop
 80000f8:	bd10      	pop	{r4, pc}
 80000fa:	46c0      	nop			; (mov r8, r8)
 80000fc:	00000000 	.word	0x00000000
 8000100:	2000002c 	.word	0x2000002c
 8000104:	08002dfc 	.word	0x08002dfc

08000108 <__udivsi3>:
 8000108:	2200      	movs	r2, #0
 800010a:	0843      	lsrs	r3, r0, #1
 800010c:	428b      	cmp	r3, r1
 800010e:	d374      	bcc.n	80001fa <__udivsi3+0xf2>
 8000110:	0903      	lsrs	r3, r0, #4
 8000112:	428b      	cmp	r3, r1
 8000114:	d35f      	bcc.n	80001d6 <__udivsi3+0xce>
 8000116:	0a03      	lsrs	r3, r0, #8
 8000118:	428b      	cmp	r3, r1
 800011a:	d344      	bcc.n	80001a6 <__udivsi3+0x9e>
 800011c:	0b03      	lsrs	r3, r0, #12
 800011e:	428b      	cmp	r3, r1
 8000120:	d328      	bcc.n	8000174 <__udivsi3+0x6c>
 8000122:	0c03      	lsrs	r3, r0, #16
 8000124:	428b      	cmp	r3, r1
 8000126:	d30d      	bcc.n	8000144 <__udivsi3+0x3c>
 8000128:	22ff      	movs	r2, #255	; 0xff
 800012a:	0209      	lsls	r1, r1, #8
 800012c:	ba12      	rev	r2, r2
 800012e:	0c03      	lsrs	r3, r0, #16
 8000130:	428b      	cmp	r3, r1
 8000132:	d302      	bcc.n	800013a <__udivsi3+0x32>
 8000134:	1212      	asrs	r2, r2, #8
 8000136:	0209      	lsls	r1, r1, #8
 8000138:	d065      	beq.n	8000206 <__udivsi3+0xfe>
 800013a:	0b03      	lsrs	r3, r0, #12
 800013c:	428b      	cmp	r3, r1
 800013e:	d319      	bcc.n	8000174 <__udivsi3+0x6c>
 8000140:	e000      	b.n	8000144 <__udivsi3+0x3c>
 8000142:	0a09      	lsrs	r1, r1, #8
 8000144:	0bc3      	lsrs	r3, r0, #15
 8000146:	428b      	cmp	r3, r1
 8000148:	d301      	bcc.n	800014e <__udivsi3+0x46>
 800014a:	03cb      	lsls	r3, r1, #15
 800014c:	1ac0      	subs	r0, r0, r3
 800014e:	4152      	adcs	r2, r2
 8000150:	0b83      	lsrs	r3, r0, #14
 8000152:	428b      	cmp	r3, r1
 8000154:	d301      	bcc.n	800015a <__udivsi3+0x52>
 8000156:	038b      	lsls	r3, r1, #14
 8000158:	1ac0      	subs	r0, r0, r3
 800015a:	4152      	adcs	r2, r2
 800015c:	0b43      	lsrs	r3, r0, #13
 800015e:	428b      	cmp	r3, r1
 8000160:	d301      	bcc.n	8000166 <__udivsi3+0x5e>
 8000162:	034b      	lsls	r3, r1, #13
 8000164:	1ac0      	subs	r0, r0, r3
 8000166:	4152      	adcs	r2, r2
 8000168:	0b03      	lsrs	r3, r0, #12
 800016a:	428b      	cmp	r3, r1
 800016c:	d301      	bcc.n	8000172 <__udivsi3+0x6a>
 800016e:	030b      	lsls	r3, r1, #12
 8000170:	1ac0      	subs	r0, r0, r3
 8000172:	4152      	adcs	r2, r2
 8000174:	0ac3      	lsrs	r3, r0, #11
 8000176:	428b      	cmp	r3, r1
 8000178:	d301      	bcc.n	800017e <__udivsi3+0x76>
 800017a:	02cb      	lsls	r3, r1, #11
 800017c:	1ac0      	subs	r0, r0, r3
 800017e:	4152      	adcs	r2, r2
 8000180:	0a83      	lsrs	r3, r0, #10
 8000182:	428b      	cmp	r3, r1
 8000184:	d301      	bcc.n	800018a <__udivsi3+0x82>
 8000186:	028b      	lsls	r3, r1, #10
 8000188:	1ac0      	subs	r0, r0, r3
 800018a:	4152      	adcs	r2, r2
 800018c:	0a43      	lsrs	r3, r0, #9
 800018e:	428b      	cmp	r3, r1
 8000190:	d301      	bcc.n	8000196 <__udivsi3+0x8e>
 8000192:	024b      	lsls	r3, r1, #9
 8000194:	1ac0      	subs	r0, r0, r3
 8000196:	4152      	adcs	r2, r2
 8000198:	0a03      	lsrs	r3, r0, #8
 800019a:	428b      	cmp	r3, r1
 800019c:	d301      	bcc.n	80001a2 <__udivsi3+0x9a>
 800019e:	020b      	lsls	r3, r1, #8
 80001a0:	1ac0      	subs	r0, r0, r3
 80001a2:	4152      	adcs	r2, r2
 80001a4:	d2cd      	bcs.n	8000142 <__udivsi3+0x3a>
 80001a6:	09c3      	lsrs	r3, r0, #7
 80001a8:	428b      	cmp	r3, r1
 80001aa:	d301      	bcc.n	80001b0 <__udivsi3+0xa8>
 80001ac:	01cb      	lsls	r3, r1, #7
 80001ae:	1ac0      	subs	r0, r0, r3
 80001b0:	4152      	adcs	r2, r2
 80001b2:	0983      	lsrs	r3, r0, #6
 80001b4:	428b      	cmp	r3, r1
 80001b6:	d301      	bcc.n	80001bc <__udivsi3+0xb4>
 80001b8:	018b      	lsls	r3, r1, #6
 80001ba:	1ac0      	subs	r0, r0, r3
 80001bc:	4152      	adcs	r2, r2
 80001be:	0943      	lsrs	r3, r0, #5
 80001c0:	428b      	cmp	r3, r1
 80001c2:	d301      	bcc.n	80001c8 <__udivsi3+0xc0>
 80001c4:	014b      	lsls	r3, r1, #5
 80001c6:	1ac0      	subs	r0, r0, r3
 80001c8:	4152      	adcs	r2, r2
 80001ca:	0903      	lsrs	r3, r0, #4
 80001cc:	428b      	cmp	r3, r1
 80001ce:	d301      	bcc.n	80001d4 <__udivsi3+0xcc>
 80001d0:	010b      	lsls	r3, r1, #4
 80001d2:	1ac0      	subs	r0, r0, r3
 80001d4:	4152      	adcs	r2, r2
 80001d6:	08c3      	lsrs	r3, r0, #3
 80001d8:	428b      	cmp	r3, r1
 80001da:	d301      	bcc.n	80001e0 <__udivsi3+0xd8>
 80001dc:	00cb      	lsls	r3, r1, #3
 80001de:	1ac0      	subs	r0, r0, r3
 80001e0:	4152      	adcs	r2, r2
 80001e2:	0883      	lsrs	r3, r0, #2
 80001e4:	428b      	cmp	r3, r1
 80001e6:	d301      	bcc.n	80001ec <__udivsi3+0xe4>
 80001e8:	008b      	lsls	r3, r1, #2
 80001ea:	1ac0      	subs	r0, r0, r3
 80001ec:	4152      	adcs	r2, r2
 80001ee:	0843      	lsrs	r3, r0, #1
 80001f0:	428b      	cmp	r3, r1
 80001f2:	d301      	bcc.n	80001f8 <__udivsi3+0xf0>
 80001f4:	004b      	lsls	r3, r1, #1
 80001f6:	1ac0      	subs	r0, r0, r3
 80001f8:	4152      	adcs	r2, r2
 80001fa:	1a41      	subs	r1, r0, r1
 80001fc:	d200      	bcs.n	8000200 <__udivsi3+0xf8>
 80001fe:	4601      	mov	r1, r0
 8000200:	4152      	adcs	r2, r2
 8000202:	4610      	mov	r0, r2
 8000204:	4770      	bx	lr
 8000206:	e7ff      	b.n	8000208 <__udivsi3+0x100>
 8000208:	b501      	push	{r0, lr}
 800020a:	2000      	movs	r0, #0
 800020c:	f000 f806 	bl	800021c <__aeabi_idiv0>
 8000210:	bd02      	pop	{r1, pc}
 8000212:	46c0      	nop			; (mov r8, r8)

08000214 <__aeabi_uidivmod>:
 8000214:	2900      	cmp	r1, #0
 8000216:	d0f7      	beq.n	8000208 <__udivsi3+0x100>
 8000218:	e776      	b.n	8000108 <__udivsi3>
 800021a:	4770      	bx	lr

0800021c <__aeabi_idiv0>:
 800021c:	4770      	bx	lr
 800021e:	46c0      	nop			; (mov r8, r8)

08000220 <xEventGroupCreate>:
/*-----------------------------------------------------------*/

#if( configSUPPORT_DYNAMIC_ALLOCATION == 1 )

	EventGroupHandle_t xEventGroupCreate( void )
	{
 8000220:	b580      	push	{r7, lr}
 8000222:	b082      	sub	sp, #8
 8000224:	af00      	add	r7, sp, #0
		TickType_t alignment requirements the cast is safe.  In other cases,
		where the natural word size of the architecture is less than
		sizeof( TickType_t ), the TickType_t variables will be accessed in two
		or more reads operations, and the alignment requirements is only that
		of each individual read. */
		pxEventBits = ( EventGroup_t * ) pvPortMalloc( sizeof( EventGroup_t ) ); /*lint !e9087 !e9079 see comment above. */
 8000226:	2018      	movs	r0, #24
 8000228:	f000 f91a 	bl	8000460 <pvPortMalloc>
 800022c:	0003      	movs	r3, r0
 800022e:	607b      	str	r3, [r7, #4]

		if( pxEventBits != NULL )
 8000230:	687b      	ldr	r3, [r7, #4]
 8000232:	2b00      	cmp	r3, #0
 8000234:	d007      	beq.n	8000246 <xEventGroupCreate+0x26>
		{
			pxEventBits->uxEventBits = 0;
 8000236:	687b      	ldr	r3, [r7, #4]
 8000238:	2200      	movs	r2, #0
 800023a:	601a      	str	r2, [r3, #0]
			vListInitialise( &( pxEventBits->xTasksWaitingForBits ) );
 800023c:	687b      	ldr	r3, [r7, #4]
 800023e:	3304      	adds	r3, #4
 8000240:	0018      	movs	r0, r3
 8000242:	f000 f9fd 	bl	8000640 <vListInitialise>
		else
		{
			traceEVENT_GROUP_CREATE_FAILED(); /*lint !e9063 Else branch only exists to allow tracing and does not generate code if trace macros are not defined. */
		}

		return pxEventBits;
 8000246:	687b      	ldr	r3, [r7, #4]
	}
 8000248:	0018      	movs	r0, r3
 800024a:	46bd      	mov	sp, r7
 800024c:	b002      	add	sp, #8
 800024e:	bd80      	pop	{r7, pc}

08000250 <xEventGroupSync>:

#endif /* configSUPPORT_DYNAMIC_ALLOCATION */
/*-----------------------------------------------------------*/

EventBits_t xEventGroupSync( EventGroupHandle_t xEventGroup, const EventBits_t uxBitsToSet, const EventBits_t uxBitsToWaitFor, TickType_t xTicksToWait )
{
 8000250:	b580      	push	{r7, lr}
 8000252:	b08a      	sub	sp, #40	; 0x28
 8000254:	af00      	add	r7, sp, #0
 8000256:	60f8      	str	r0, [r7, #12]
 8000258:	60b9      	str	r1, [r7, #8]
 800025a:	607a      	str	r2, [r7, #4]
 800025c:	603b      	str	r3, [r7, #0]
EventBits_t uxOriginalBitValue, uxReturn;
EventGroup_t *pxEventBits = xEventGroup;
 800025e:	68fb      	ldr	r3, [r7, #12]
 8000260:	623b      	str	r3, [r7, #32]
BaseType_t xAlreadyYielded;
BaseType_t xTimeoutOccurred = pdFALSE;
 8000262:	2300      	movs	r3, #0
 8000264:	61fb      	str	r3, [r7, #28]

	configASSERT( ( uxBitsToWaitFor & eventEVENT_BITS_CONTROL_BYTES ) == 0 );
 8000266:	687b      	ldr	r3, [r7, #4]
 8000268:	0e1b      	lsrs	r3, r3, #24
 800026a:	061b      	lsls	r3, r3, #24
 800026c:	d001      	beq.n	8000272 <xEventGroupSync+0x22>
 800026e:	b672      	cpsid	i
 8000270:	e7fe      	b.n	8000270 <xEventGroupSync+0x20>
	configASSERT( uxBitsToWaitFor != 0 );
 8000272:	687b      	ldr	r3, [r7, #4]
 8000274:	2b00      	cmp	r3, #0
 8000276:	d101      	bne.n	800027c <xEventGroupSync+0x2c>
 8000278:	b672      	cpsid	i
 800027a:	e7fe      	b.n	800027a <xEventGroupSync+0x2a>
	#if ( ( INCLUDE_xTaskGetSchedulerState == 1 ) || ( configUSE_TIMERS == 1 ) )
	{
		configASSERT( !( ( xTaskGetSchedulerState() == taskSCHEDULER_SUSPENDED ) && ( xTicksToWait != 0 ) ) );
 800027c:	f001 fd20 	bl	8001cc0 <xTaskGetSchedulerState>
 8000280:	1e03      	subs	r3, r0, #0
 8000282:	d102      	bne.n	800028a <xEventGroupSync+0x3a>
 8000284:	683b      	ldr	r3, [r7, #0]
 8000286:	2b00      	cmp	r3, #0
 8000288:	d101      	bne.n	800028e <xEventGroupSync+0x3e>
 800028a:	2301      	movs	r3, #1
 800028c:	e000      	b.n	8000290 <xEventGroupSync+0x40>
 800028e:	2300      	movs	r3, #0
 8000290:	2b00      	cmp	r3, #0
 8000292:	d101      	bne.n	8000298 <xEventGroupSync+0x48>
 8000294:	b672      	cpsid	i
 8000296:	e7fe      	b.n	8000296 <xEventGroupSync+0x46>
	}
	#endif

	vTaskSuspendAll();
 8000298:	f001 f922 	bl	80014e0 <vTaskSuspendAll>
	{
		uxOriginalBitValue = pxEventBits->uxEventBits;
 800029c:	6a3b      	ldr	r3, [r7, #32]
 800029e:	681b      	ldr	r3, [r3, #0]
 80002a0:	61bb      	str	r3, [r7, #24]

		( void ) xEventGroupSetBits( xEventGroup, uxBitsToSet );
 80002a2:	68ba      	ldr	r2, [r7, #8]
 80002a4:	68fb      	ldr	r3, [r7, #12]
 80002a6:	0011      	movs	r1, r2
 80002a8:	0018      	movs	r0, r3
 80002aa:	f000 f85f 	bl	800036c <xEventGroupSetBits>

		if( ( ( uxOriginalBitValue | uxBitsToSet ) & uxBitsToWaitFor ) == uxBitsToWaitFor )
 80002ae:	69ba      	ldr	r2, [r7, #24]
 80002b0:	68bb      	ldr	r3, [r7, #8]
 80002b2:	4313      	orrs	r3, r2
 80002b4:	687a      	ldr	r2, [r7, #4]
 80002b6:	401a      	ands	r2, r3
 80002b8:	687b      	ldr	r3, [r7, #4]
 80002ba:	429a      	cmp	r2, r3
 80002bc:	d10d      	bne.n	80002da <xEventGroupSync+0x8a>
		{
			/* All the rendezvous bits are now set - no need to block. */
			uxReturn = ( uxOriginalBitValue | uxBitsToSet );
 80002be:	69ba      	ldr	r2, [r7, #24]
 80002c0:	68bb      	ldr	r3, [r7, #8]
 80002c2:	4313      	orrs	r3, r2
 80002c4:	627b      	str	r3, [r7, #36]	; 0x24

			/* Rendezvous always clear the bits.  They will have been cleared
			already unless this is the only task in the rendezvous. */
			pxEventBits->uxEventBits &= ~uxBitsToWaitFor;
 80002c6:	6a3b      	ldr	r3, [r7, #32]
 80002c8:	681b      	ldr	r3, [r3, #0]
 80002ca:	687a      	ldr	r2, [r7, #4]
 80002cc:	43d2      	mvns	r2, r2
 80002ce:	401a      	ands	r2, r3
 80002d0:	6a3b      	ldr	r3, [r7, #32]
 80002d2:	601a      	str	r2, [r3, #0]

			xTicksToWait = 0;
 80002d4:	2300      	movs	r3, #0
 80002d6:	603b      	str	r3, [r7, #0]
 80002d8:	e014      	b.n	8000304 <xEventGroupSync+0xb4>
		}
		else
		{
			if( xTicksToWait != ( TickType_t ) 0 )
 80002da:	683b      	ldr	r3, [r7, #0]
 80002dc:	2b00      	cmp	r3, #0
 80002de:	d00c      	beq.n	80002fa <xEventGroupSync+0xaa>
				traceEVENT_GROUP_SYNC_BLOCK( xEventGroup, uxBitsToSet, uxBitsToWaitFor );

				/* Store the bits that the calling task is waiting for in the
				task's event list item so the kernel knows when a match is
				found.  Then enter the blocked state. */
				vTaskPlaceOnUnorderedEventList( &( pxEventBits->xTasksWaitingForBits ), ( uxBitsToWaitFor | eventCLEAR_EVENTS_ON_EXIT_BIT | eventWAIT_FOR_ALL_BITS ), xTicksToWait );
 80002e0:	6a3b      	ldr	r3, [r7, #32]
 80002e2:	1d18      	adds	r0, r3, #4
 80002e4:	687b      	ldr	r3, [r7, #4]
 80002e6:	22a0      	movs	r2, #160	; 0xa0
 80002e8:	04d2      	lsls	r2, r2, #19
 80002ea:	4313      	orrs	r3, r2
 80002ec:	683a      	ldr	r2, [r7, #0]
 80002ee:	0019      	movs	r1, r3
 80002f0:	f001 fac4 	bl	800187c <vTaskPlaceOnUnorderedEventList>

				/* This assignment is obsolete as uxReturn will get set after
				the task unblocks, but some compilers mistakenly generate a
				warning about uxReturn being returned without being set if the
				assignment is omitted. */
				uxReturn = 0;
 80002f4:	2300      	movs	r3, #0
 80002f6:	627b      	str	r3, [r7, #36]	; 0x24
 80002f8:	e004      	b.n	8000304 <xEventGroupSync+0xb4>
			}
			else
			{
				/* The rendezvous bits were not set, but no block time was
				specified - just return the current event bit value. */
				uxReturn = pxEventBits->uxEventBits;
 80002fa:	6a3b      	ldr	r3, [r7, #32]
 80002fc:	681b      	ldr	r3, [r3, #0]
 80002fe:	627b      	str	r3, [r7, #36]	; 0x24
				xTimeoutOccurred = pdTRUE;
 8000300:	2301      	movs	r3, #1
 8000302:	61fb      	str	r3, [r7, #28]
			}
		}
	}
	xAlreadyYielded = xTaskResumeAll();
 8000304:	f001 f8f8 	bl	80014f8 <xTaskResumeAll>
 8000308:	0003      	movs	r3, r0
 800030a:	617b      	str	r3, [r7, #20]

	if( xTicksToWait != ( TickType_t ) 0 )
 800030c:	683b      	ldr	r3, [r7, #0]
 800030e:	2b00      	cmp	r3, #0
 8000310:	d027      	beq.n	8000362 <xEventGroupSync+0x112>
	{
		if( xAlreadyYielded == pdFALSE )
 8000312:	697b      	ldr	r3, [r7, #20]
 8000314:	2b00      	cmp	r3, #0
 8000316:	d101      	bne.n	800031c <xEventGroupSync+0xcc>
		{
			portYIELD_WITHIN_API();
 8000318:	f000 fac2 	bl	80008a0 <vPortYield>

		/* The task blocked to wait for its required bits to be set - at this
		point either the required bits were set or the block time expired.  If
		the required bits were set they will have been stored in the task's
		event list item, and they should now be retrieved then cleared. */
		uxReturn = uxTaskResetEventItemValue();
 800031c:	f001 fd48 	bl	8001db0 <uxTaskResetEventItemValue>
 8000320:	0003      	movs	r3, r0
 8000322:	627b      	str	r3, [r7, #36]	; 0x24

		if( ( uxReturn & eventUNBLOCKED_DUE_TO_BIT_SET ) == ( EventBits_t ) 0 )
 8000324:	6a7a      	ldr	r2, [r7, #36]	; 0x24
 8000326:	2380      	movs	r3, #128	; 0x80
 8000328:	049b      	lsls	r3, r3, #18
 800032a:	4013      	ands	r3, r2
 800032c:	d115      	bne.n	800035a <xEventGroupSync+0x10a>
		{
			/* The task timed out, just return the current event bit value. */
			taskENTER_CRITICAL();
 800032e:	f000 fac7 	bl	80008c0 <vPortEnterCritical>
			{
				uxReturn = pxEventBits->uxEventBits;
 8000332:	6a3b      	ldr	r3, [r7, #32]
 8000334:	681b      	ldr	r3, [r3, #0]
 8000336:	627b      	str	r3, [r7, #36]	; 0x24

				/* Although the task got here because it timed out before the
				bits it was waiting for were set, it is possible that since it
				unblocked another task has set the bits.  If this is the case
				then it needs to clear the bits before exiting. */
				if( ( uxReturn & uxBitsToWaitFor ) == uxBitsToWaitFor )
 8000338:	6a7b      	ldr	r3, [r7, #36]	; 0x24
 800033a:	687a      	ldr	r2, [r7, #4]
 800033c:	401a      	ands	r2, r3
 800033e:	687b      	ldr	r3, [r7, #4]
 8000340:	429a      	cmp	r2, r3
 8000342:	d106      	bne.n	8000352 <xEventGroupSync+0x102>
				{
					pxEventBits->uxEventBits &= ~uxBitsToWaitFor;
 8000344:	6a3b      	ldr	r3, [r7, #32]
 8000346:	681b      	ldr	r3, [r3, #0]
 8000348:	687a      	ldr	r2, [r7, #4]
 800034a:	43d2      	mvns	r2, r2
 800034c:	401a      	ands	r2, r3
 800034e:	6a3b      	ldr	r3, [r7, #32]
 8000350:	601a      	str	r2, [r3, #0]
				else
				{
					mtCOVERAGE_TEST_MARKER();
				}
			}
			taskEXIT_CRITICAL();
 8000352:	f000 fac7 	bl	80008e4 <vPortExitCritical>

			xTimeoutOccurred = pdTRUE;
 8000356:	2301      	movs	r3, #1
 8000358:	61fb      	str	r3, [r7, #28]
			/* The task unblocked because the bits were set. */
		}

		/* Control bits might be set as the task had blocked should not be
		returned. */
		uxReturn &= ~eventEVENT_BITS_CONTROL_BYTES;
 800035a:	6a7b      	ldr	r3, [r7, #36]	; 0x24
 800035c:	021b      	lsls	r3, r3, #8
 800035e:	0a1b      	lsrs	r3, r3, #8
 8000360:	627b      	str	r3, [r7, #36]	; 0x24
	traceEVENT_GROUP_SYNC_END( xEventGroup, uxBitsToSet, uxBitsToWaitFor, xTimeoutOccurred );

	/* Prevent compiler warnings when trace macros are not used. */
	( void ) xTimeoutOccurred;

	return uxReturn;
 8000362:	6a7b      	ldr	r3, [r7, #36]	; 0x24
}
 8000364:	0018      	movs	r0, r3
 8000366:	46bd      	mov	sp, r7
 8000368:	b00a      	add	sp, #40	; 0x28
 800036a:	bd80      	pop	{r7, pc}

0800036c <xEventGroupSetBits>:
	return uxReturn;
} /*lint !e818 EventGroupHandle_t is a typedef used in other functions to so can't be pointer to const. */
/*-----------------------------------------------------------*/

EventBits_t xEventGroupSetBits( EventGroupHandle_t xEventGroup, const EventBits_t uxBitsToSet )
{
 800036c:	b580      	push	{r7, lr}
 800036e:	b08c      	sub	sp, #48	; 0x30
 8000370:	af00      	add	r7, sp, #0
 8000372:	6078      	str	r0, [r7, #4]
 8000374:	6039      	str	r1, [r7, #0]
ListItem_t *pxListItem, *pxNext;
ListItem_t const *pxListEnd;
List_t const * pxList;
EventBits_t uxBitsToClear = 0, uxBitsWaitedFor, uxControlBits;
 8000376:	2300      	movs	r3, #0
 8000378:	62bb      	str	r3, [r7, #40]	; 0x28
EventGroup_t *pxEventBits = xEventGroup;
 800037a:	687b      	ldr	r3, [r7, #4]
 800037c:	623b      	str	r3, [r7, #32]
BaseType_t xMatchFound = pdFALSE;
 800037e:	2300      	movs	r3, #0
 8000380:	627b      	str	r3, [r7, #36]	; 0x24

	/* Check the user is not attempting to set the bits used by the kernel
	itself. */
	configASSERT( xEventGroup );
 8000382:	687b      	ldr	r3, [r7, #4]
 8000384:	2b00      	cmp	r3, #0
 8000386:	d101      	bne.n	800038c <xEventGroupSetBits+0x20>
 8000388:	b672      	cpsid	i
 800038a:	e7fe      	b.n	800038a <xEventGroupSetBits+0x1e>
	configASSERT( ( uxBitsToSet & eventEVENT_BITS_CONTROL_BYTES ) == 0 );
 800038c:	683b      	ldr	r3, [r7, #0]
 800038e:	0e1b      	lsrs	r3, r3, #24
 8000390:	061b      	lsls	r3, r3, #24
 8000392:	d001      	beq.n	8000398 <xEventGroupSetBits+0x2c>
 8000394:	b672      	cpsid	i
 8000396:	e7fe      	b.n	8000396 <xEventGroupSetBits+0x2a>

	pxList = &( pxEventBits->xTasksWaitingForBits );
 8000398:	6a3b      	ldr	r3, [r7, #32]
 800039a:	3304      	adds	r3, #4
 800039c:	61fb      	str	r3, [r7, #28]
	pxListEnd = listGET_END_MARKER( pxList ); /*lint !e826 !e740 !e9087 The mini list structure is used as the list end to save RAM.  This is checked and valid. */
 800039e:	69fb      	ldr	r3, [r7, #28]
 80003a0:	3308      	adds	r3, #8
 80003a2:	61bb      	str	r3, [r7, #24]
	vTaskSuspendAll();
 80003a4:	f001 f89c 	bl	80014e0 <vTaskSuspendAll>
	{
		traceEVENT_GROUP_SET_BITS( xEventGroup, uxBitsToSet );

		pxListItem = listGET_HEAD_ENTRY( pxList );
 80003a8:	69fb      	ldr	r3, [r7, #28]
 80003aa:	68db      	ldr	r3, [r3, #12]
 80003ac:	62fb      	str	r3, [r7, #44]	; 0x2c

		/* Set the bits. */
		pxEventBits->uxEventBits |= uxBitsToSet;
 80003ae:	6a3b      	ldr	r3, [r7, #32]
 80003b0:	681a      	ldr	r2, [r3, #0]
 80003b2:	683b      	ldr	r3, [r7, #0]
 80003b4:	431a      	orrs	r2, r3
 80003b6:	6a3b      	ldr	r3, [r7, #32]
 80003b8:	601a      	str	r2, [r3, #0]

		/* See if the new bit value should unblock any tasks. */
		while( pxListItem != pxListEnd )
 80003ba:	e03d      	b.n	8000438 <xEventGroupSetBits+0xcc>
		{
			pxNext = listGET_NEXT( pxListItem );
 80003bc:	6afb      	ldr	r3, [r7, #44]	; 0x2c
 80003be:	685b      	ldr	r3, [r3, #4]
 80003c0:	617b      	str	r3, [r7, #20]
			uxBitsWaitedFor = listGET_LIST_ITEM_VALUE( pxListItem );
 80003c2:	6afb      	ldr	r3, [r7, #44]	; 0x2c
 80003c4:	681b      	ldr	r3, [r3, #0]
 80003c6:	613b      	str	r3, [r7, #16]
			xMatchFound = pdFALSE;
 80003c8:	2300      	movs	r3, #0
 80003ca:	627b      	str	r3, [r7, #36]	; 0x24

			/* Split the bits waited for from the control bits. */
			uxControlBits = uxBitsWaitedFor & eventEVENT_BITS_CONTROL_BYTES;
 80003cc:	693b      	ldr	r3, [r7, #16]
 80003ce:	0e1b      	lsrs	r3, r3, #24
 80003d0:	061b      	lsls	r3, r3, #24
 80003d2:	60fb      	str	r3, [r7, #12]
			uxBitsWaitedFor &= ~eventEVENT_BITS_CONTROL_BYTES;
 80003d4:	693b      	ldr	r3, [r7, #16]
 80003d6:	021b      	lsls	r3, r3, #8
 80003d8:	0a1b      	lsrs	r3, r3, #8
 80003da:	613b      	str	r3, [r7, #16]

			if( ( uxControlBits & eventWAIT_FOR_ALL_BITS ) == ( EventBits_t ) 0 )
 80003dc:	68fa      	ldr	r2, [r7, #12]
 80003de:	2380      	movs	r3, #128	; 0x80
 80003e0:	04db      	lsls	r3, r3, #19
 80003e2:	4013      	ands	r3, r2
 80003e4:	d107      	bne.n	80003f6 <xEventGroupSetBits+0x8a>
			{
				/* Just looking for single bit being set. */
				if( ( uxBitsWaitedFor & pxEventBits->uxEventBits ) != ( EventBits_t ) 0 )
 80003e6:	6a3b      	ldr	r3, [r7, #32]
 80003e8:	681b      	ldr	r3, [r3, #0]
 80003ea:	693a      	ldr	r2, [r7, #16]
 80003ec:	4013      	ands	r3, r2
 80003ee:	d00b      	beq.n	8000408 <xEventGroupSetBits+0x9c>
				{
					xMatchFound = pdTRUE;
 80003f0:	2301      	movs	r3, #1
 80003f2:	627b      	str	r3, [r7, #36]	; 0x24
 80003f4:	e008      	b.n	8000408 <xEventGroupSetBits+0x9c>
				else
				{
					mtCOVERAGE_TEST_MARKER();
				}
			}
			else if( ( uxBitsWaitedFor & pxEventBits->uxEventBits ) == uxBitsWaitedFor )
 80003f6:	6a3b      	ldr	r3, [r7, #32]
 80003f8:	681b      	ldr	r3, [r3, #0]
 80003fa:	693a      	ldr	r2, [r7, #16]
 80003fc:	401a      	ands	r2, r3
 80003fe:	693b      	ldr	r3, [r7, #16]
 8000400:	429a      	cmp	r2, r3
 8000402:	d101      	bne.n	8000408 <xEventGroupSetBits+0x9c>
			{
				/* All bits are set. */
				xMatchFound = pdTRUE;
 8000404:	2301      	movs	r3, #1
 8000406:	627b      	str	r3, [r7, #36]	; 0x24
			else
			{
				/* Need all bits to be set, but not all the bits were set. */
			}

			if( xMatchFound != pdFALSE )
 8000408:	6a7b      	ldr	r3, [r7, #36]	; 0x24
 800040a:	2b00      	cmp	r3, #0
 800040c:	d012      	beq.n	8000434 <xEventGroupSetBits+0xc8>
			{
				/* The bits match.  Should the bits be cleared on exit? */
				if( ( uxControlBits & eventCLEAR_EVENTS_ON_EXIT_BIT ) != ( EventBits_t ) 0 )
 800040e:	68fa      	ldr	r2, [r7, #12]
 8000410:	2380      	movs	r3, #128	; 0x80
 8000412:	045b      	lsls	r3, r3, #17
 8000414:	4013      	ands	r3, r2
 8000416:	d003      	beq.n	8000420 <xEventGroupSetBits+0xb4>
				{
					uxBitsToClear |= uxBitsWaitedFor;
 8000418:	6aba      	ldr	r2, [r7, #40]	; 0x28
 800041a:	693b      	ldr	r3, [r7, #16]
 800041c:	4313      	orrs	r3, r2
 800041e:	62bb      	str	r3, [r7, #40]	; 0x28
				/* Store the actual event flag value in the task's event list
				item before removing the task from the event list.  The
				eventUNBLOCKED_DUE_TO_BIT_SET bit is set so the task knows
				that is was unblocked due to its required bits matching, rather
				than because it timed out. */
				vTaskRemoveFromUnorderedEventList( pxListItem, pxEventBits->uxEventBits | eventUNBLOCKED_DUE_TO_BIT_SET );
 8000420:	6a3b      	ldr	r3, [r7, #32]
 8000422:	681b      	ldr	r3, [r3, #0]
 8000424:	2280      	movs	r2, #128	; 0x80
 8000426:	0492      	lsls	r2, r2, #18
 8000428:	431a      	orrs	r2, r3
 800042a:	6afb      	ldr	r3, [r7, #44]	; 0x2c
 800042c:	0011      	movs	r1, r2
 800042e:	0018      	movs	r0, r3
 8000430:	f001 fad4 	bl	80019dc <vTaskRemoveFromUnorderedEventList>
			}

			/* Move onto the next list item.  Note pxListItem->pxNext is not
			used here as the list item may have been removed from the event list
			and inserted into the ready/pending reading list. */
			pxListItem = pxNext;
 8000434:	697b      	ldr	r3, [r7, #20]
 8000436:	62fb      	str	r3, [r7, #44]	; 0x2c
		while( pxListItem != pxListEnd )
 8000438:	6afa      	ldr	r2, [r7, #44]	; 0x2c
 800043a:	69bb      	ldr	r3, [r7, #24]
 800043c:	429a      	cmp	r2, r3
 800043e:	d1bd      	bne.n	80003bc <xEventGroupSetBits+0x50>
		}

		/* Clear any bits that matched when the eventCLEAR_EVENTS_ON_EXIT_BIT
		bit was set in the control word. */
		pxEventBits->uxEventBits &= ~uxBitsToClear;
 8000440:	6a3b      	ldr	r3, [r7, #32]
 8000442:	681b      	ldr	r3, [r3, #0]
 8000444:	6aba      	ldr	r2, [r7, #40]	; 0x28
 8000446:	43d2      	mvns	r2, r2
 8000448:	401a      	ands	r2, r3
 800044a:	6a3b      	ldr	r3, [r7, #32]
 800044c:	601a      	str	r2, [r3, #0]
	}
	( void ) xTaskResumeAll();
 800044e:	f001 f853 	bl	80014f8 <xTaskResumeAll>

	return pxEventBits->uxEventBits;
 8000452:	6a3b      	ldr	r3, [r7, #32]
 8000454:	681b      	ldr	r3, [r3, #0]
}
 8000456:	0018      	movs	r0, r3
 8000458:	46bd      	mov	sp, r7
 800045a:	b00c      	add	sp, #48	; 0x30
 800045c:	bd80      	pop	{r7, pc}
	...

08000460 <pvPortMalloc>:
	pxIterator->pxNextFreeBlock = pxBlockToInsert;									\
}
/*-----------------------------------------------------------*/

void *pvPortMalloc( size_t xWantedSize )
{
 8000460:	b580      	push	{r7, lr}
 8000462:	b088      	sub	sp, #32
 8000464:	af00      	add	r7, sp, #0
 8000466:	6078      	str	r0, [r7, #4]
BlockLink_t *pxBlock, *pxPreviousBlock, *pxNewBlockLink;
static BaseType_t xHeapHasBeenInitialised = pdFALSE;
void *pvReturn = NULL;
 8000468:	2300      	movs	r3, #0
 800046a:	617b      	str	r3, [r7, #20]

	vTaskSuspendAll();
 800046c:	f001 f838 	bl	80014e0 <vTaskSuspendAll>
	{
		/* If this is the first call to malloc then the heap will require
		initialisation to setup the list of free blocks. */
		if( xHeapHasBeenInitialised == pdFALSE )
 8000470:	4b3d      	ldr	r3, [pc, #244]	; (8000568 <pvPortMalloc+0x108>)
 8000472:	681b      	ldr	r3, [r3, #0]
 8000474:	2b00      	cmp	r3, #0
 8000476:	d104      	bne.n	8000482 <pvPortMalloc+0x22>
		{
			prvHeapInit();
 8000478:	f000 f8ba 	bl	80005f0 <prvHeapInit>
			xHeapHasBeenInitialised = pdTRUE;
 800047c:	4b3a      	ldr	r3, [pc, #232]	; (8000568 <pvPortMalloc+0x108>)
 800047e:	2201      	movs	r2, #1
 8000480:	601a      	str	r2, [r3, #0]
		}

		/* The wanted size is increased so it can contain a BlockLink_t
		structure in addition to the requested amount of bytes. */
		if( xWantedSize > 0 )
 8000482:	687b      	ldr	r3, [r7, #4]
 8000484:	2b00      	cmp	r3, #0
 8000486:	d00d      	beq.n	80004a4 <pvPortMalloc+0x44>
		{
			xWantedSize += heapSTRUCT_SIZE;
 8000488:	2308      	movs	r3, #8
 800048a:	001a      	movs	r2, r3
 800048c:	687b      	ldr	r3, [r7, #4]
 800048e:	189b      	adds	r3, r3, r2
 8000490:	607b      	str	r3, [r7, #4]

			/* Ensure that blocks are always aligned to the required number of bytes. */
			if( ( xWantedSize & portBYTE_ALIGNMENT_MASK ) != 0 )
 8000492:	687b      	ldr	r3, [r7, #4]
 8000494:	2207      	movs	r2, #7
 8000496:	4013      	ands	r3, r2
 8000498:	d004      	beq.n	80004a4 <pvPortMalloc+0x44>
			{
				/* Byte alignment required. */
				xWantedSize += ( portBYTE_ALIGNMENT - ( xWantedSize & portBYTE_ALIGNMENT_MASK ) );
 800049a:	687b      	ldr	r3, [r7, #4]
 800049c:	2207      	movs	r2, #7
 800049e:	4393      	bics	r3, r2
 80004a0:	3308      	adds	r3, #8
 80004a2:	607b      	str	r3, [r7, #4]
			}
		}

		if( ( xWantedSize > 0 ) && ( xWantedSize < configADJUSTED_HEAP_SIZE ) )
 80004a4:	687b      	ldr	r3, [r7, #4]
 80004a6:	2b00      	cmp	r3, #0
 80004a8:	d056      	beq.n	8000558 <pvPortMalloc+0xf8>
 80004aa:	687b      	ldr	r3, [r7, #4]
 80004ac:	4a2f      	ldr	r2, [pc, #188]	; (800056c <pvPortMalloc+0x10c>)
 80004ae:	4293      	cmp	r3, r2
 80004b0:	d852      	bhi.n	8000558 <pvPortMalloc+0xf8>
		{
			/* Blocks are stored in byte order - traverse the list from the start
			(smallest) block until one of adequate size is found. */
			pxPreviousBlock = &xStart;
 80004b2:	4b2f      	ldr	r3, [pc, #188]	; (8000570 <pvPortMalloc+0x110>)
 80004b4:	61bb      	str	r3, [r7, #24]
			pxBlock = xStart.pxNextFreeBlock;
 80004b6:	4b2e      	ldr	r3, [pc, #184]	; (8000570 <pvPortMalloc+0x110>)
 80004b8:	681b      	ldr	r3, [r3, #0]
 80004ba:	61fb      	str	r3, [r7, #28]
			while( ( pxBlock->xBlockSize < xWantedSize ) && ( pxBlock->pxNextFreeBlock != NULL ) )
 80004bc:	e004      	b.n	80004c8 <pvPortMalloc+0x68>
			{
				pxPreviousBlock = pxBlock;
 80004be:	69fb      	ldr	r3, [r7, #28]
 80004c0:	61bb      	str	r3, [r7, #24]
				pxBlock = pxBlock->pxNextFreeBlock;
 80004c2:	69fb      	ldr	r3, [r7, #28]
 80004c4:	681b      	ldr	r3, [r3, #0]
 80004c6:	61fb      	str	r3, [r7, #28]
			while( ( pxBlock->xBlockSize < xWantedSize ) && ( pxBlock->pxNextFreeBlock != NULL ) )
 80004c8:	69fb      	ldr	r3, [r7, #28]
 80004ca:	685a      	ldr	r2, [r3, #4]
 80004cc:	687b      	ldr	r3, [r7, #4]
 80004ce:	429a      	cmp	r2, r3
 80004d0:	d203      	bcs.n	80004da <pvPortMalloc+0x7a>
 80004d2:	69fb      	ldr	r3, [r7, #28]
 80004d4:	681b      	ldr	r3, [r3, #0]
 80004d6:	2b00      	cmp	r3, #0
 80004d8:	d1f1      	bne.n	80004be <pvPortMalloc+0x5e>
			}

			/* If we found the end marker then a block of adequate size was not found. */
			if( pxBlock != &xEnd )
 80004da:	69fa      	ldr	r2, [r7, #28]
 80004dc:	4b25      	ldr	r3, [pc, #148]	; (8000574 <pvPortMalloc+0x114>)
 80004de:	429a      	cmp	r2, r3
 80004e0:	d03a      	beq.n	8000558 <pvPortMalloc+0xf8>
			{
				/* Return the memory space - jumping over the BlockLink_t structure
				at its start. */
				pvReturn = ( void * ) ( ( ( uint8_t * ) pxPreviousBlock->pxNextFreeBlock ) + heapSTRUCT_SIZE );
 80004e2:	69bb      	ldr	r3, [r7, #24]
 80004e4:	681b      	ldr	r3, [r3, #0]
 80004e6:	2208      	movs	r2, #8
 80004e8:	189b      	adds	r3, r3, r2
 80004ea:	617b      	str	r3, [r7, #20]

				/* This block is being returned for use so must be taken out of the
				list of free blocks. */
				pxPreviousBlock->pxNextFreeBlock = pxBlock->pxNextFreeBlock;
 80004ec:	69fb      	ldr	r3, [r7, #28]
 80004ee:	681a      	ldr	r2, [r3, #0]
 80004f0:	69bb      	ldr	r3, [r7, #24]
 80004f2:	601a      	str	r2, [r3, #0]

				/* If the block is larger than required it can be split into two. */
				if( ( pxBlock->xBlockSize - xWantedSize ) > heapMINIMUM_BLOCK_SIZE )
 80004f4:	69fb      	ldr	r3, [r7, #28]
 80004f6:	685a      	ldr	r2, [r3, #4]
 80004f8:	687b      	ldr	r3, [r7, #4]
 80004fa:	1ad3      	subs	r3, r2, r3
 80004fc:	2208      	movs	r2, #8
 80004fe:	0052      	lsls	r2, r2, #1
 8000500:	4293      	cmp	r3, r2
 8000502:	d922      	bls.n	800054a <pvPortMalloc+0xea>
				{
					/* This block is to be split into two.  Create a new block
					following the number of bytes requested. The void cast is
					used to prevent byte alignment warnings from the compiler. */
					pxNewBlockLink = ( void * ) ( ( ( uint8_t * ) pxBlock ) + xWantedSize );
 8000504:	69fa      	ldr	r2, [r7, #28]
 8000506:	687b      	ldr	r3, [r7, #4]
 8000508:	18d3      	adds	r3, r2, r3
 800050a:	60fb      	str	r3, [r7, #12]

					/* Calculate the sizes of two blocks split from the single
					block. */
					pxNewBlockLink->xBlockSize = pxBlock->xBlockSize - xWantedSize;
 800050c:	69fb      	ldr	r3, [r7, #28]
 800050e:	685a      	ldr	r2, [r3, #4]
 8000510:	687b      	ldr	r3, [r7, #4]
 8000512:	1ad2      	subs	r2, r2, r3
 8000514:	68fb      	ldr	r3, [r7, #12]
 8000516:	605a      	str	r2, [r3, #4]
					pxBlock->xBlockSize = xWantedSize;
 8000518:	69fb      	ldr	r3, [r7, #28]
 800051a:	687a      	ldr	r2, [r7, #4]
 800051c:	605a      	str	r2, [r3, #4]

					/* Insert the new block into the list of free blocks. */
					prvInsertBlockIntoFreeList( ( pxNewBlockLink ) );
 800051e:	68fb      	ldr	r3, [r7, #12]
 8000520:	685b      	ldr	r3, [r3, #4]
 8000522:	60bb      	str	r3, [r7, #8]
 8000524:	4b12      	ldr	r3, [pc, #72]	; (8000570 <pvPortMalloc+0x110>)
 8000526:	613b      	str	r3, [r7, #16]
 8000528:	e002      	b.n	8000530 <pvPortMalloc+0xd0>
 800052a:	693b      	ldr	r3, [r7, #16]
 800052c:	681b      	ldr	r3, [r3, #0]
 800052e:	613b      	str	r3, [r7, #16]
 8000530:	693b      	ldr	r3, [r7, #16]
 8000532:	681b      	ldr	r3, [r3, #0]
 8000534:	685a      	ldr	r2, [r3, #4]
 8000536:	68bb      	ldr	r3, [r7, #8]
 8000538:	429a      	cmp	r2, r3
 800053a:	d3f6      	bcc.n	800052a <pvPortMalloc+0xca>
 800053c:	693b      	ldr	r3, [r7, #16]
 800053e:	681a      	ldr	r2, [r3, #0]
 8000540:	68fb      	ldr	r3, [r7, #12]
 8000542:	601a      	str	r2, [r3, #0]
 8000544:	693b      	ldr	r3, [r7, #16]
 8000546:	68fa      	ldr	r2, [r7, #12]
 8000548:	601a      	str	r2, [r3, #0]
				}

				xFreeBytesRemaining -= pxBlock->xBlockSize;
 800054a:	4b0b      	ldr	r3, [pc, #44]	; (8000578 <pvPortMalloc+0x118>)
 800054c:	681a      	ldr	r2, [r3, #0]
 800054e:	69fb      	ldr	r3, [r7, #28]
 8000550:	685b      	ldr	r3, [r3, #4]
 8000552:	1ad2      	subs	r2, r2, r3
 8000554:	4b08      	ldr	r3, [pc, #32]	; (8000578 <pvPortMalloc+0x118>)
 8000556:	601a      	str	r2, [r3, #0]
			}
		}

		traceMALLOC( pvReturn, xWantedSize );
	}
	( void ) xTaskResumeAll();
 8000558:	f000 ffce 	bl	80014f8 <xTaskResumeAll>
			vApplicationMallocFailedHook();
		}
	}
	#endif

	return pvReturn;
 800055c:	697b      	ldr	r3, [r7, #20]
}
 800055e:	0018      	movs	r0, r3
 8000560:	46bd      	mov	sp, r7
 8000562:	b008      	add	sp, #32
 8000564:	bd80      	pop	{r7, pc}
 8000566:	46c0      	nop			; (mov r8, r8)
 8000568:	200019b8 	.word	0x200019b8
 800056c:	0000195b 	.word	0x0000195b
 8000570:	200019a8 	.word	0x200019a8
 8000574:	200019b0 	.word	0x200019b0
 8000578:	20000000 	.word	0x20000000

0800057c <vPortFree>:
/*-----------------------------------------------------------*/

void vPortFree( void *pv )
{
 800057c:	b580      	push	{r7, lr}
 800057e:	b086      	sub	sp, #24
 8000580:	af00      	add	r7, sp, #0
 8000582:	6078      	str	r0, [r7, #4]
uint8_t *puc = ( uint8_t * ) pv;
 8000584:	687b      	ldr	r3, [r7, #4]
 8000586:	613b      	str	r3, [r7, #16]
BlockLink_t *pxLink;

	if( pv != NULL )
 8000588:	687b      	ldr	r3, [r7, #4]
 800058a:	2b00      	cmp	r3, #0
 800058c:	d027      	beq.n	80005de <vPortFree+0x62>
	{
		/* The memory being freed will have an BlockLink_t structure immediately
		before it. */
		puc -= heapSTRUCT_SIZE;
 800058e:	2308      	movs	r3, #8
 8000590:	425b      	negs	r3, r3
 8000592:	693a      	ldr	r2, [r7, #16]
 8000594:	18d3      	adds	r3, r2, r3
 8000596:	613b      	str	r3, [r7, #16]

		/* This unexpected casting is to keep some compilers from issuing
		byte alignment warnings. */
		pxLink = ( void * ) puc;
 8000598:	693b      	ldr	r3, [r7, #16]
 800059a:	60fb      	str	r3, [r7, #12]

		vTaskSuspendAll();
 800059c:	f000 ffa0 	bl	80014e0 <vTaskSuspendAll>
		{
			/* Add this block to the list of free blocks. */
			prvInsertBlockIntoFreeList( ( ( BlockLink_t * ) pxLink ) );
 80005a0:	68fb      	ldr	r3, [r7, #12]
 80005a2:	685b      	ldr	r3, [r3, #4]
 80005a4:	60bb      	str	r3, [r7, #8]
 80005a6:	4b10      	ldr	r3, [pc, #64]	; (80005e8 <vPortFree+0x6c>)
 80005a8:	617b      	str	r3, [r7, #20]
 80005aa:	e002      	b.n	80005b2 <vPortFree+0x36>
 80005ac:	697b      	ldr	r3, [r7, #20]
 80005ae:	681b      	ldr	r3, [r3, #0]
 80005b0:	617b      	str	r3, [r7, #20]
 80005b2:	697b      	ldr	r3, [r7, #20]
 80005b4:	681b      	ldr	r3, [r3, #0]
 80005b6:	685a      	ldr	r2, [r3, #4]
 80005b8:	68bb      	ldr	r3, [r7, #8]
 80005ba:	429a      	cmp	r2, r3
 80005bc:	d3f6      	bcc.n	80005ac <vPortFree+0x30>
 80005be:	697b      	ldr	r3, [r7, #20]
 80005c0:	681a      	ldr	r2, [r3, #0]
 80005c2:	68fb      	ldr	r3, [r7, #12]
 80005c4:	601a      	str	r2, [r3, #0]
 80005c6:	697b      	ldr	r3, [r7, #20]
 80005c8:	68fa      	ldr	r2, [r7, #12]
 80005ca:	601a      	str	r2, [r3, #0]
			xFreeBytesRemaining += pxLink->xBlockSize;
 80005cc:	68fb      	ldr	r3, [r7, #12]
 80005ce:	685a      	ldr	r2, [r3, #4]
 80005d0:	4b06      	ldr	r3, [pc, #24]	; (80005ec <vPortFree+0x70>)
 80005d2:	681b      	ldr	r3, [r3, #0]
 80005d4:	18d2      	adds	r2, r2, r3
 80005d6:	4b05      	ldr	r3, [pc, #20]	; (80005ec <vPortFree+0x70>)
 80005d8:	601a      	str	r2, [r3, #0]
			traceFREE( pv, pxLink->xBlockSize );
		}
		( void ) xTaskResumeAll();
 80005da:	f000 ff8d 	bl	80014f8 <xTaskResumeAll>
	}
}
 80005de:	46c0      	nop			; (mov r8, r8)
 80005e0:	46bd      	mov	sp, r7
 80005e2:	b006      	add	sp, #24
 80005e4:	bd80      	pop	{r7, pc}
 80005e6:	46c0      	nop			; (mov r8, r8)
 80005e8:	200019a8 	.word	0x200019a8
 80005ec:	20000000 	.word	0x20000000

080005f0 <prvHeapInit>:
	/* This just exists to keep the linker quiet. */
}
/*-----------------------------------------------------------*/

static void prvHeapInit( void )
{
 80005f0:	b580      	push	{r7, lr}
 80005f2:	b082      	sub	sp, #8
 80005f4:	af00      	add	r7, sp, #0
BlockLink_t *pxFirstFreeBlock;
uint8_t *pucAlignedHeap;

	/* Ensure the heap starts on a correctly aligned boundary. */
	pucAlignedHeap = ( uint8_t * ) ( ( ( portPOINTER_SIZE_TYPE ) &ucHeap[ portBYTE_ALIGNMENT ] ) & ( ~( ( portPOINTER_SIZE_TYPE ) portBYTE_ALIGNMENT_MASK ) ) );
 80005f6:	4b0e      	ldr	r3, [pc, #56]	; (8000630 <prvHeapInit+0x40>)
 80005f8:	2207      	movs	r2, #7
 80005fa:	4393      	bics	r3, r2
 80005fc:	607b      	str	r3, [r7, #4]

	/* xStart is used to hold a pointer to the first item in the list of free
	blocks.  The void cast is used to prevent compiler warnings. */
	xStart.pxNextFreeBlock = ( void * ) pucAlignedHeap;
 80005fe:	4b0d      	ldr	r3, [pc, #52]	; (8000634 <prvHeapInit+0x44>)
 8000600:	687a      	ldr	r2, [r7, #4]
 8000602:	601a      	str	r2, [r3, #0]
	xStart.xBlockSize = ( size_t ) 0;
 8000604:	4b0b      	ldr	r3, [pc, #44]	; (8000634 <prvHeapInit+0x44>)
 8000606:	2200      	movs	r2, #0
 8000608:	605a      	str	r2, [r3, #4]

	/* xEnd is used to mark the end of the list of free blocks. */
	xEnd.xBlockSize = configADJUSTED_HEAP_SIZE;
 800060a:	4b0b      	ldr	r3, [pc, #44]	; (8000638 <prvHeapInit+0x48>)
 800060c:	4a0b      	ldr	r2, [pc, #44]	; (800063c <prvHeapInit+0x4c>)
 800060e:	605a      	str	r2, [r3, #4]
	xEnd.pxNextFreeBlock = NULL;
 8000610:	4b09      	ldr	r3, [pc, #36]	; (8000638 <prvHeapInit+0x48>)
 8000612:	2200      	movs	r2, #0
 8000614:	601a      	str	r2, [r3, #0]

	/* To start with there is a single free block that is sized to take up the
	entire heap space. */
	pxFirstFreeBlock = ( void * ) pucAlignedHeap;
 8000616:	687b      	ldr	r3, [r7, #4]
 8000618:	603b      	str	r3, [r7, #0]
	pxFirstFreeBlock->xBlockSize = configADJUSTED_HEAP_SIZE;
 800061a:	683b      	ldr	r3, [r7, #0]
 800061c:	4a07      	ldr	r2, [pc, #28]	; (800063c <prvHeapInit+0x4c>)
 800061e:	605a      	str	r2, [r3, #4]
	pxFirstFreeBlock->pxNextFreeBlock = &xEnd;
 8000620:	683b      	ldr	r3, [r7, #0]
 8000622:	4a05      	ldr	r2, [pc, #20]	; (8000638 <prvHeapInit+0x48>)
 8000624:	601a      	str	r2, [r3, #0]
}
 8000626:	46c0      	nop			; (mov r8, r8)
 8000628:	46bd      	mov	sp, r7
 800062a:	b002      	add	sp, #8
 800062c:	bd80      	pop	{r7, pc}
 800062e:	46c0      	nop			; (mov r8, r8)
 8000630:	2000004c 	.word	0x2000004c
 8000634:	200019a8 	.word	0x200019a8
 8000638:	200019b0 	.word	0x200019b0
 800063c:	0000195c 	.word	0x0000195c

08000640 <vListInitialise>:
/*-----------------------------------------------------------
 * PUBLIC LIST API documented in list.h
 *----------------------------------------------------------*/

void vListInitialise( List_t * const pxList )
{
 8000640:	b580      	push	{r7, lr}
 8000642:	b082      	sub	sp, #8
 8000644:	af00      	add	r7, sp, #0
 8000646:	6078      	str	r0, [r7, #4]
	/* The list structure contains a list item which is used to mark the
	end of the list.  To initialise the list the list end is inserted
	as the only list entry. */
	pxList->pxIndex = ( ListItem_t * ) &( pxList->xListEnd );			/*lint !e826 !e740 !e9087 The mini list structure is used as the list end to save RAM.  This is checked and valid. */
 8000648:	687b      	ldr	r3, [r7, #4]
 800064a:	3308      	adds	r3, #8
 800064c:	001a      	movs	r2, r3
 800064e:	687b      	ldr	r3, [r7, #4]
 8000650:	605a      	str	r2, [r3, #4]

	/* The list end value is the highest possible value in the list to
	ensure it remains at the end of the list. */
	pxList->xListEnd.xItemValue = portMAX_DELAY;
 8000652:	687b      	ldr	r3, [r7, #4]
 8000654:	2201      	movs	r2, #1
 8000656:	4252      	negs	r2, r2
 8000658:	609a      	str	r2, [r3, #8]

	/* The list end next and previous pointers point to itself so we know
	when the list is empty. */
	pxList->xListEnd.pxNext = ( ListItem_t * ) &( pxList->xListEnd );	/*lint !e826 !e740 !e9087 The mini list structure is used as the list end to save RAM.  This is checked and valid. */
 800065a:	687b      	ldr	r3, [r7, #4]
 800065c:	3308      	adds	r3, #8
 800065e:	001a      	movs	r2, r3
 8000660:	687b      	ldr	r3, [r7, #4]
 8000662:	60da      	str	r2, [r3, #12]
	pxList->xListEnd.pxPrevious = ( ListItem_t * ) &( pxList->xListEnd );/*lint !e826 !e740 !e9087 The mini list structure is used as the list end to save RAM.  This is checked and valid. */
 8000664:	687b      	ldr	r3, [r7, #4]
 8000666:	3308      	adds	r3, #8
 8000668:	001a      	movs	r2, r3
 800066a:	687b      	ldr	r3, [r7, #4]
 800066c:	611a      	str	r2, [r3, #16]

	pxList->uxNumberOfItems = ( UBaseType_t ) 0U;
 800066e:	687b      	ldr	r3, [r7, #4]
 8000670:	2200      	movs	r2, #0
 8000672:	601a      	str	r2, [r3, #0]

	/* Write known values into the list if
	configUSE_LIST_DATA_INTEGRITY_CHECK_BYTES is set to 1. */
	listSET_LIST_INTEGRITY_CHECK_1_VALUE( pxList );
	listSET_LIST_INTEGRITY_CHECK_2_VALUE( pxList );
}
 8000674:	46c0      	nop			; (mov r8, r8)
 8000676:	46bd      	mov	sp, r7
 8000678:	b002      	add	sp, #8
 800067a:	bd80      	pop	{r7, pc}

0800067c <vListInitialiseItem>:
/*-----------------------------------------------------------*/

void vListInitialiseItem( ListItem_t * const pxItem )
{
 800067c:	b580      	push	{r7, lr}
 800067e:	b082      	sub	sp, #8
 8000680:	af00      	add	r7, sp, #0
 8000682:	6078      	str	r0, [r7, #4]
	/* Make sure the list item is not recorded as being on a list. */
	pxItem->pxContainer = NULL;
 8000684:	687b      	ldr	r3, [r7, #4]
 8000686:	2200      	movs	r2, #0
 8000688:	611a      	str	r2, [r3, #16]

	/* Write known values into the list item if
	configUSE_LIST_DATA_INTEGRITY_CHECK_BYTES is set to 1. */
	listSET_FIRST_LIST_ITEM_INTEGRITY_CHECK_VALUE( pxItem );
	listSET_SECOND_LIST_ITEM_INTEGRITY_CHECK_VALUE( pxItem );
}
 800068a:	46c0      	nop			; (mov r8, r8)
 800068c:	46bd      	mov	sp, r7
 800068e:	b002      	add	sp, #8
 8000690:	bd80      	pop	{r7, pc}

08000692 <vListInsertEnd>:
/*-----------------------------------------------------------*/

void vListInsertEnd( List_t * const pxList, ListItem_t * const pxNewListItem )
{
 8000692:	b580      	push	{r7, lr}
 8000694:	b084      	sub	sp, #16
 8000696:	af00      	add	r7, sp, #0
 8000698:	6078      	str	r0, [r7, #4]
 800069a:	6039      	str	r1, [r7, #0]
ListItem_t * const pxIndex = pxList->pxIndex;
 800069c:	687b      	ldr	r3, [r7, #4]
 800069e:	685b      	ldr	r3, [r3, #4]
 80006a0:	60fb      	str	r3, [r7, #12]
	listTEST_LIST_ITEM_INTEGRITY( pxNewListItem );

	/* Insert a new list item into pxList, but rather than sort the list,
	makes the new list item the last item to be removed by a call to
	listGET_OWNER_OF_NEXT_ENTRY(). */
	pxNewListItem->pxNext = pxIndex;
 80006a2:	683b      	ldr	r3, [r7, #0]
 80006a4:	68fa      	ldr	r2, [r7, #12]
 80006a6:	605a      	str	r2, [r3, #4]
	pxNewListItem->pxPrevious = pxIndex->pxPrevious;
 80006a8:	68fb      	ldr	r3, [r7, #12]
 80006aa:	689a      	ldr	r2, [r3, #8]
 80006ac:	683b      	ldr	r3, [r7, #0]
 80006ae:	609a      	str	r2, [r3, #8]

	/* Only used during decision coverage testing. */
	mtCOVERAGE_TEST_DELAY();

	pxIndex->pxPrevious->pxNext = pxNewListItem;
 80006b0:	68fb      	ldr	r3, [r7, #12]
 80006b2:	689b      	ldr	r3, [r3, #8]
 80006b4:	683a      	ldr	r2, [r7, #0]
 80006b6:	605a      	str	r2, [r3, #4]
	pxIndex->pxPrevious = pxNewListItem;
 80006b8:	68fb      	ldr	r3, [r7, #12]
 80006ba:	683a      	ldr	r2, [r7, #0]
 80006bc:	609a      	str	r2, [r3, #8]

	/* Remember which list the item is in. */
	pxNewListItem->pxContainer = pxList;
 80006be:	683b      	ldr	r3, [r7, #0]
 80006c0:	687a      	ldr	r2, [r7, #4]
 80006c2:	611a      	str	r2, [r3, #16]

	( pxList->uxNumberOfItems )++;
 80006c4:	687b      	ldr	r3, [r7, #4]
 80006c6:	681b      	ldr	r3, [r3, #0]
 80006c8:	1c5a      	adds	r2, r3, #1
 80006ca:	687b      	ldr	r3, [r7, #4]
 80006cc:	601a      	str	r2, [r3, #0]
}
 80006ce:	46c0      	nop			; (mov r8, r8)
 80006d0:	46bd      	mov	sp, r7
 80006d2:	b004      	add	sp, #16
 80006d4:	bd80      	pop	{r7, pc}

080006d6 <vListInsert>:
/*-----------------------------------------------------------*/

void vListInsert( List_t * const pxList, ListItem_t * const pxNewListItem )
{
 80006d6:	b580      	push	{r7, lr}
 80006d8:	b084      	sub	sp, #16
 80006da:	af00      	add	r7, sp, #0
 80006dc:	6078      	str	r0, [r7, #4]
 80006de:	6039      	str	r1, [r7, #0]
ListItem_t *pxIterator;
const TickType_t xValueOfInsertion = pxNewListItem->xItemValue;
 80006e0:	683b      	ldr	r3, [r7, #0]
 80006e2:	681b      	ldr	r3, [r3, #0]
 80006e4:	60bb      	str	r3, [r7, #8]
	new list item should be placed after it.  This ensures that TCBs which are
	stored in ready lists (all of which have the same xItemValue value) get a
	share of the CPU.  However, if the xItemValue is the same as the back marker
	the iteration loop below will not end.  Therefore the value is checked
	first, and the algorithm slightly modified if necessary. */
	if( xValueOfInsertion == portMAX_DELAY )
 80006e6:	68bb      	ldr	r3, [r7, #8]
 80006e8:	3301      	adds	r3, #1
 80006ea:	d103      	bne.n	80006f4 <vListInsert+0x1e>
	{
		pxIterator = pxList->xListEnd.pxPrevious;
 80006ec:	687b      	ldr	r3, [r7, #4]
 80006ee:	691b      	ldr	r3, [r3, #16]
 80006f0:	60fb      	str	r3, [r7, #12]
 80006f2:	e00c      	b.n	800070e <vListInsert+0x38>
			4) Using a queue or semaphore before it has been initialised or
			   before the scheduler has been started (are interrupts firing
			   before vTaskStartScheduler() has been called?).
		**********************************************************************/

		for( pxIterator = ( ListItem_t * ) &( pxList->xListEnd ); pxIterator->pxNext->xItemValue <= xValueOfInsertion; pxIterator = pxIterator->pxNext ) /*lint !e826 !e740 !e9087 The mini list structure is used as the list end to save RAM.  This is checked and valid. *//*lint !e440 The iterator moves to a different value, not xValueOfInsertion. */
 80006f4:	687b      	ldr	r3, [r7, #4]
 80006f6:	3308      	adds	r3, #8
 80006f8:	60fb      	str	r3, [r7, #12]
 80006fa:	e002      	b.n	8000702 <vListInsert+0x2c>
 80006fc:	68fb      	ldr	r3, [r7, #12]
 80006fe:	685b      	ldr	r3, [r3, #4]
 8000700:	60fb      	str	r3, [r7, #12]
 8000702:	68fb      	ldr	r3, [r7, #12]
 8000704:	685b      	ldr	r3, [r3, #4]
 8000706:	681a      	ldr	r2, [r3, #0]
 8000708:	68bb      	ldr	r3, [r7, #8]
 800070a:	429a      	cmp	r2, r3
 800070c:	d9f6      	bls.n	80006fc <vListInsert+0x26>
			/* There is nothing to do here, just iterating to the wanted
			insertion position. */
		}
	}

	pxNewListItem->pxNext = pxIterator->pxNext;
 800070e:	68fb      	ldr	r3, [r7, #12]
 8000710:	685a      	ldr	r2, [r3, #4]
 8000712:	683b      	ldr	r3, [r7, #0]
 8000714:	605a      	str	r2, [r3, #4]
	pxNewListItem->pxNext->pxPrevious = pxNewListItem;
 8000716:	683b      	ldr	r3, [r7, #0]
 8000718:	685b      	ldr	r3, [r3, #4]
 800071a:	683a      	ldr	r2, [r7, #0]
 800071c:	609a      	str	r2, [r3, #8]
	pxNewListItem->pxPrevious = pxIterator;
 800071e:	683b      	ldr	r3, [r7, #0]
 8000720:	68fa      	ldr	r2, [r7, #12]
 8000722:	609a      	str	r2, [r3, #8]
	pxIterator->pxNext = pxNewListItem;
 8000724:	68fb      	ldr	r3, [r7, #12]
 8000726:	683a      	ldr	r2, [r7, #0]
 8000728:	605a      	str	r2, [r3, #4]

	/* Remember which list the item is in.  This allows fast removal of the
	item later. */
	pxNewListItem->pxContainer = pxList;
 800072a:	683b      	ldr	r3, [r7, #0]
 800072c:	687a      	ldr	r2, [r7, #4]
 800072e:	611a      	str	r2, [r3, #16]

	( pxList->uxNumberOfItems )++;
 8000730:	687b      	ldr	r3, [r7, #4]
 8000732:	681b      	ldr	r3, [r3, #0]
 8000734:	1c5a      	adds	r2, r3, #1
 8000736:	687b      	ldr	r3, [r7, #4]
 8000738:	601a      	str	r2, [r3, #0]
}
 800073a:	46c0      	nop			; (mov r8, r8)
 800073c:	46bd      	mov	sp, r7
 800073e:	b004      	add	sp, #16
 8000740:	bd80      	pop	{r7, pc}

08000742 <uxListRemove>:
/*-----------------------------------------------------------*/

UBaseType_t uxListRemove( ListItem_t * const pxItemToRemove )
{
 8000742:	b580      	push	{r7, lr}
 8000744:	b084      	sub	sp, #16
 8000746:	af00      	add	r7, sp, #0
 8000748:	6078      	str	r0, [r7, #4]
/* The list item knows which list it is in.  Obtain the list from the list
item. */
List_t * const pxList = pxItemToRemove->pxContainer;
 800074a:	687b      	ldr	r3, [r7, #4]
 800074c:	691b      	ldr	r3, [r3, #16]
 800074e:	60fb      	str	r3, [r7, #12]

	pxItemToRemove->pxNext->pxPrevious = pxItemToRemove->pxPrevious;
 8000750:	687b      	ldr	r3, [r7, #4]
 8000752:	685b      	ldr	r3, [r3, #4]
 8000754:	687a      	ldr	r2, [r7, #4]
 8000756:	6892      	ldr	r2, [r2, #8]
 8000758:	609a      	str	r2, [r3, #8]
	pxItemToRemove->pxPrevious->pxNext = pxItemToRemove->pxNext;
 800075a:	687b      	ldr	r3, [r7, #4]
 800075c:	689b      	ldr	r3, [r3, #8]
 800075e:	687a      	ldr	r2, [r7, #4]
 8000760:	6852      	ldr	r2, [r2, #4]
 8000762:	605a      	str	r2, [r3, #4]

	/* Only used during decision coverage testing. */
	mtCOVERAGE_TEST_DELAY();

	/* Make sure the index is left pointing to a valid item. */
	if( pxList->pxIndex == pxItemToRemove )
 8000764:	68fb      	ldr	r3, [r7, #12]
 8000766:	685a      	ldr	r2, [r3, #4]
 8000768:	687b      	ldr	r3, [r7, #4]
 800076a:	429a      	cmp	r2, r3
 800076c:	d103      	bne.n	8000776 <uxListRemove+0x34>
	{
		pxList->pxIndex = pxItemToRemove->pxPrevious;
 800076e:	687b      	ldr	r3, [r7, #4]
 8000770:	689a      	ldr	r2, [r3, #8]
 8000772:	68fb      	ldr	r3, [r7, #12]
 8000774:	605a      	str	r2, [r3, #4]
	else
	{
		mtCOVERAGE_TEST_MARKER();
	}

	pxItemToRemove->pxContainer = NULL;
 8000776:	687b      	ldr	r3, [r7, #4]
 8000778:	2200      	movs	r2, #0
 800077a:	611a      	str	r2, [r3, #16]
	( pxList->uxNumberOfItems )--;
 800077c:	68fb      	ldr	r3, [r7, #12]
 800077e:	681b      	ldr	r3, [r3, #0]
 8000780:	1e5a      	subs	r2, r3, #1
 8000782:	68fb      	ldr	r3, [r7, #12]
 8000784:	601a      	str	r2, [r3, #0]

	return pxList->uxNumberOfItems;
 8000786:	68fb      	ldr	r3, [r7, #12]
 8000788:	681b      	ldr	r3, [r3, #0]
}
 800078a:	0018      	movs	r0, r3
 800078c:	46bd      	mov	sp, r7
 800078e:	b004      	add	sp, #16
 8000790:	bd80      	pop	{r7, pc}
	...

08000794 <pxPortInitialiseStack>:

/*
 * See header file for description.
 */
StackType_t *pxPortInitialiseStack( StackType_t *pxTopOfStack, TaskFunction_t pxCode, void *pvParameters )
{
 8000794:	b580      	push	{r7, lr}
 8000796:	b084      	sub	sp, #16
 8000798:	af00      	add	r7, sp, #0
 800079a:	60f8      	str	r0, [r7, #12]
 800079c:	60b9      	str	r1, [r7, #8]
 800079e:	607a      	str	r2, [r7, #4]
	/* Simulate the stack frame as it would be created by a context switch
	interrupt. */
	pxTopOfStack--; /* Offset added to account for the way the MCU uses the stack on entry/exit of interrupts. */
 80007a0:	68fb      	ldr	r3, [r7, #12]
 80007a2:	3b04      	subs	r3, #4
 80007a4:	60fb      	str	r3, [r7, #12]
	*pxTopOfStack = portINITIAL_XPSR;	/* xPSR */
 80007a6:	68fb      	ldr	r3, [r7, #12]
 80007a8:	2280      	movs	r2, #128	; 0x80
 80007aa:	0452      	lsls	r2, r2, #17
 80007ac:	601a      	str	r2, [r3, #0]
	pxTopOfStack--;
 80007ae:	68fb      	ldr	r3, [r7, #12]
 80007b0:	3b04      	subs	r3, #4
 80007b2:	60fb      	str	r3, [r7, #12]
	*pxTopOfStack = ( StackType_t ) pxCode;	/* PC */
 80007b4:	68ba      	ldr	r2, [r7, #8]
 80007b6:	68fb      	ldr	r3, [r7, #12]
 80007b8:	601a      	str	r2, [r3, #0]
	pxTopOfStack--;
 80007ba:	68fb      	ldr	r3, [r7, #12]
 80007bc:	3b04      	subs	r3, #4
 80007be:	60fb      	str	r3, [r7, #12]
	*pxTopOfStack = ( StackType_t ) portTASK_RETURN_ADDRESS;	/* LR */
 80007c0:	4a08      	ldr	r2, [pc, #32]	; (80007e4 <pxPortInitialiseStack+0x50>)
 80007c2:	68fb      	ldr	r3, [r7, #12]
 80007c4:	601a      	str	r2, [r3, #0]
	pxTopOfStack -= 5;	/* R12, R3, R2 and R1. */
 80007c6:	68fb      	ldr	r3, [r7, #12]
 80007c8:	3b14      	subs	r3, #20
 80007ca:	60fb      	str	r3, [r7, #12]
	*pxTopOfStack = ( StackType_t ) pvParameters;	/* R0 */
 80007cc:	687a      	ldr	r2, [r7, #4]
 80007ce:	68fb      	ldr	r3, [r7, #12]
 80007d0:	601a      	str	r2, [r3, #0]
	pxTopOfStack -= 8; /* R11..R4. */
 80007d2:	68fb      	ldr	r3, [r7, #12]
 80007d4:	3b20      	subs	r3, #32
 80007d6:	60fb      	str	r3, [r7, #12]

	return pxTopOfStack;
 80007d8:	68fb      	ldr	r3, [r7, #12]
}
 80007da:	0018      	movs	r0, r3
 80007dc:	46bd      	mov	sp, r7
 80007de:	b004      	add	sp, #16
 80007e0:	bd80      	pop	{r7, pc}
 80007e2:	46c0      	nop			; (mov r8, r8)
 80007e4:	080007e9 	.word	0x080007e9

080007e8 <prvTaskExitError>:
/*-----------------------------------------------------------*/

static void prvTaskExitError( void )
{
 80007e8:	b580      	push	{r7, lr}
 80007ea:	b082      	sub	sp, #8
 80007ec:	af00      	add	r7, sp, #0
volatile uint32_t ulDummy = 0UL;
 80007ee:	2300      	movs	r3, #0
 80007f0:	607b      	str	r3, [r7, #4]
	its caller as there is nothing to return to.  If a task wants to exit it
	should instead call vTaskDelete( NULL ).

	Artificially force an assert() to be triggered if configASSERT() is
	defined, then stop here so application writers can catch the error. */
	configASSERT( uxCriticalNesting == ~0UL );
 80007f2:	4b07      	ldr	r3, [pc, #28]	; (8000810 <prvTaskExitError+0x28>)
 80007f4:	681b      	ldr	r3, [r3, #0]
 80007f6:	3301      	adds	r3, #1
 80007f8:	d001      	beq.n	80007fe <prvTaskExitError+0x16>
 80007fa:	b672      	cpsid	i
 80007fc:	e7fe      	b.n	80007fc <prvTaskExitError+0x14>
	portDISABLE_INTERRUPTS();
 80007fe:	b672      	cpsid	i
	while( ulDummy == 0 )
 8000800:	46c0      	nop			; (mov r8, r8)
 8000802:	687b      	ldr	r3, [r7, #4]
 8000804:	2b00      	cmp	r3, #0
 8000806:	d0fc      	beq.n	8000802 <prvTaskExitError+0x1a>
		about code appearing after this function is called - making ulDummy
		volatile makes the compiler think the function could return and
		therefore not output an 'unreachable code' warning for code that appears
		after it. */
	}
}
 8000808:	46c0      	nop			; (mov r8, r8)
 800080a:	46bd      	mov	sp, r7
 800080c:	b002      	add	sp, #8
 800080e:	bd80      	pop	{r7, pc}
 8000810:	20000004 	.word	0x20000004
	...

08000820 <vPortStartFirstTask>:
void vPortStartFirstTask( void )
{
	/* The MSP stack is not reset as, unlike on M3/4 parts, there is no vector
	table offset register that can be used to locate the initial stack value.
	Not all M0 parts have the application vector table at address 0. */
	__asm volatile(
 8000820:	4a0b      	ldr	r2, [pc, #44]	; (8000850 <pxCurrentTCBConst2>)
 8000822:	6813      	ldr	r3, [r2, #0]
 8000824:	6818      	ldr	r0, [r3, #0]
 8000826:	3020      	adds	r0, #32
 8000828:	f380 8809 	msr	PSP, r0
 800082c:	2002      	movs	r0, #2
 800082e:	f380 8814 	msr	CONTROL, r0
 8000832:	f3bf 8f6f 	isb	sy
 8000836:	bc3f      	pop	{r0, r1, r2, r3, r4, r5}
 8000838:	46ae      	mov	lr, r5
 800083a:	bc08      	pop	{r3}
 800083c:	bc04      	pop	{r2}
 800083e:	b662      	cpsie	i
 8000840:	4718      	bx	r3
 8000842:	46c0      	nop			; (mov r8, r8)
 8000844:	46c0      	nop			; (mov r8, r8)
 8000846:	46c0      	nop			; (mov r8, r8)
 8000848:	46c0      	nop			; (mov r8, r8)
 800084a:	46c0      	nop			; (mov r8, r8)
 800084c:	46c0      	nop			; (mov r8, r8)
 800084e:	46c0      	nop			; (mov r8, r8)

08000850 <pxCurrentTCBConst2>:
 8000850:	200019bc 	.word	0x200019bc
	"	bx   r3						\n" /* Finally, jump to the user defined task code. */
	"								\n"
	"	.align 4					\n"
	"pxCurrentTCBConst2: .word pxCurrentTCB	  "
				  );
}
 8000854:	46c0      	nop			; (mov r8, r8)
 8000856:	46c0      	nop			; (mov r8, r8)

08000858 <xPortStartScheduler>:

/*
 * See header file for description.
 */
BaseType_t xPortStartScheduler( void )
{
 8000858:	b580      	push	{r7, lr}
 800085a:	af00      	add	r7, sp, #0
	/* Make PendSV, CallSV and SysTick the same priority as the kernel. */
	portNVIC_SYSPRI2_REG |= portNVIC_PENDSV_PRI;
 800085c:	4b0e      	ldr	r3, [pc, #56]	; (8000898 <xPortStartScheduler+0x40>)
 800085e:	4a0e      	ldr	r2, [pc, #56]	; (8000898 <xPortStartScheduler+0x40>)
 8000860:	6812      	ldr	r2, [r2, #0]
 8000862:	21ff      	movs	r1, #255	; 0xff
 8000864:	0409      	lsls	r1, r1, #16
 8000866:	430a      	orrs	r2, r1
 8000868:	601a      	str	r2, [r3, #0]
	portNVIC_SYSPRI2_REG |= portNVIC_SYSTICK_PRI;
 800086a:	4b0b      	ldr	r3, [pc, #44]	; (8000898 <xPortStartScheduler+0x40>)
 800086c:	4a0a      	ldr	r2, [pc, #40]	; (8000898 <xPortStartScheduler+0x40>)
 800086e:	6812      	ldr	r2, [r2, #0]
 8000870:	21ff      	movs	r1, #255	; 0xff
 8000872:	0609      	lsls	r1, r1, #24
 8000874:	430a      	orrs	r2, r1
 8000876:	601a      	str	r2, [r3, #0]

	/* Start the timer that generates the tick ISR.  Interrupts are disabled
	here already. */
	vPortSetupTimerInterrupt();
 8000878:	f000 f898 	bl	80009ac <vPortSetupTimerInterrupt>

	/* Initialise the critical nesting count ready for the first task. */
	uxCriticalNesting = 0;
 800087c:	4b07      	ldr	r3, [pc, #28]	; (800089c <xPortStartScheduler+0x44>)
 800087e:	2200      	movs	r2, #0
 8000880:	601a      	str	r2, [r3, #0]

	/* Start the first task. */
	vPortStartFirstTask();
 8000882:	f7ff ffcd 	bl	8000820 <vPortStartFirstTask>
	exit error function to prevent compiler warnings about a static function
	not being called in the case that the application writer overrides this
	functionality by defining configTASK_RETURN_ADDRESS.  Call
	vTaskSwitchContext() so link time optimisation does not remove the
	symbol. */
	vTaskSwitchContext();
 8000886:	f000 ff89 	bl	800179c <vTaskSwitchContext>
	prvTaskExitError();
 800088a:	f7ff ffad 	bl	80007e8 <prvTaskExitError>

	/* Should not get here! */
	return 0;
 800088e:	2300      	movs	r3, #0
}
 8000890:	0018      	movs	r0, r3
 8000892:	46bd      	mov	sp, r7
 8000894:	bd80      	pop	{r7, pc}
 8000896:	46c0      	nop			; (mov r8, r8)
 8000898:	e000ed20 	.word	0xe000ed20
 800089c:	20000004 	.word	0x20000004

080008a0 <vPortYield>:
	configASSERT( uxCriticalNesting == 1000UL );
}
/*-----------------------------------------------------------*/

void vPortYield( void )
{
 80008a0:	b580      	push	{r7, lr}
 80008a2:	af00      	add	r7, sp, #0
	/* Set a PendSV to request a context switch. */
	portNVIC_INT_CTRL_REG = portNVIC_PENDSVSET_BIT;
 80008a4:	4b05      	ldr	r3, [pc, #20]	; (80008bc <vPortYield+0x1c>)
 80008a6:	2280      	movs	r2, #128	; 0x80
 80008a8:	0552      	lsls	r2, r2, #21
 80008aa:	601a      	str	r2, [r3, #0]

	/* Barriers are normally not required but do ensure the code is completely
	within the specified behaviour for the architecture. */
	__asm volatile( "dsb" ::: "memory" );
 80008ac:	f3bf 8f4f 	dsb	sy
	__asm volatile( "isb" );
 80008b0:	f3bf 8f6f 	isb	sy
}
 80008b4:	46c0      	nop			; (mov r8, r8)
 80008b6:	46bd      	mov	sp, r7
 80008b8:	bd80      	pop	{r7, pc}
 80008ba:	46c0      	nop			; (mov r8, r8)
 80008bc:	e000ed04 	.word	0xe000ed04

080008c0 <vPortEnterCritical>:
/*-----------------------------------------------------------*/

void vPortEnterCritical( void )
{
 80008c0:	b580      	push	{r7, lr}
 80008c2:	af00      	add	r7, sp, #0
	portDISABLE_INTERRUPTS();
 80008c4:	b672      	cpsid	i
	uxCriticalNesting++;
 80008c6:	4b06      	ldr	r3, [pc, #24]	; (80008e0 <vPortEnterCritical+0x20>)
 80008c8:	681b      	ldr	r3, [r3, #0]
 80008ca:	1c5a      	adds	r2, r3, #1
 80008cc:	4b04      	ldr	r3, [pc, #16]	; (80008e0 <vPortEnterCritical+0x20>)
 80008ce:	601a      	str	r2, [r3, #0]
	__asm volatile( "dsb" ::: "memory" );
 80008d0:	f3bf 8f4f 	dsb	sy
	__asm volatile( "isb" );
 80008d4:	f3bf 8f6f 	isb	sy
}
 80008d8:	46c0      	nop			; (mov r8, r8)
 80008da:	46bd      	mov	sp, r7
 80008dc:	bd80      	pop	{r7, pc}
 80008de:	46c0      	nop			; (mov r8, r8)
 80008e0:	20000004 	.word	0x20000004

080008e4 <vPortExitCritical>:
/*-----------------------------------------------------------*/

void vPortExitCritical( void )
{
 80008e4:	b580      	push	{r7, lr}
 80008e6:	af00      	add	r7, sp, #0
	configASSERT( uxCriticalNesting );
 80008e8:	4b09      	ldr	r3, [pc, #36]	; (8000910 <vPortExitCritical+0x2c>)
 80008ea:	681b      	ldr	r3, [r3, #0]
 80008ec:	2b00      	cmp	r3, #0
 80008ee:	d101      	bne.n	80008f4 <vPortExitCritical+0x10>
 80008f0:	b672      	cpsid	i
 80008f2:	e7fe      	b.n	80008f2 <vPortExitCritical+0xe>
	uxCriticalNesting--;
 80008f4:	4b06      	ldr	r3, [pc, #24]	; (8000910 <vPortExitCritical+0x2c>)
 80008f6:	681b      	ldr	r3, [r3, #0]
 80008f8:	1e5a      	subs	r2, r3, #1
 80008fa:	4b05      	ldr	r3, [pc, #20]	; (8000910 <vPortExitCritical+0x2c>)
 80008fc:	601a      	str	r2, [r3, #0]
	if( uxCriticalNesting == 0 )
 80008fe:	4b04      	ldr	r3, [pc, #16]	; (8000910 <vPortExitCritical+0x2c>)
 8000900:	681b      	ldr	r3, [r3, #0]
 8000902:	2b00      	cmp	r3, #0
 8000904:	d100      	bne.n	8000908 <vPortExitCritical+0x24>
	{
		portENABLE_INTERRUPTS();
 8000906:	b662      	cpsie	i
	}
}
 8000908:	46c0      	nop			; (mov r8, r8)
 800090a:	46bd      	mov	sp, r7
 800090c:	bd80      	pop	{r7, pc}
 800090e:	46c0      	nop			; (mov r8, r8)
 8000910:	20000004 	.word	0x20000004

08000914 <ulSetInterruptMaskFromISR>:
/*-----------------------------------------------------------*/

uint32_t ulSetInterruptMaskFromISR( void )
{
	__asm volatile(
 8000914:	f3ef 8010 	mrs	r0, PRIMASK
 8000918:	b672      	cpsid	i
 800091a:	4770      	bx	lr
					" mrs r0, PRIMASK	\n"
					" cpsid i			\n"
					" bx lr				  "
					::: "memory"
				  );
}
 800091c:	46c0      	nop			; (mov r8, r8)
 800091e:	0018      	movs	r0, r3

08000920 <vClearInterruptMaskFromISR>:
/*-----------------------------------------------------------*/

void vClearInterruptMaskFromISR( __attribute__( ( unused ) ) uint32_t ulMask )
{
	__asm volatile(
 8000920:	f380 8810 	msr	PRIMASK, r0
 8000924:	4770      	bx	lr
					" msr PRIMASK, r0	\n"
					" bx lr				  "
					::: "memory"
				  );
}
 8000926:	46c0      	nop			; (mov r8, r8)
	...

08000930 <PendSV_Handler>:

void xPortPendSVHandler( void )
{
	/* This is a naked function. */

	__asm volatile
 8000930:	f3ef 8009 	mrs	r0, PSP
 8000934:	4b0e      	ldr	r3, [pc, #56]	; (8000970 <pxCurrentTCBConst>)
 8000936:	681a      	ldr	r2, [r3, #0]
 8000938:	3820      	subs	r0, #32
 800093a:	6010      	str	r0, [r2, #0]
 800093c:	c0f0      	stmia	r0!, {r4, r5, r6, r7}
 800093e:	4644      	mov	r4, r8
 8000940:	464d      	mov	r5, r9
 8000942:	4656      	mov	r6, sl
 8000944:	465f      	mov	r7, fp
 8000946:	c0f0      	stmia	r0!, {r4, r5, r6, r7}
 8000948:	b508      	push	{r3, lr}
 800094a:	b672      	cpsid	i
 800094c:	f000 ff26 	bl	800179c <vTaskSwitchContext>
 8000950:	b662      	cpsie	i
 8000952:	bc0c      	pop	{r2, r3}
 8000954:	6811      	ldr	r1, [r2, #0]
 8000956:	6808      	ldr	r0, [r1, #0]
 8000958:	3010      	adds	r0, #16
 800095a:	c8f0      	ldmia	r0!, {r4, r5, r6, r7}
 800095c:	46a0      	mov	r8, r4
 800095e:	46a9      	mov	r9, r5
 8000960:	46b2      	mov	sl, r6
 8000962:	46bb      	mov	fp, r7
 8000964:	f380 8809 	msr	PSP, r0
 8000968:	3820      	subs	r0, #32
 800096a:	c8f0      	ldmia	r0!, {r4, r5, r6, r7}
 800096c:	4718      	bx	r3
 800096e:	46c0      	nop			; (mov r8, r8)

08000970 <pxCurrentTCBConst>:
 8000970:	200019bc 	.word	0x200019bc
	"	bx r3								\n"
	"										\n"
	"	.align 4							\n"
	"pxCurrentTCBConst: .word pxCurrentTCB	  "
	);
}
 8000974:	46c0      	nop			; (mov r8, r8)
 8000976:	46c0      	nop			; (mov r8, r8)

08000978 <SysTick_Handler>:
/*-----------------------------------------------------------*/

void xPortSysTickHandler( void )
{
 8000978:	b580      	push	{r7, lr}
 800097a:	b082      	sub	sp, #8
 800097c:	af00      	add	r7, sp, #0
uint32_t ulPreviousMask;

	ulPreviousMask = portSET_INTERRUPT_MASK_FROM_ISR();
 800097e:	f7ff ffc9 	bl	8000914 <ulSetInterruptMaskFromISR>
 8000982:	0003      	movs	r3, r0
 8000984:	607b      	str	r3, [r7, #4]
	{
		/* Increment the RTOS tick. */
		if( xTaskIncrementTick() != pdFALSE )
 8000986:	f000 fe51 	bl	800162c <xTaskIncrementTick>
 800098a:	1e03      	subs	r3, r0, #0
 800098c:	d003      	beq.n	8000996 <SysTick_Handler+0x1e>
		{
			/* Pend a context switch. */
			portNVIC_INT_CTRL_REG = portNVIC_PENDSVSET_BIT;
 800098e:	4b06      	ldr	r3, [pc, #24]	; (80009a8 <SysTick_Handler+0x30>)
 8000990:	2280      	movs	r2, #128	; 0x80
 8000992:	0552      	lsls	r2, r2, #21
 8000994:	601a      	str	r2, [r3, #0]
		}
	}
	portCLEAR_INTERRUPT_MASK_FROM_ISR( ulPreviousMask );
 8000996:	687b      	ldr	r3, [r7, #4]
 8000998:	0018      	movs	r0, r3
 800099a:	f7ff ffc1 	bl	8000920 <vClearInterruptMaskFromISR>
}
 800099e:	46c0      	nop			; (mov r8, r8)
 80009a0:	46bd      	mov	sp, r7
 80009a2:	b002      	add	sp, #8
 80009a4:	bd80      	pop	{r7, pc}
 80009a6:	46c0      	nop			; (mov r8, r8)
 80009a8:	e000ed04 	.word	0xe000ed04

080009ac <vPortSetupTimerInterrupt>:
/*
 * Setup the systick timer to generate the tick interrupts at the required
 * frequency.
 */
__attribute__(( weak )) void vPortSetupTimerInterrupt( void )
{
 80009ac:	b5b0      	push	{r4, r5, r7, lr}
 80009ae:	af00      	add	r7, sp, #0
		ulStoppedTimerCompensation = portMISSED_COUNTS_FACTOR;
	}
	#endif /* configUSE_TICKLESS_IDLE */

	/* Stop and reset the SysTick. */
	portNVIC_SYSTICK_CTRL_REG = 0UL;
 80009b0:	4b0b      	ldr	r3, [pc, #44]	; (80009e0 <vPortSetupTimerInterrupt+0x34>)
 80009b2:	2200      	movs	r2, #0
 80009b4:	601a      	str	r2, [r3, #0]
	portNVIC_SYSTICK_CURRENT_VALUE_REG = 0UL;
 80009b6:	4b0b      	ldr	r3, [pc, #44]	; (80009e4 <vPortSetupTimerInterrupt+0x38>)
 80009b8:	2200      	movs	r2, #0
 80009ba:	601a      	str	r2, [r3, #0]

	/* Configure SysTick to interrupt at the requested rate. */
	portNVIC_SYSTICK_LOAD_REG = ( configCPU_CLOCK_HZ / configTICK_RATE_HZ ) - 1UL;
 80009bc:	4c0a      	ldr	r4, [pc, #40]	; (80009e8 <vPortSetupTimerInterrupt+0x3c>)
 80009be:	4b0b      	ldr	r3, [pc, #44]	; (80009ec <vPortSetupTimerInterrupt+0x40>)
 80009c0:	681a      	ldr	r2, [r3, #0]
 80009c2:	23fa      	movs	r3, #250	; 0xfa
 80009c4:	0099      	lsls	r1, r3, #2
 80009c6:	0010      	movs	r0, r2
 80009c8:	f7ff fb9e 	bl	8000108 <__udivsi3>
 80009cc:	0003      	movs	r3, r0
 80009ce:	3b01      	subs	r3, #1
 80009d0:	6023      	str	r3, [r4, #0]
	portNVIC_SYSTICK_CTRL_REG = portNVIC_SYSTICK_CLK_BIT | portNVIC_SYSTICK_INT_BIT | portNVIC_SYSTICK_ENABLE_BIT;
 80009d2:	4b03      	ldr	r3, [pc, #12]	; (80009e0 <vPortSetupTimerInterrupt+0x34>)
 80009d4:	2207      	movs	r2, #7
 80009d6:	601a      	str	r2, [r3, #0]
}
 80009d8:	46c0      	nop			; (mov r8, r8)
 80009da:	46bd      	mov	sp, r7
 80009dc:	bdb0      	pop	{r4, r5, r7, pc}
 80009de:	46c0      	nop			; (mov r8, r8)
 80009e0:	e000e010 	.word	0xe000e010
 80009e4:	e000e018 	.word	0xe000e018
 80009e8:	e000e014 	.word	0xe000e014
 80009ec:	20000008 	.word	0x20000008

080009f0 <xQueueGenericReset>:
	}														\
	taskEXIT_CRITICAL()
/*-----------------------------------------------------------*/

BaseType_t xQueueGenericReset( QueueHandle_t xQueue, BaseType_t xNewQueue )
{
 80009f0:	b580      	push	{r7, lr}
 80009f2:	b084      	sub	sp, #16
 80009f4:	af00      	add	r7, sp, #0
 80009f6:	6078      	str	r0, [r7, #4]
 80009f8:	6039      	str	r1, [r7, #0]
Queue_t * const pxQueue = xQueue;
 80009fa:	687b      	ldr	r3, [r7, #4]
 80009fc:	60fb      	str	r3, [r7, #12]

	configASSERT( pxQueue );
 80009fe:	68fb      	ldr	r3, [r7, #12]
 8000a00:	2b00      	cmp	r3, #0
 8000a02:	d101      	bne.n	8000a08 <xQueueGenericReset+0x18>
 8000a04:	b672      	cpsid	i
 8000a06:	e7fe      	b.n	8000a06 <xQueueGenericReset+0x16>

	taskENTER_CRITICAL();
 8000a08:	f7ff ff5a 	bl	80008c0 <vPortEnterCritical>
	{
		pxQueue->u.xQueue.pcTail = pxQueue->pcHead + ( pxQueue->uxLength * pxQueue->uxItemSize ); /*lint !e9016 Pointer arithmetic allowed on char types, especially when it assists conveying intent. */
 8000a0c:	68fb      	ldr	r3, [r7, #12]
 8000a0e:	681a      	ldr	r2, [r3, #0]
 8000a10:	68fb      	ldr	r3, [r7, #12]
 8000a12:	6bd9      	ldr	r1, [r3, #60]	; 0x3c
 8000a14:	68fb      	ldr	r3, [r7, #12]
 8000a16:	6c1b      	ldr	r3, [r3, #64]	; 0x40
 8000a18:	434b      	muls	r3, r1
 8000a1a:	18d2      	adds	r2, r2, r3
 8000a1c:	68fb      	ldr	r3, [r7, #12]
 8000a1e:	609a      	str	r2, [r3, #8]
		pxQueue->uxMessagesWaiting = ( UBaseType_t ) 0U;
 8000a20:	68fb      	ldr	r3, [r7, #12]
 8000a22:	2200      	movs	r2, #0
 8000a24:	639a      	str	r2, [r3, #56]	; 0x38
		pxQueue->pcWriteTo = pxQueue->pcHead;
 8000a26:	68fb      	ldr	r3, [r7, #12]
 8000a28:	681a      	ldr	r2, [r3, #0]
 8000a2a:	68fb      	ldr	r3, [r7, #12]
 8000a2c:	605a      	str	r2, [r3, #4]
		pxQueue->u.xQueue.pcReadFrom = pxQueue->pcHead + ( ( pxQueue->uxLength - 1U ) * pxQueue->uxItemSize ); /*lint !e9016 Pointer arithmetic allowed on char types, especially when it assists conveying intent. */
 8000a2e:	68fb      	ldr	r3, [r7, #12]
 8000a30:	681a      	ldr	r2, [r3, #0]
 8000a32:	68fb      	ldr	r3, [r7, #12]
 8000a34:	6bdb      	ldr	r3, [r3, #60]	; 0x3c
 8000a36:	1e59      	subs	r1, r3, #1
 8000a38:	68fb      	ldr	r3, [r7, #12]
 8000a3a:	6c1b      	ldr	r3, [r3, #64]	; 0x40
 8000a3c:	434b      	muls	r3, r1
 8000a3e:	18d2      	adds	r2, r2, r3
 8000a40:	68fb      	ldr	r3, [r7, #12]
 8000a42:	60da      	str	r2, [r3, #12]
		pxQueue->cRxLock = queueUNLOCKED;
 8000a44:	68fb      	ldr	r3, [r7, #12]
 8000a46:	2244      	movs	r2, #68	; 0x44
 8000a48:	21ff      	movs	r1, #255	; 0xff
 8000a4a:	5499      	strb	r1, [r3, r2]
		pxQueue->cTxLock = queueUNLOCKED;
 8000a4c:	68fb      	ldr	r3, [r7, #12]
 8000a4e:	2245      	movs	r2, #69	; 0x45
 8000a50:	21ff      	movs	r1, #255	; 0xff
 8000a52:	5499      	strb	r1, [r3, r2]

		if( xNewQueue == pdFALSE )
 8000a54:	683b      	ldr	r3, [r7, #0]
 8000a56:	2b00      	cmp	r3, #0
 8000a58:	d10d      	bne.n	8000a76 <xQueueGenericReset+0x86>
			/* If there are tasks blocked waiting to read from the queue, then
			the tasks will remain blocked as after this function exits the queue
			will still be empty.  If there are tasks blocked waiting to write to
			the queue, then one should be unblocked as after this function exits
			it will be possible to write to it. */
			if( listLIST_IS_EMPTY( &( pxQueue->xTasksWaitingToSend ) ) == pdFALSE )
 8000a5a:	68fb      	ldr	r3, [r7, #12]
 8000a5c:	691b      	ldr	r3, [r3, #16]
 8000a5e:	2b00      	cmp	r3, #0
 8000a60:	d013      	beq.n	8000a8a <xQueueGenericReset+0x9a>
			{
				if( xTaskRemoveFromEventList( &( pxQueue->xTasksWaitingToSend ) ) != pdFALSE )
 8000a62:	68fb      	ldr	r3, [r7, #12]
 8000a64:	3310      	adds	r3, #16
 8000a66:	0018      	movs	r0, r3
 8000a68:	f000 ff5c 	bl	8001924 <xTaskRemoveFromEventList>
 8000a6c:	1e03      	subs	r3, r0, #0
 8000a6e:	d00c      	beq.n	8000a8a <xQueueGenericReset+0x9a>
				{
					queueYIELD_IF_USING_PREEMPTION();
 8000a70:	f7ff ff16 	bl	80008a0 <vPortYield>
 8000a74:	e009      	b.n	8000a8a <xQueueGenericReset+0x9a>
			}
		}
		else
		{
			/* Ensure the event queues start in the correct state. */
			vListInitialise( &( pxQueue->xTasksWaitingToSend ) );
 8000a76:	68fb      	ldr	r3, [r7, #12]
 8000a78:	3310      	adds	r3, #16
 8000a7a:	0018      	movs	r0, r3
 8000a7c:	f7ff fde0 	bl	8000640 <vListInitialise>
			vListInitialise( &( pxQueue->xTasksWaitingToReceive ) );
 8000a80:	68fb      	ldr	r3, [r7, #12]
 8000a82:	3324      	adds	r3, #36	; 0x24
 8000a84:	0018      	movs	r0, r3
 8000a86:	f7ff fddb 	bl	8000640 <vListInitialise>
		}
	}
	taskEXIT_CRITICAL();
 8000a8a:	f7ff ff2b 	bl	80008e4 <vPortExitCritical>

	/* A value is returned for calling semantic consistency with previous
	versions. */
	return pdPASS;
 8000a8e:	2301      	movs	r3, #1
}
 8000a90:	0018      	movs	r0, r3
 8000a92:	46bd      	mov	sp, r7
 8000a94:	b004      	add	sp, #16
 8000a96:	bd80      	pop	{r7, pc}

08000a98 <xQueueGenericCreate>:
/*-----------------------------------------------------------*/

#if( configSUPPORT_DYNAMIC_ALLOCATION == 1 )

	QueueHandle_t xQueueGenericCreate( const UBaseType_t uxQueueLength, const UBaseType_t uxItemSize, const uint8_t ucQueueType )
	{
 8000a98:	b590      	push	{r4, r7, lr}
 8000a9a:	b08b      	sub	sp, #44	; 0x2c
 8000a9c:	af02      	add	r7, sp, #8
 8000a9e:	60f8      	str	r0, [r7, #12]
 8000aa0:	60b9      	str	r1, [r7, #8]
 8000aa2:	1dfb      	adds	r3, r7, #7
 8000aa4:	701a      	strb	r2, [r3, #0]
	Queue_t *pxNewQueue;
	size_t xQueueSizeInBytes;
	uint8_t *pucQueueStorage;

		configASSERT( uxQueueLength > ( UBaseType_t ) 0 );
 8000aa6:	68fb      	ldr	r3, [r7, #12]
 8000aa8:	2b00      	cmp	r3, #0
 8000aaa:	d101      	bne.n	8000ab0 <xQueueGenericCreate+0x18>
 8000aac:	b672      	cpsid	i
 8000aae:	e7fe      	b.n	8000aae <xQueueGenericCreate+0x16>

		/* Allocate enough space to hold the maximum number of items that
		can be in the queue at any time.  It is valid for uxItemSize to be
		zero in the case the queue is used as a semaphore. */
		xQueueSizeInBytes = ( size_t ) ( uxQueueLength * uxItemSize ); /*lint !e961 MISRA exception as the casts are only redundant for some ports. */
 8000ab0:	68fb      	ldr	r3, [r7, #12]
 8000ab2:	68ba      	ldr	r2, [r7, #8]
 8000ab4:	4353      	muls	r3, r2
 8000ab6:	61fb      	str	r3, [r7, #28]
		alignment requirements of the Queue_t structure - which in this case
		is an int8_t *.  Therefore, whenever the stack alignment requirements
		are greater than or equal to the pointer to char requirements the cast
		is safe.  In other cases alignment requirements are not strict (one or
		two bytes). */
		pxNewQueue = ( Queue_t * ) pvPortMalloc( sizeof( Queue_t ) + xQueueSizeInBytes ); /*lint !e9087 !e9079 see comment above. */
 8000ab8:	69fb      	ldr	r3, [r7, #28]
 8000aba:	3348      	adds	r3, #72	; 0x48
 8000abc:	0018      	movs	r0, r3
 8000abe:	f7ff fccf 	bl	8000460 <pvPortMalloc>
 8000ac2:	0003      	movs	r3, r0
 8000ac4:	61bb      	str	r3, [r7, #24]

		if( pxNewQueue != NULL )
 8000ac6:	69bb      	ldr	r3, [r7, #24]
 8000ac8:	2b00      	cmp	r3, #0
 8000aca:	d00e      	beq.n	8000aea <xQueueGenericCreate+0x52>
		{
			/* Jump past the queue structure to find the location of the queue
			storage area. */
			pucQueueStorage = ( uint8_t * ) pxNewQueue;
 8000acc:	69bb      	ldr	r3, [r7, #24]
 8000ace:	617b      	str	r3, [r7, #20]
			pucQueueStorage += sizeof( Queue_t ); /*lint !e9016 Pointer arithmetic allowed on char types, especially when it assists conveying intent. */
 8000ad0:	697b      	ldr	r3, [r7, #20]
 8000ad2:	3348      	adds	r3, #72	; 0x48
 8000ad4:	617b      	str	r3, [r7, #20]
				deleted. */
				pxNewQueue->ucStaticallyAllocated = pdFALSE;
			}
			#endif /* configSUPPORT_STATIC_ALLOCATION */

			prvInitialiseNewQueue( uxQueueLength, uxItemSize, pucQueueStorage, ucQueueType, pxNewQueue );
 8000ad6:	1dfb      	adds	r3, r7, #7
 8000ad8:	781c      	ldrb	r4, [r3, #0]
 8000ada:	697a      	ldr	r2, [r7, #20]
 8000adc:	68b9      	ldr	r1, [r7, #8]
 8000ade:	68f8      	ldr	r0, [r7, #12]
 8000ae0:	69bb      	ldr	r3, [r7, #24]
 8000ae2:	9300      	str	r3, [sp, #0]
 8000ae4:	0023      	movs	r3, r4
 8000ae6:	f000 f805 	bl	8000af4 <prvInitialiseNewQueue>
		{
			traceQUEUE_CREATE_FAILED( ucQueueType );
			mtCOVERAGE_TEST_MARKER();
		}

		return pxNewQueue;
 8000aea:	69bb      	ldr	r3, [r7, #24]
	}
 8000aec:	0018      	movs	r0, r3
 8000aee:	46bd      	mov	sp, r7
 8000af0:	b009      	add	sp, #36	; 0x24
 8000af2:	bd90      	pop	{r4, r7, pc}

08000af4 <prvInitialiseNewQueue>:

#endif /* configSUPPORT_STATIC_ALLOCATION */
/*-----------------------------------------------------------*/

static void prvInitialiseNewQueue( const UBaseType_t uxQueueLength, const UBaseType_t uxItemSize, uint8_t *pucQueueStorage, const uint8_t ucQueueType, Queue_t *pxNewQueue )
{
 8000af4:	b580      	push	{r7, lr}
 8000af6:	b084      	sub	sp, #16
 8000af8:	af00      	add	r7, sp, #0
 8000afa:	60f8      	str	r0, [r7, #12]
 8000afc:	60b9      	str	r1, [r7, #8]
 8000afe:	607a      	str	r2, [r7, #4]
 8000b00:	001a      	movs	r2, r3
 8000b02:	1cfb      	adds	r3, r7, #3
 8000b04:	701a      	strb	r2, [r3, #0]
	/* Remove compiler warnings about unused parameters should
	configUSE_TRACE_FACILITY not be set to 1. */
	( void ) ucQueueType;

	if( uxItemSize == ( UBaseType_t ) 0 )
 8000b06:	68bb      	ldr	r3, [r7, #8]
 8000b08:	2b00      	cmp	r3, #0
 8000b0a:	d103      	bne.n	8000b14 <prvInitialiseNewQueue+0x20>
	{
		/* No RAM was allocated for the queue storage area, but PC head cannot
		be set to NULL because NULL is used as a key to say the queue is used as
		a mutex.  Therefore just set pcHead to point to the queue as a benign
		value that is known to be within the memory map. */
		pxNewQueue->pcHead = ( int8_t * ) pxNewQueue;
 8000b0c:	69bb      	ldr	r3, [r7, #24]
 8000b0e:	69ba      	ldr	r2, [r7, #24]
 8000b10:	601a      	str	r2, [r3, #0]
 8000b12:	e002      	b.n	8000b1a <prvInitialiseNewQueue+0x26>
	}
	else
	{
		/* Set the head to the start of the queue storage area. */
		pxNewQueue->pcHead = ( int8_t * ) pucQueueStorage;
 8000b14:	69bb      	ldr	r3, [r7, #24]
 8000b16:	687a      	ldr	r2, [r7, #4]
 8000b18:	601a      	str	r2, [r3, #0]
	}

	/* Initialise the queue members as described where the queue type is
	defined. */
	pxNewQueue->uxLength = uxQueueLength;
 8000b1a:	69bb      	ldr	r3, [r7, #24]
 8000b1c:	68fa      	ldr	r2, [r7, #12]
 8000b1e:	63da      	str	r2, [r3, #60]	; 0x3c
	pxNewQueue->uxItemSize = uxItemSize;
 8000b20:	69bb      	ldr	r3, [r7, #24]
 8000b22:	68ba      	ldr	r2, [r7, #8]
 8000b24:	641a      	str	r2, [r3, #64]	; 0x40
	( void ) xQueueGenericReset( pxNewQueue, pdTRUE );
 8000b26:	69bb      	ldr	r3, [r7, #24]
 8000b28:	2101      	movs	r1, #1
 8000b2a:	0018      	movs	r0, r3
 8000b2c:	f7ff ff60 	bl	80009f0 <xQueueGenericReset>
		pxNewQueue->pxQueueSetContainer = NULL;
	}
	#endif /* configUSE_QUEUE_SETS */

	traceQUEUE_CREATE( pxNewQueue );
}
 8000b30:	46c0      	nop			; (mov r8, r8)
 8000b32:	46bd      	mov	sp, r7
 8000b34:	b004      	add	sp, #16
 8000b36:	bd80      	pop	{r7, pc}

08000b38 <xQueueGenericSend>:

#endif /* ( ( configUSE_COUNTING_SEMAPHORES == 1 ) && ( configSUPPORT_DYNAMIC_ALLOCATION == 1 ) ) */
/*-----------------------------------------------------------*/

BaseType_t xQueueGenericSend( QueueHandle_t xQueue, const void * const pvItemToQueue, TickType_t xTicksToWait, const BaseType_t xCopyPosition )
{
 8000b38:	b580      	push	{r7, lr}
 8000b3a:	b08a      	sub	sp, #40	; 0x28
 8000b3c:	af00      	add	r7, sp, #0
 8000b3e:	60f8      	str	r0, [r7, #12]
 8000b40:	60b9      	str	r1, [r7, #8]
 8000b42:	607a      	str	r2, [r7, #4]
 8000b44:	603b      	str	r3, [r7, #0]
BaseType_t xEntryTimeSet = pdFALSE, xYieldRequired;
 8000b46:	2300      	movs	r3, #0
 8000b48:	627b      	str	r3, [r7, #36]	; 0x24
TimeOut_t xTimeOut;
Queue_t * const pxQueue = xQueue;
 8000b4a:	68fb      	ldr	r3, [r7, #12]
 8000b4c:	623b      	str	r3, [r7, #32]

	configASSERT( pxQueue );
 8000b4e:	6a3b      	ldr	r3, [r7, #32]
 8000b50:	2b00      	cmp	r3, #0
 8000b52:	d101      	bne.n	8000b58 <xQueueGenericSend+0x20>
 8000b54:	b672      	cpsid	i
 8000b56:	e7fe      	b.n	8000b56 <xQueueGenericSend+0x1e>
	configASSERT( !( ( pvItemToQueue == NULL ) && ( pxQueue->uxItemSize != ( UBaseType_t ) 0U ) ) );
 8000b58:	68bb      	ldr	r3, [r7, #8]
 8000b5a:	2b00      	cmp	r3, #0
 8000b5c:	d103      	bne.n	8000b66 <xQueueGenericSend+0x2e>
 8000b5e:	6a3b      	ldr	r3, [r7, #32]
 8000b60:	6c1b      	ldr	r3, [r3, #64]	; 0x40
 8000b62:	2b00      	cmp	r3, #0
 8000b64:	d101      	bne.n	8000b6a <xQueueGenericSend+0x32>
 8000b66:	2301      	movs	r3, #1
 8000b68:	e000      	b.n	8000b6c <xQueueGenericSend+0x34>
 8000b6a:	2300      	movs	r3, #0
 8000b6c:	2b00      	cmp	r3, #0
 8000b6e:	d101      	bne.n	8000b74 <xQueueGenericSend+0x3c>
 8000b70:	b672      	cpsid	i
 8000b72:	e7fe      	b.n	8000b72 <xQueueGenericSend+0x3a>
	configASSERT( !( ( xCopyPosition == queueOVERWRITE ) && ( pxQueue->uxLength != 1 ) ) );
 8000b74:	683b      	ldr	r3, [r7, #0]
 8000b76:	2b02      	cmp	r3, #2
 8000b78:	d103      	bne.n	8000b82 <xQueueGenericSend+0x4a>
 8000b7a:	6a3b      	ldr	r3, [r7, #32]
 8000b7c:	6bdb      	ldr	r3, [r3, #60]	; 0x3c
 8000b7e:	2b01      	cmp	r3, #1
 8000b80:	d101      	bne.n	8000b86 <xQueueGenericSend+0x4e>
 8000b82:	2301      	movs	r3, #1
 8000b84:	e000      	b.n	8000b88 <xQueueGenericSend+0x50>
 8000b86:	2300      	movs	r3, #0
 8000b88:	2b00      	cmp	r3, #0
 8000b8a:	d101      	bne.n	8000b90 <xQueueGenericSend+0x58>
 8000b8c:	b672      	cpsid	i
 8000b8e:	e7fe      	b.n	8000b8e <xQueueGenericSend+0x56>
	#if ( ( INCLUDE_xTaskGetSchedulerState == 1 ) || ( configUSE_TIMERS == 1 ) )
	{
		configASSERT( !( ( xTaskGetSchedulerState() == taskSCHEDULER_SUSPENDED ) && ( xTicksToWait != 0 ) ) );
 8000b90:	f001 f896 	bl	8001cc0 <xTaskGetSchedulerState>
 8000b94:	1e03      	subs	r3, r0, #0
 8000b96:	d102      	bne.n	8000b9e <xQueueGenericSend+0x66>
 8000b98:	687b      	ldr	r3, [r7, #4]
 8000b9a:	2b00      	cmp	r3, #0
 8000b9c:	d101      	bne.n	8000ba2 <xQueueGenericSend+0x6a>
 8000b9e:	2301      	movs	r3, #1
 8000ba0:	e000      	b.n	8000ba4 <xQueueGenericSend+0x6c>
 8000ba2:	2300      	movs	r3, #0
 8000ba4:	2b00      	cmp	r3, #0
 8000ba6:	d101      	bne.n	8000bac <xQueueGenericSend+0x74>
 8000ba8:	b672      	cpsid	i
 8000baa:	e7fe      	b.n	8000baa <xQueueGenericSend+0x72>
	/*lint -save -e904 This function relaxes the coding standard somewhat to
	allow return statements within the function itself.  This is done in the
	interest of execution time efficiency. */
	for( ;; )
	{
		taskENTER_CRITICAL();
 8000bac:	f7ff fe88 	bl	80008c0 <vPortEnterCritical>
		{
			/* Is there room on the queue now?  The running task must be the
			highest priority task wanting to access the queue.  If the head item
			in the queue is to be overwritten then it does not matter if the
			queue is full. */
			if( ( pxQueue->uxMessagesWaiting < pxQueue->uxLength ) || ( xCopyPosition == queueOVERWRITE ) )
 8000bb0:	6a3b      	ldr	r3, [r7, #32]
 8000bb2:	6b9a      	ldr	r2, [r3, #56]	; 0x38
 8000bb4:	6a3b      	ldr	r3, [r7, #32]
 8000bb6:	6bdb      	ldr	r3, [r3, #60]	; 0x3c
 8000bb8:	429a      	cmp	r2, r3
 8000bba:	d302      	bcc.n	8000bc2 <xQueueGenericSend+0x8a>
 8000bbc:	683b      	ldr	r3, [r7, #0]
 8000bbe:	2b02      	cmp	r3, #2
 8000bc0:	d11e      	bne.n	8000c00 <xQueueGenericSend+0xc8>
						}
					}
				}
				#else /* configUSE_QUEUE_SETS */
				{
					xYieldRequired = prvCopyDataToQueue( pxQueue, pvItemToQueue, xCopyPosition );
 8000bc2:	683a      	ldr	r2, [r7, #0]
 8000bc4:	68b9      	ldr	r1, [r7, #8]
 8000bc6:	6a3b      	ldr	r3, [r7, #32]
 8000bc8:	0018      	movs	r0, r3
 8000bca:	f000 f9a3 	bl	8000f14 <prvCopyDataToQueue>
 8000bce:	0003      	movs	r3, r0
 8000bd0:	61fb      	str	r3, [r7, #28]

					/* If there was a task waiting for data to arrive on the
					queue then unblock it now. */
					if( listLIST_IS_EMPTY( &( pxQueue->xTasksWaitingToReceive ) ) == pdFALSE )
 8000bd2:	6a3b      	ldr	r3, [r7, #32]
 8000bd4:	6a5b      	ldr	r3, [r3, #36]	; 0x24
 8000bd6:	2b00      	cmp	r3, #0
 8000bd8:	d009      	beq.n	8000bee <xQueueGenericSend+0xb6>
					{
						if( xTaskRemoveFromEventList( &( pxQueue->xTasksWaitingToReceive ) ) != pdFALSE )
 8000bda:	6a3b      	ldr	r3, [r7, #32]
 8000bdc:	3324      	adds	r3, #36	; 0x24
 8000bde:	0018      	movs	r0, r3
 8000be0:	f000 fea0 	bl	8001924 <xTaskRemoveFromEventList>
 8000be4:	1e03      	subs	r3, r0, #0
 8000be6:	d007      	beq.n	8000bf8 <xQueueGenericSend+0xc0>
						{
							/* The unblocked task has a priority higher than
							our own so yield immediately.  Yes it is ok to do
							this from within the critical section - the kernel
							takes care of that. */
							queueYIELD_IF_USING_PREEMPTION();
 8000be8:	f7ff fe5a 	bl	80008a0 <vPortYield>
 8000bec:	e004      	b.n	8000bf8 <xQueueGenericSend+0xc0>
						else
						{
							mtCOVERAGE_TEST_MARKER();
						}
					}
					else if( xYieldRequired != pdFALSE )
 8000bee:	69fb      	ldr	r3, [r7, #28]
 8000bf0:	2b00      	cmp	r3, #0
 8000bf2:	d001      	beq.n	8000bf8 <xQueueGenericSend+0xc0>
					{
						/* This path is a special case that will only get
						executed if the task was holding multiple mutexes and
						the mutexes were given back in an order that is
						different to that in which they were taken. */
						queueYIELD_IF_USING_PREEMPTION();
 8000bf4:	f7ff fe54 	bl	80008a0 <vPortYield>
						mtCOVERAGE_TEST_MARKER();
					}
				}
				#endif /* configUSE_QUEUE_SETS */

				taskEXIT_CRITICAL();
 8000bf8:	f7ff fe74 	bl	80008e4 <vPortExitCritical>
				return pdPASS;
 8000bfc:	2301      	movs	r3, #1
 8000bfe:	e05b      	b.n	8000cb8 <xQueueGenericSend+0x180>
			}
			else
			{
				if( xTicksToWait == ( TickType_t ) 0 )
 8000c00:	687b      	ldr	r3, [r7, #4]
 8000c02:	2b00      	cmp	r3, #0
 8000c04:	d103      	bne.n	8000c0e <xQueueGenericSend+0xd6>
				{
					/* The queue was full and no block time is specified (or
					the block time has expired) so leave now. */
					taskEXIT_CRITICAL();
 8000c06:	f7ff fe6d 	bl	80008e4 <vPortExitCritical>

					/* Return to the original privilege level before exiting
					the function. */
					traceQUEUE_SEND_FAILED( pxQueue );
					return errQUEUE_FULL;
 8000c0a:	2300      	movs	r3, #0
 8000c0c:	e054      	b.n	8000cb8 <xQueueGenericSend+0x180>
				}
				else if( xEntryTimeSet == pdFALSE )
 8000c0e:	6a7b      	ldr	r3, [r7, #36]	; 0x24
 8000c10:	2b00      	cmp	r3, #0
 8000c12:	d106      	bne.n	8000c22 <xQueueGenericSend+0xea>
				{
					/* The queue was full and a block time was specified so
					configure the timeout structure. */
					vTaskInternalSetTimeOutState( &xTimeOut );
 8000c14:	2314      	movs	r3, #20
 8000c16:	18fb      	adds	r3, r7, r3
 8000c18:	0018      	movs	r0, r3
 8000c1a:	f000 ff31 	bl	8001a80 <vTaskInternalSetTimeOutState>
					xEntryTimeSet = pdTRUE;
 8000c1e:	2301      	movs	r3, #1
 8000c20:	627b      	str	r3, [r7, #36]	; 0x24
					/* Entry time was already set. */
					mtCOVERAGE_TEST_MARKER();
				}
			}
		}
		taskEXIT_CRITICAL();
 8000c22:	f7ff fe5f 	bl	80008e4 <vPortExitCritical>

		/* Interrupts and other tasks can send to and receive from the queue
		now the critical section has been exited. */

		vTaskSuspendAll();
 8000c26:	f000 fc5b 	bl	80014e0 <vTaskSuspendAll>
		prvLockQueue( pxQueue );
 8000c2a:	f7ff fe49 	bl	80008c0 <vPortEnterCritical>
 8000c2e:	6a3b      	ldr	r3, [r7, #32]
 8000c30:	2244      	movs	r2, #68	; 0x44
 8000c32:	5c9b      	ldrb	r3, [r3, r2]
 8000c34:	b25b      	sxtb	r3, r3
 8000c36:	3301      	adds	r3, #1
 8000c38:	d103      	bne.n	8000c42 <xQueueGenericSend+0x10a>
 8000c3a:	6a3b      	ldr	r3, [r7, #32]
 8000c3c:	2244      	movs	r2, #68	; 0x44
 8000c3e:	2100      	movs	r1, #0
 8000c40:	5499      	strb	r1, [r3, r2]
 8000c42:	6a3b      	ldr	r3, [r7, #32]
 8000c44:	2245      	movs	r2, #69	; 0x45
 8000c46:	5c9b      	ldrb	r3, [r3, r2]
 8000c48:	b25b      	sxtb	r3, r3
 8000c4a:	3301      	adds	r3, #1
 8000c4c:	d103      	bne.n	8000c56 <xQueueGenericSend+0x11e>
 8000c4e:	6a3b      	ldr	r3, [r7, #32]
 8000c50:	2245      	movs	r2, #69	; 0x45
 8000c52:	2100      	movs	r1, #0
 8000c54:	5499      	strb	r1, [r3, r2]
 8000c56:	f7ff fe45 	bl	80008e4 <vPortExitCritical>

		/* Update the timeout state to see if it has expired yet. */
		if( xTaskCheckForTimeOut( &xTimeOut, &xTicksToWait ) == pdFALSE )
 8000c5a:	1d3a      	adds	r2, r7, #4
 8000c5c:	2314      	movs	r3, #20
 8000c5e:	18fb      	adds	r3, r7, r3
 8000c60:	0011      	movs	r1, r2
 8000c62:	0018      	movs	r0, r3
 8000c64:	f000 ff20 	bl	8001aa8 <xTaskCheckForTimeOut>
 8000c68:	1e03      	subs	r3, r0, #0
 8000c6a:	d11e      	bne.n	8000caa <xQueueGenericSend+0x172>
		{
			if( prvIsQueueFull( pxQueue ) != pdFALSE )
 8000c6c:	6a3b      	ldr	r3, [r7, #32]
 8000c6e:	0018      	movs	r0, r3
 8000c70:	f000 fa57 	bl	8001122 <prvIsQueueFull>
 8000c74:	1e03      	subs	r3, r0, #0
 8000c76:	d011      	beq.n	8000c9c <xQueueGenericSend+0x164>
			{
				traceBLOCKING_ON_QUEUE_SEND( pxQueue );
				vTaskPlaceOnEventList( &( pxQueue->xTasksWaitingToSend ), xTicksToWait );
 8000c78:	6a3b      	ldr	r3, [r7, #32]
 8000c7a:	3310      	adds	r3, #16
 8000c7c:	687a      	ldr	r2, [r7, #4]
 8000c7e:	0011      	movs	r1, r2
 8000c80:	0018      	movs	r0, r3
 8000c82:	f000 fddd 	bl	8001840 <vTaskPlaceOnEventList>
				/* Unlocking the queue means queue events can effect the
				event list.  It is possible that interrupts occurring now
				remove this task from the event list again - but as the
				scheduler is suspended the task will go onto the pending
				ready last instead of the actual ready list. */
				prvUnlockQueue( pxQueue );
 8000c86:	6a3b      	ldr	r3, [r7, #32]
 8000c88:	0018      	movs	r0, r3
 8000c8a:	f000 f9d4 	bl	8001036 <prvUnlockQueue>
				/* Resuming the scheduler will move tasks from the pending
				ready list into the ready list - so it is feasible that this
				task is already in a ready list before it yields - in which
				case the yield will not cause a context switch unless there
				is also a higher priority task in the pending ready list. */
				if( xTaskResumeAll() == pdFALSE )
 8000c8e:	f000 fc33 	bl	80014f8 <xTaskResumeAll>
 8000c92:	1e03      	subs	r3, r0, #0
 8000c94:	d18a      	bne.n	8000bac <xQueueGenericSend+0x74>
				{
					portYIELD_WITHIN_API();
 8000c96:	f7ff fe03 	bl	80008a0 <vPortYield>
 8000c9a:	e787      	b.n	8000bac <xQueueGenericSend+0x74>
				}
			}
			else
			{
				/* Try again. */
				prvUnlockQueue( pxQueue );
 8000c9c:	6a3b      	ldr	r3, [r7, #32]
 8000c9e:	0018      	movs	r0, r3
 8000ca0:	f000 f9c9 	bl	8001036 <prvUnlockQueue>
				( void ) xTaskResumeAll();
 8000ca4:	f000 fc28 	bl	80014f8 <xTaskResumeAll>
 8000ca8:	e780      	b.n	8000bac <xQueueGenericSend+0x74>
			}
		}
		else
		{
			/* The timeout has expired. */
			prvUnlockQueue( pxQueue );
 8000caa:	6a3b      	ldr	r3, [r7, #32]
 8000cac:	0018      	movs	r0, r3
 8000cae:	f000 f9c2 	bl	8001036 <prvUnlockQueue>
			( void ) xTaskResumeAll();
 8000cb2:	f000 fc21 	bl	80014f8 <xTaskResumeAll>

			traceQUEUE_SEND_FAILED( pxQueue );
			return errQUEUE_FULL;
 8000cb6:	2300      	movs	r3, #0
		}
	} /*lint -restore */
}
 8000cb8:	0018      	movs	r0, r3
 8000cba:	46bd      	mov	sp, r7
 8000cbc:	b00a      	add	sp, #40	; 0x28
 8000cbe:	bd80      	pop	{r7, pc}

08000cc0 <xQueueGenericSendFromISR>:
/*-----------------------------------------------------------*/

BaseType_t xQueueGenericSendFromISR( QueueHandle_t xQueue, const void * const pvItemToQueue, BaseType_t * const pxHigherPriorityTaskWoken, const BaseType_t xCopyPosition )
{
 8000cc0:	b580      	push	{r7, lr}
 8000cc2:	b08a      	sub	sp, #40	; 0x28
 8000cc4:	af00      	add	r7, sp, #0
 8000cc6:	60f8      	str	r0, [r7, #12]
 8000cc8:	60b9      	str	r1, [r7, #8]
 8000cca:	607a      	str	r2, [r7, #4]
 8000ccc:	603b      	str	r3, [r7, #0]
BaseType_t xReturn;
UBaseType_t uxSavedInterruptStatus;
Queue_t * const pxQueue = xQueue;
 8000cce:	68fb      	ldr	r3, [r7, #12]
 8000cd0:	623b      	str	r3, [r7, #32]

	configASSERT( pxQueue );
 8000cd2:	6a3b      	ldr	r3, [r7, #32]
 8000cd4:	2b00      	cmp	r3, #0
 8000cd6:	d101      	bne.n	8000cdc <xQueueGenericSendFromISR+0x1c>
 8000cd8:	b672      	cpsid	i
 8000cda:	e7fe      	b.n	8000cda <xQueueGenericSendFromISR+0x1a>
	configASSERT( !( ( pvItemToQueue == NULL ) && ( pxQueue->uxItemSize != ( UBaseType_t ) 0U ) ) );
 8000cdc:	68bb      	ldr	r3, [r7, #8]
 8000cde:	2b00      	cmp	r3, #0
 8000ce0:	d103      	bne.n	8000cea <xQueueGenericSendFromISR+0x2a>
 8000ce2:	6a3b      	ldr	r3, [r7, #32]
 8000ce4:	6c1b      	ldr	r3, [r3, #64]	; 0x40
 8000ce6:	2b00      	cmp	r3, #0
 8000ce8:	d101      	bne.n	8000cee <xQueueGenericSendFromISR+0x2e>
 8000cea:	2301      	movs	r3, #1
 8000cec:	e000      	b.n	8000cf0 <xQueueGenericSendFromISR+0x30>
 8000cee:	2300      	movs	r3, #0
 8000cf0:	2b00      	cmp	r3, #0
 8000cf2:	d101      	bne.n	8000cf8 <xQueueGenericSendFromISR+0x38>
 8000cf4:	b672      	cpsid	i
 8000cf6:	e7fe      	b.n	8000cf6 <xQueueGenericSendFromISR+0x36>
	configASSERT( !( ( xCopyPosition == queueOVERWRITE ) && ( pxQueue->uxLength != 1 ) ) );
 8000cf8:	683b      	ldr	r3, [r7, #0]
 8000cfa:	2b02      	cmp	r3, #2
 8000cfc:	d103      	bne.n	8000d06 <xQueueGenericSendFromISR+0x46>
 8000cfe:	6a3b      	ldr	r3, [r7, #32]
 8000d00:	6bdb      	ldr	r3, [r3, #60]	; 0x3c
 8000d02:	2b01      	cmp	r3, #1
 8000d04:	d101      	bne.n	8000d0a <xQueueGenericSendFromISR+0x4a>
 8000d06:	2301      	movs	r3, #1
 8000d08:	e000      	b.n	8000d0c <xQueueGenericSendFromISR+0x4c>
 8000d0a:	2300      	movs	r3, #0
 8000d0c:	2b00      	cmp	r3, #0
 8000d0e:	d101      	bne.n	8000d14 <xQueueGenericSendFromISR+0x54>
 8000d10:	b672      	cpsid	i
 8000d12:	e7fe      	b.n	8000d12 <xQueueGenericSendFromISR+0x52>
	/* Similar to xQueueGenericSend, except without blocking if there is no room
	in the queue.  Also don't directly wake a task that was blocked on a queue
	read, instead return a flag to say whether a context switch is required or
	not (i.e. has a task with a higher priority than us been woken by this
	post). */
	uxSavedInterruptStatus = portSET_INTERRUPT_MASK_FROM_ISR();
 8000d14:	f7ff fdfe 	bl	8000914 <ulSetInterruptMaskFromISR>
 8000d18:	0003      	movs	r3, r0
 8000d1a:	61fb      	str	r3, [r7, #28]
	{
		if( ( pxQueue->uxMessagesWaiting < pxQueue->uxLength ) || ( xCopyPosition == queueOVERWRITE ) )
 8000d1c:	6a3b      	ldr	r3, [r7, #32]
 8000d1e:	6b9a      	ldr	r2, [r3, #56]	; 0x38
 8000d20:	6a3b      	ldr	r3, [r7, #32]
 8000d22:	6bdb      	ldr	r3, [r3, #60]	; 0x3c
 8000d24:	429a      	cmp	r2, r3
 8000d26:	d302      	bcc.n	8000d2e <xQueueGenericSendFromISR+0x6e>
 8000d28:	683b      	ldr	r3, [r7, #0]
 8000d2a:	2b02      	cmp	r3, #2
 8000d2c:	d132      	bne.n	8000d94 <xQueueGenericSendFromISR+0xd4>
		{
			const int8_t cTxLock = pxQueue->cTxLock;
 8000d2e:	231b      	movs	r3, #27
 8000d30:	18fb      	adds	r3, r7, r3
 8000d32:	6a3a      	ldr	r2, [r7, #32]
 8000d34:	2145      	movs	r1, #69	; 0x45
 8000d36:	5c52      	ldrb	r2, [r2, r1]
 8000d38:	701a      	strb	r2, [r3, #0]
			const UBaseType_t uxPreviousMessagesWaiting = pxQueue->uxMessagesWaiting;
 8000d3a:	6a3b      	ldr	r3, [r7, #32]
 8000d3c:	6b9b      	ldr	r3, [r3, #56]	; 0x38
 8000d3e:	617b      	str	r3, [r7, #20]
			/* Semaphores use xQueueGiveFromISR(), so pxQueue will not be a
			semaphore or mutex.  That means prvCopyDataToQueue() cannot result
			in a task disinheriting a priority and prvCopyDataToQueue() can be
			called here even though the disinherit function does not check if
			the scheduler is suspended before accessing the ready lists. */
			( void ) prvCopyDataToQueue( pxQueue, pvItemToQueue, xCopyPosition );
 8000d40:	683a      	ldr	r2, [r7, #0]
 8000d42:	68b9      	ldr	r1, [r7, #8]
 8000d44:	6a3b      	ldr	r3, [r7, #32]
 8000d46:	0018      	movs	r0, r3
 8000d48:	f000 f8e4 	bl	8000f14 <prvCopyDataToQueue>

			/* The event list is not altered if the queue is locked.  This will
			be done when the queue is unlocked later. */
			if( cTxLock == queueUNLOCKED )
 8000d4c:	231b      	movs	r3, #27
 8000d4e:	18fb      	adds	r3, r7, r3
 8000d50:	781b      	ldrb	r3, [r3, #0]
 8000d52:	b25b      	sxtb	r3, r3
 8000d54:	3301      	adds	r3, #1
 8000d56:	d111      	bne.n	8000d7c <xQueueGenericSendFromISR+0xbc>
						}
					}
				}
				#else /* configUSE_QUEUE_SETS */
				{
					if( listLIST_IS_EMPTY( &( pxQueue->xTasksWaitingToReceive ) ) == pdFALSE )
 8000d58:	6a3b      	ldr	r3, [r7, #32]
 8000d5a:	6a5b      	ldr	r3, [r3, #36]	; 0x24
 8000d5c:	2b00      	cmp	r3, #0
 8000d5e:	d016      	beq.n	8000d8e <xQueueGenericSendFromISR+0xce>
					{
						if( xTaskRemoveFromEventList( &( pxQueue->xTasksWaitingToReceive ) ) != pdFALSE )
 8000d60:	6a3b      	ldr	r3, [r7, #32]
 8000d62:	3324      	adds	r3, #36	; 0x24
 8000d64:	0018      	movs	r0, r3
 8000d66:	f000 fddd 	bl	8001924 <xTaskRemoveFromEventList>
 8000d6a:	1e03      	subs	r3, r0, #0
 8000d6c:	d00f      	beq.n	8000d8e <xQueueGenericSendFromISR+0xce>
						{
							/* The task waiting has a higher priority so record that a
							context	switch is required. */
							if( pxHigherPriorityTaskWoken != NULL )
 8000d6e:	687b      	ldr	r3, [r7, #4]
 8000d70:	2b00      	cmp	r3, #0
 8000d72:	d00c      	beq.n	8000d8e <xQueueGenericSendFromISR+0xce>
							{
								*pxHigherPriorityTaskWoken = pdTRUE;
 8000d74:	687b      	ldr	r3, [r7, #4]
 8000d76:	2201      	movs	r2, #1
 8000d78:	601a      	str	r2, [r3, #0]
 8000d7a:	e008      	b.n	8000d8e <xQueueGenericSendFromISR+0xce>
			}
			else
			{
				/* Increment the lock count so the task that unlocks the queue
				knows that data was posted while it was locked. */
				pxQueue->cTxLock = ( int8_t ) ( cTxLock + 1 );
 8000d7c:	231b      	movs	r3, #27
 8000d7e:	18fb      	adds	r3, r7, r3
 8000d80:	781b      	ldrb	r3, [r3, #0]
 8000d82:	3301      	adds	r3, #1
 8000d84:	b2db      	uxtb	r3, r3
 8000d86:	b259      	sxtb	r1, r3
 8000d88:	6a3b      	ldr	r3, [r7, #32]
 8000d8a:	2245      	movs	r2, #69	; 0x45
 8000d8c:	5499      	strb	r1, [r3, r2]
			}

			xReturn = pdPASS;
 8000d8e:	2301      	movs	r3, #1
 8000d90:	627b      	str	r3, [r7, #36]	; 0x24
		{
 8000d92:	e001      	b.n	8000d98 <xQueueGenericSendFromISR+0xd8>
		}
		else
		{
			traceQUEUE_SEND_FROM_ISR_FAILED( pxQueue );
			xReturn = errQUEUE_FULL;
 8000d94:	2300      	movs	r3, #0
 8000d96:	627b      	str	r3, [r7, #36]	; 0x24
		}
	}
	portCLEAR_INTERRUPT_MASK_FROM_ISR( uxSavedInterruptStatus );
 8000d98:	69fb      	ldr	r3, [r7, #28]
 8000d9a:	0018      	movs	r0, r3
 8000d9c:	f7ff fdc0 	bl	8000920 <vClearInterruptMaskFromISR>

	return xReturn;
 8000da0:	6a7b      	ldr	r3, [r7, #36]	; 0x24
}
 8000da2:	0018      	movs	r0, r3
 8000da4:	46bd      	mov	sp, r7
 8000da6:	b00a      	add	sp, #40	; 0x28
 8000da8:	bd80      	pop	{r7, pc}

08000daa <xQueueReceive>:
	return xReturn;
}
/*-----------------------------------------------------------*/

BaseType_t xQueueReceive( QueueHandle_t xQueue, void * const pvBuffer, TickType_t xTicksToWait )
{
 8000daa:	b580      	push	{r7, lr}
 8000dac:	b08a      	sub	sp, #40	; 0x28
 8000dae:	af00      	add	r7, sp, #0
 8000db0:	60f8      	str	r0, [r7, #12]
 8000db2:	60b9      	str	r1, [r7, #8]
 8000db4:	607a      	str	r2, [r7, #4]
BaseType_t xEntryTimeSet = pdFALSE;
 8000db6:	2300      	movs	r3, #0
 8000db8:	627b      	str	r3, [r7, #36]	; 0x24
TimeOut_t xTimeOut;
Queue_t * const pxQueue = xQueue;
 8000dba:	68fb      	ldr	r3, [r7, #12]
 8000dbc:	623b      	str	r3, [r7, #32]

	/* Check the pointer is not NULL. */
	configASSERT( ( pxQueue ) );
 8000dbe:	6a3b      	ldr	r3, [r7, #32]
 8000dc0:	2b00      	cmp	r3, #0
 8000dc2:	d101      	bne.n	8000dc8 <xQueueReceive+0x1e>
 8000dc4:	b672      	cpsid	i
 8000dc6:	e7fe      	b.n	8000dc6 <xQueueReceive+0x1c>

	/* The buffer into which data is received can only be NULL if the data size
	is zero (so no data is copied into the buffer. */
	configASSERT( !( ( ( pvBuffer ) == NULL ) && ( ( pxQueue )->uxItemSize != ( UBaseType_t ) 0U ) ) );
 8000dc8:	68bb      	ldr	r3, [r7, #8]
 8000dca:	2b00      	cmp	r3, #0
 8000dcc:	d103      	bne.n	8000dd6 <xQueueReceive+0x2c>
 8000dce:	6a3b      	ldr	r3, [r7, #32]
 8000dd0:	6c1b      	ldr	r3, [r3, #64]	; 0x40
 8000dd2:	2b00      	cmp	r3, #0
 8000dd4:	d101      	bne.n	8000dda <xQueueReceive+0x30>
 8000dd6:	2301      	movs	r3, #1
 8000dd8:	e000      	b.n	8000ddc <xQueueReceive+0x32>
 8000dda:	2300      	movs	r3, #0
 8000ddc:	2b00      	cmp	r3, #0
 8000dde:	d101      	bne.n	8000de4 <xQueueReceive+0x3a>
 8000de0:	b672      	cpsid	i
 8000de2:	e7fe      	b.n	8000de2 <xQueueReceive+0x38>

	/* Cannot block if the scheduler is suspended. */
	#if ( ( INCLUDE_xTaskGetSchedulerState == 1 ) || ( configUSE_TIMERS == 1 ) )
	{
		configASSERT( !( ( xTaskGetSchedulerState() == taskSCHEDULER_SUSPENDED ) && ( xTicksToWait != 0 ) ) );
 8000de4:	f000 ff6c 	bl	8001cc0 <xTaskGetSchedulerState>
 8000de8:	1e03      	subs	r3, r0, #0
 8000dea:	d102      	bne.n	8000df2 <xQueueReceive+0x48>
 8000dec:	687b      	ldr	r3, [r7, #4]
 8000dee:	2b00      	cmp	r3, #0
 8000df0:	d101      	bne.n	8000df6 <xQueueReceive+0x4c>
 8000df2:	2301      	movs	r3, #1
 8000df4:	e000      	b.n	8000df8 <xQueueReceive+0x4e>
 8000df6:	2300      	movs	r3, #0
 8000df8:	2b00      	cmp	r3, #0
 8000dfa:	d101      	bne.n	8000e00 <xQueueReceive+0x56>
 8000dfc:	b672      	cpsid	i
 8000dfe:	e7fe      	b.n	8000dfe <xQueueReceive+0x54>
	/*lint -save -e904  This function relaxes the coding standard somewhat to
	allow return statements within the function itself.  This is done in the
	interest of execution time efficiency. */
	for( ;; )
	{
		taskENTER_CRITICAL();
 8000e00:	f7ff fd5e 	bl	80008c0 <vPortEnterCritical>
		{
			const UBaseType_t uxMessagesWaiting = pxQueue->uxMessagesWaiting;
 8000e04:	6a3b      	ldr	r3, [r7, #32]
 8000e06:	6b9b      	ldr	r3, [r3, #56]	; 0x38
 8000e08:	61fb      	str	r3, [r7, #28]

			/* Is there data in the queue now?  To be running the calling task
			must be the highest priority task wanting to access the queue. */
			if( uxMessagesWaiting > ( UBaseType_t ) 0 )
 8000e0a:	69fb      	ldr	r3, [r7, #28]
 8000e0c:	2b00      	cmp	r3, #0
 8000e0e:	d01a      	beq.n	8000e46 <xQueueReceive+0x9c>
			{
				/* Data available, remove one item. */
				prvCopyDataFromQueue( pxQueue, pvBuffer );
 8000e10:	68ba      	ldr	r2, [r7, #8]
 8000e12:	6a3b      	ldr	r3, [r7, #32]
 8000e14:	0011      	movs	r1, r2
 8000e16:	0018      	movs	r0, r3
 8000e18:	f000 f8e7 	bl	8000fea <prvCopyDataFromQueue>
				traceQUEUE_RECEIVE( pxQueue );
				pxQueue->uxMessagesWaiting = uxMessagesWaiting - ( UBaseType_t ) 1;
 8000e1c:	69fb      	ldr	r3, [r7, #28]
 8000e1e:	1e5a      	subs	r2, r3, #1
 8000e20:	6a3b      	ldr	r3, [r7, #32]
 8000e22:	639a      	str	r2, [r3, #56]	; 0x38

				/* There is now space in the queue, were any tasks waiting to
				post to the queue?  If so, unblock the highest priority waiting
				task. */
				if( listLIST_IS_EMPTY( &( pxQueue->xTasksWaitingToSend ) ) == pdFALSE )
 8000e24:	6a3b      	ldr	r3, [r7, #32]
 8000e26:	691b      	ldr	r3, [r3, #16]
 8000e28:	2b00      	cmp	r3, #0
 8000e2a:	d008      	beq.n	8000e3e <xQueueReceive+0x94>
				{
					if( xTaskRemoveFromEventList( &( pxQueue->xTasksWaitingToSend ) ) != pdFALSE )
 8000e2c:	6a3b      	ldr	r3, [r7, #32]
 8000e2e:	3310      	adds	r3, #16
 8000e30:	0018      	movs	r0, r3
 8000e32:	f000 fd77 	bl	8001924 <xTaskRemoveFromEventList>
 8000e36:	1e03      	subs	r3, r0, #0
 8000e38:	d001      	beq.n	8000e3e <xQueueReceive+0x94>
					{
						queueYIELD_IF_USING_PREEMPTION();
 8000e3a:	f7ff fd31 	bl	80008a0 <vPortYield>
				else
				{
					mtCOVERAGE_TEST_MARKER();
				}

				taskEXIT_CRITICAL();
 8000e3e:	f7ff fd51 	bl	80008e4 <vPortExitCritical>
				return pdPASS;
 8000e42:	2301      	movs	r3, #1
 8000e44:	e062      	b.n	8000f0c <xQueueReceive+0x162>
			}
			else
			{
				if( xTicksToWait == ( TickType_t ) 0 )
 8000e46:	687b      	ldr	r3, [r7, #4]
 8000e48:	2b00      	cmp	r3, #0
 8000e4a:	d103      	bne.n	8000e54 <xQueueReceive+0xaa>
				{
					/* The queue was empty and no block time is specified (or
					the block time has expired) so leave now. */
					taskEXIT_CRITICAL();
 8000e4c:	f7ff fd4a 	bl	80008e4 <vPortExitCritical>
					traceQUEUE_RECEIVE_FAILED( pxQueue );
					return errQUEUE_EMPTY;
 8000e50:	2300      	movs	r3, #0
 8000e52:	e05b      	b.n	8000f0c <xQueueReceive+0x162>
				}
				else if( xEntryTimeSet == pdFALSE )
 8000e54:	6a7b      	ldr	r3, [r7, #36]	; 0x24
 8000e56:	2b00      	cmp	r3, #0
 8000e58:	d106      	bne.n	8000e68 <xQueueReceive+0xbe>
				{
					/* The queue was empty and a block time was specified so
					configure the timeout structure. */
					vTaskInternalSetTimeOutState( &xTimeOut );
 8000e5a:	2314      	movs	r3, #20
 8000e5c:	18fb      	adds	r3, r7, r3
 8000e5e:	0018      	movs	r0, r3
 8000e60:	f000 fe0e 	bl	8001a80 <vTaskInternalSetTimeOutState>
					xEntryTimeSet = pdTRUE;
 8000e64:	2301      	movs	r3, #1
 8000e66:	627b      	str	r3, [r7, #36]	; 0x24
					/* Entry time was already set. */
					mtCOVERAGE_TEST_MARKER();
				}
			}
		}
		taskEXIT_CRITICAL();
 8000e68:	f7ff fd3c 	bl	80008e4 <vPortExitCritical>

		/* Interrupts and other tasks can send to and receive from the queue
		now the critical section has been exited. */

		vTaskSuspendAll();
 8000e6c:	f000 fb38 	bl	80014e0 <vTaskSuspendAll>
		prvLockQueue( pxQueue );
 8000e70:	f7ff fd26 	bl	80008c0 <vPortEnterCritical>
 8000e74:	6a3b      	ldr	r3, [r7, #32]
 8000e76:	2244      	movs	r2, #68	; 0x44
 8000e78:	5c9b      	ldrb	r3, [r3, r2]
 8000e7a:	b25b      	sxtb	r3, r3
 8000e7c:	3301      	adds	r3, #1
 8000e7e:	d103      	bne.n	8000e88 <xQueueReceive+0xde>
 8000e80:	6a3b      	ldr	r3, [r7, #32]
 8000e82:	2244      	movs	r2, #68	; 0x44
 8000e84:	2100      	movs	r1, #0
 8000e86:	5499      	strb	r1, [r3, r2]
 8000e88:	6a3b      	ldr	r3, [r7, #32]
 8000e8a:	2245      	movs	r2, #69	; 0x45
 8000e8c:	5c9b      	ldrb	r3, [r3, r2]
 8000e8e:	b25b      	sxtb	r3, r3
 8000e90:	3301      	adds	r3, #1
 8000e92:	d103      	bne.n	8000e9c <xQueueReceive+0xf2>
 8000e94:	6a3b      	ldr	r3, [r7, #32]
 8000e96:	2245      	movs	r2, #69	; 0x45
 8000e98:	2100      	movs	r1, #0
 8000e9a:	5499      	strb	r1, [r3, r2]
 8000e9c:	f7ff fd22 	bl	80008e4 <vPortExitCritical>

		/* Update the timeout state to see if it has expired yet. */
		if( xTaskCheckForTimeOut( &xTimeOut, &xTicksToWait ) == pdFALSE )
 8000ea0:	1d3a      	adds	r2, r7, #4
 8000ea2:	2314      	movs	r3, #20
 8000ea4:	18fb      	adds	r3, r7, r3
 8000ea6:	0011      	movs	r1, r2
 8000ea8:	0018      	movs	r0, r3
 8000eaa:	f000 fdfd 	bl	8001aa8 <xTaskCheckForTimeOut>
 8000eae:	1e03      	subs	r3, r0, #0
 8000eb0:	d11e      	bne.n	8000ef0 <xQueueReceive+0x146>
		{
			/* The timeout has not expired.  If the queue is still empty place
			the task on the list of tasks waiting to receive from the queue. */
			if( prvIsQueueEmpty( pxQueue ) != pdFALSE )
 8000eb2:	6a3b      	ldr	r3, [r7, #32]
 8000eb4:	0018      	movs	r0, r3
 8000eb6:	f000 f91e 	bl	80010f6 <prvIsQueueEmpty>
 8000eba:	1e03      	subs	r3, r0, #0
 8000ebc:	d011      	beq.n	8000ee2 <xQueueReceive+0x138>
			{
				traceBLOCKING_ON_QUEUE_RECEIVE( pxQueue );
				vTaskPlaceOnEventList( &( pxQueue->xTasksWaitingToReceive ), xTicksToWait );
 8000ebe:	6a3b      	ldr	r3, [r7, #32]
 8000ec0:	3324      	adds	r3, #36	; 0x24
 8000ec2:	687a      	ldr	r2, [r7, #4]
 8000ec4:	0011      	movs	r1, r2
 8000ec6:	0018      	movs	r0, r3
 8000ec8:	f000 fcba 	bl	8001840 <vTaskPlaceOnEventList>
				prvUnlockQueue( pxQueue );
 8000ecc:	6a3b      	ldr	r3, [r7, #32]
 8000ece:	0018      	movs	r0, r3
 8000ed0:	f000 f8b1 	bl	8001036 <prvUnlockQueue>
				if( xTaskResumeAll() == pdFALSE )
 8000ed4:	f000 fb10 	bl	80014f8 <xTaskResumeAll>
 8000ed8:	1e03      	subs	r3, r0, #0
 8000eda:	d191      	bne.n	8000e00 <xQueueReceive+0x56>
				{
					portYIELD_WITHIN_API();
 8000edc:	f7ff fce0 	bl	80008a0 <vPortYield>
 8000ee0:	e78e      	b.n	8000e00 <xQueueReceive+0x56>
			}
			else
			{
				/* The queue contains data again.  Loop back to try and read the
				data. */
				prvUnlockQueue( pxQueue );
 8000ee2:	6a3b      	ldr	r3, [r7, #32]
 8000ee4:	0018      	movs	r0, r3
 8000ee6:	f000 f8a6 	bl	8001036 <prvUnlockQueue>
				( void ) xTaskResumeAll();
 8000eea:	f000 fb05 	bl	80014f8 <xTaskResumeAll>
 8000eee:	e787      	b.n	8000e00 <xQueueReceive+0x56>
		}
		else
		{
			/* Timed out.  If there is no data in the queue exit, otherwise loop
			back and attempt to read the data. */
			prvUnlockQueue( pxQueue );
 8000ef0:	6a3b      	ldr	r3, [r7, #32]
 8000ef2:	0018      	movs	r0, r3
 8000ef4:	f000 f89f 	bl	8001036 <prvUnlockQueue>
			( void ) xTaskResumeAll();
 8000ef8:	f000 fafe 	bl	80014f8 <xTaskResumeAll>

			if( prvIsQueueEmpty( pxQueue ) != pdFALSE )
 8000efc:	6a3b      	ldr	r3, [r7, #32]
 8000efe:	0018      	movs	r0, r3
 8000f00:	f000 f8f9 	bl	80010f6 <prvIsQueueEmpty>
 8000f04:	1e03      	subs	r3, r0, #0
 8000f06:	d100      	bne.n	8000f0a <xQueueReceive+0x160>
 8000f08:	e77a      	b.n	8000e00 <xQueueReceive+0x56>
			{
				traceQUEUE_RECEIVE_FAILED( pxQueue );
				return errQUEUE_EMPTY;
 8000f0a:	2300      	movs	r3, #0
			{
				mtCOVERAGE_TEST_MARKER();
			}
		}
	} /*lint -restore */
}
 8000f0c:	0018      	movs	r0, r3
 8000f0e:	46bd      	mov	sp, r7
 8000f10:	b00a      	add	sp, #40	; 0x28
 8000f12:	bd80      	pop	{r7, pc}

08000f14 <prvCopyDataToQueue>:

#endif /* configUSE_MUTEXES */
/*-----------------------------------------------------------*/

static BaseType_t prvCopyDataToQueue( Queue_t * const pxQueue, const void *pvItemToQueue, const BaseType_t xPosition )
{
 8000f14:	b580      	push	{r7, lr}
 8000f16:	b086      	sub	sp, #24
 8000f18:	af00      	add	r7, sp, #0
 8000f1a:	60f8      	str	r0, [r7, #12]
 8000f1c:	60b9      	str	r1, [r7, #8]
 8000f1e:	607a      	str	r2, [r7, #4]
BaseType_t xReturn = pdFALSE;
 8000f20:	2300      	movs	r3, #0
 8000f22:	617b      	str	r3, [r7, #20]
UBaseType_t uxMessagesWaiting;

	/* This function is called from a critical section. */

	uxMessagesWaiting = pxQueue->uxMessagesWaiting;
 8000f24:	68fb      	ldr	r3, [r7, #12]
 8000f26:	6b9b      	ldr	r3, [r3, #56]	; 0x38
 8000f28:	613b      	str	r3, [r7, #16]

	if( pxQueue->uxItemSize == ( UBaseType_t ) 0 )
 8000f2a:	68fb      	ldr	r3, [r7, #12]
 8000f2c:	6c1b      	ldr	r3, [r3, #64]	; 0x40
 8000f2e:	2b00      	cmp	r3, #0
 8000f30:	d10e      	bne.n	8000f50 <prvCopyDataToQueue+0x3c>
	{
		#if ( configUSE_MUTEXES == 1 )
		{
			if( pxQueue->uxQueueType == queueQUEUE_IS_MUTEX )
 8000f32:	68fb      	ldr	r3, [r7, #12]
 8000f34:	681b      	ldr	r3, [r3, #0]
 8000f36:	2b00      	cmp	r3, #0
 8000f38:	d14e      	bne.n	8000fd8 <prvCopyDataToQueue+0xc4>
			{
				/* The mutex is no longer being held. */
				xReturn = xTaskPriorityDisinherit( pxQueue->u.xSemaphore.xMutexHolder );
 8000f3a:	68fb      	ldr	r3, [r7, #12]
 8000f3c:	689b      	ldr	r3, [r3, #8]
 8000f3e:	0018      	movs	r0, r3
 8000f40:	f000 feda 	bl	8001cf8 <xTaskPriorityDisinherit>
 8000f44:	0003      	movs	r3, r0
 8000f46:	617b      	str	r3, [r7, #20]
				pxQueue->u.xSemaphore.xMutexHolder = NULL;
 8000f48:	68fb      	ldr	r3, [r7, #12]
 8000f4a:	2200      	movs	r2, #0
 8000f4c:	609a      	str	r2, [r3, #8]
 8000f4e:	e043      	b.n	8000fd8 <prvCopyDataToQueue+0xc4>
				mtCOVERAGE_TEST_MARKER();
			}
		}
		#endif /* configUSE_MUTEXES */
	}
	else if( xPosition == queueSEND_TO_BACK )
 8000f50:	687b      	ldr	r3, [r7, #4]
 8000f52:	2b00      	cmp	r3, #0
 8000f54:	d119      	bne.n	8000f8a <prvCopyDataToQueue+0x76>
	{
		( void ) memcpy( ( void * ) pxQueue->pcWriteTo, pvItemToQueue, ( size_t ) pxQueue->uxItemSize ); /*lint !e961 !e418 !e9087 MISRA exception as the casts are only redundant for some ports, plus previous logic ensures a null pointer can only be passed to memcpy() if the copy size is 0.  Cast to void required by function signature and safe as no alignment requirement and copy length specified in bytes. */
 8000f56:	68fb      	ldr	r3, [r7, #12]
 8000f58:	6858      	ldr	r0, [r3, #4]
 8000f5a:	68fb      	ldr	r3, [r7, #12]
 8000f5c:	6c1a      	ldr	r2, [r3, #64]	; 0x40
 8000f5e:	68bb      	ldr	r3, [r7, #8]
 8000f60:	0019      	movs	r1, r3
 8000f62:	f001 ff41 	bl	8002de8 <memcpy>
		pxQueue->pcWriteTo += pxQueue->uxItemSize; /*lint !e9016 Pointer arithmetic on char types ok, especially in this use case where it is the clearest way of conveying intent. */
 8000f66:	68fb      	ldr	r3, [r7, #12]
 8000f68:	685a      	ldr	r2, [r3, #4]
 8000f6a:	68fb      	ldr	r3, [r7, #12]
 8000f6c:	6c1b      	ldr	r3, [r3, #64]	; 0x40
 8000f6e:	18d2      	adds	r2, r2, r3
 8000f70:	68fb      	ldr	r3, [r7, #12]
 8000f72:	605a      	str	r2, [r3, #4]
		if( pxQueue->pcWriteTo >= pxQueue->u.xQueue.pcTail ) /*lint !e946 MISRA exception justified as comparison of pointers is the cleanest solution. */
 8000f74:	68fb      	ldr	r3, [r7, #12]
 8000f76:	685a      	ldr	r2, [r3, #4]
 8000f78:	68fb      	ldr	r3, [r7, #12]
 8000f7a:	689b      	ldr	r3, [r3, #8]
 8000f7c:	429a      	cmp	r2, r3
 8000f7e:	d32b      	bcc.n	8000fd8 <prvCopyDataToQueue+0xc4>
		{
			pxQueue->pcWriteTo = pxQueue->pcHead;
 8000f80:	68fb      	ldr	r3, [r7, #12]
 8000f82:	681a      	ldr	r2, [r3, #0]
 8000f84:	68fb      	ldr	r3, [r7, #12]
 8000f86:	605a      	str	r2, [r3, #4]
 8000f88:	e026      	b.n	8000fd8 <prvCopyDataToQueue+0xc4>
			mtCOVERAGE_TEST_MARKER();
		}
	}
	else
	{
		( void ) memcpy( ( void * ) pxQueue->u.xQueue.pcReadFrom, pvItemToQueue, ( size_t ) pxQueue->uxItemSize ); /*lint !e961 !e9087 !e418 MISRA exception as the casts are only redundant for some ports.  Cast to void required by function signature and safe as no alignment requirement and copy length specified in bytes.  Assert checks null pointer only used when length is 0. */
 8000f8a:	68fb      	ldr	r3, [r7, #12]
 8000f8c:	68d8      	ldr	r0, [r3, #12]
 8000f8e:	68fb      	ldr	r3, [r7, #12]
 8000f90:	6c1a      	ldr	r2, [r3, #64]	; 0x40
 8000f92:	68bb      	ldr	r3, [r7, #8]
 8000f94:	0019      	movs	r1, r3
 8000f96:	f001 ff27 	bl	8002de8 <memcpy>
		pxQueue->u.xQueue.pcReadFrom -= pxQueue->uxItemSize;
 8000f9a:	68fb      	ldr	r3, [r7, #12]
 8000f9c:	68da      	ldr	r2, [r3, #12]
 8000f9e:	68fb      	ldr	r3, [r7, #12]
 8000fa0:	6c1b      	ldr	r3, [r3, #64]	; 0x40
 8000fa2:	425b      	negs	r3, r3
 8000fa4:	18d2      	adds	r2, r2, r3
 8000fa6:	68fb      	ldr	r3, [r7, #12]
 8000fa8:	60da      	str	r2, [r3, #12]
		if( pxQueue->u.xQueue.pcReadFrom < pxQueue->pcHead ) /*lint !e946 MISRA exception justified as comparison of pointers is the cleanest solution. */
 8000faa:	68fb      	ldr	r3, [r7, #12]
 8000fac:	68da      	ldr	r2, [r3, #12]
 8000fae:	68fb      	ldr	r3, [r7, #12]
 8000fb0:	681b      	ldr	r3, [r3, #0]
 8000fb2:	429a      	cmp	r2, r3
 8000fb4:	d207      	bcs.n	8000fc6 <prvCopyDataToQueue+0xb2>
		{
			pxQueue->u.xQueue.pcReadFrom = ( pxQueue->u.xQueue.pcTail - pxQueue->uxItemSize );
 8000fb6:	68fb      	ldr	r3, [r7, #12]
 8000fb8:	689a      	ldr	r2, [r3, #8]
 8000fba:	68fb      	ldr	r3, [r7, #12]
 8000fbc:	6c1b      	ldr	r3, [r3, #64]	; 0x40
 8000fbe:	425b      	negs	r3, r3
 8000fc0:	18d2      	adds	r2, r2, r3
 8000fc2:	68fb      	ldr	r3, [r7, #12]
 8000fc4:	60da      	str	r2, [r3, #12]
		else
		{
			mtCOVERAGE_TEST_MARKER();
		}

		if( xPosition == queueOVERWRITE )
 8000fc6:	687b      	ldr	r3, [r7, #4]
 8000fc8:	2b02      	cmp	r3, #2
 8000fca:	d105      	bne.n	8000fd8 <prvCopyDataToQueue+0xc4>
		{
			if( uxMessagesWaiting > ( UBaseType_t ) 0 )
 8000fcc:	693b      	ldr	r3, [r7, #16]
 8000fce:	2b00      	cmp	r3, #0
 8000fd0:	d002      	beq.n	8000fd8 <prvCopyDataToQueue+0xc4>
			{
				/* An item is not being added but overwritten, so subtract
				one from the recorded number of items in the queue so when
				one is added again below the number of recorded items remains
				correct. */
				--uxMessagesWaiting;
 8000fd2:	693b      	ldr	r3, [r7, #16]
 8000fd4:	3b01      	subs	r3, #1
 8000fd6:	613b      	str	r3, [r7, #16]
		{
			mtCOVERAGE_TEST_MARKER();
		}
	}

	pxQueue->uxMessagesWaiting = uxMessagesWaiting + ( UBaseType_t ) 1;
 8000fd8:	693b      	ldr	r3, [r7, #16]
 8000fda:	1c5a      	adds	r2, r3, #1
 8000fdc:	68fb      	ldr	r3, [r7, #12]
 8000fde:	639a      	str	r2, [r3, #56]	; 0x38

	return xReturn;
 8000fe0:	697b      	ldr	r3, [r7, #20]
}
 8000fe2:	0018      	movs	r0, r3
 8000fe4:	46bd      	mov	sp, r7
 8000fe6:	b006      	add	sp, #24
 8000fe8:	bd80      	pop	{r7, pc}

08000fea <prvCopyDataFromQueue>:
/*-----------------------------------------------------------*/

static void prvCopyDataFromQueue( Queue_t * const pxQueue, void * const pvBuffer )
{
 8000fea:	b580      	push	{r7, lr}
 8000fec:	b082      	sub	sp, #8
 8000fee:	af00      	add	r7, sp, #0
 8000ff0:	6078      	str	r0, [r7, #4]
 8000ff2:	6039      	str	r1, [r7, #0]
	if( pxQueue->uxItemSize != ( UBaseType_t ) 0 )
 8000ff4:	687b      	ldr	r3, [r7, #4]
 8000ff6:	6c1b      	ldr	r3, [r3, #64]	; 0x40
 8000ff8:	2b00      	cmp	r3, #0
 8000ffa:	d018      	beq.n	800102e <prvCopyDataFromQueue+0x44>
	{
		pxQueue->u.xQueue.pcReadFrom += pxQueue->uxItemSize; /*lint !e9016 Pointer arithmetic on char types ok, especially in this use case where it is the clearest way of conveying intent. */
 8000ffc:	687b      	ldr	r3, [r7, #4]
 8000ffe:	68da      	ldr	r2, [r3, #12]
 8001000:	687b      	ldr	r3, [r7, #4]
 8001002:	6c1b      	ldr	r3, [r3, #64]	; 0x40
 8001004:	18d2      	adds	r2, r2, r3
 8001006:	687b      	ldr	r3, [r7, #4]
 8001008:	60da      	str	r2, [r3, #12]
		if( pxQueue->u.xQueue.pcReadFrom >= pxQueue->u.xQueue.pcTail ) /*lint !e946 MISRA exception justified as use of the relational operator is the cleanest solutions. */
 800100a:	687b      	ldr	r3, [r7, #4]
 800100c:	68da      	ldr	r2, [r3, #12]
 800100e:	687b      	ldr	r3, [r7, #4]
 8001010:	689b      	ldr	r3, [r3, #8]
 8001012:	429a      	cmp	r2, r3
 8001014:	d303      	bcc.n	800101e <prvCopyDataFromQueue+0x34>
		{
			pxQueue->u.xQueue.pcReadFrom = pxQueue->pcHead;
 8001016:	687b      	ldr	r3, [r7, #4]
 8001018:	681a      	ldr	r2, [r3, #0]
 800101a:	687b      	ldr	r3, [r7, #4]
 800101c:	60da      	str	r2, [r3, #12]
		}
		else
		{
			mtCOVERAGE_TEST_MARKER();
		}
		( void ) memcpy( ( void * ) pvBuffer, ( void * ) pxQueue->u.xQueue.pcReadFrom, ( size_t ) pxQueue->uxItemSize ); /*lint !e961 !e418 !e9087 MISRA exception as the casts are only redundant for some ports.  Also previous logic ensures a null pointer can only be passed to memcpy() when the count is 0.  Cast to void required by function signature and safe as no alignment requirement and copy length specified in bytes. */
 800101e:	687b      	ldr	r3, [r7, #4]
 8001020:	68d9      	ldr	r1, [r3, #12]
 8001022:	687b      	ldr	r3, [r7, #4]
 8001024:	6c1a      	ldr	r2, [r3, #64]	; 0x40
 8001026:	683b      	ldr	r3, [r7, #0]
 8001028:	0018      	movs	r0, r3
 800102a:	f001 fedd 	bl	8002de8 <memcpy>
	}
}
 800102e:	46c0      	nop			; (mov r8, r8)
 8001030:	46bd      	mov	sp, r7
 8001032:	b002      	add	sp, #8
 8001034:	bd80      	pop	{r7, pc}

08001036 <prvUnlockQueue>:
/*-----------------------------------------------------------*/

static void prvUnlockQueue( Queue_t * const pxQueue )
{
 8001036:	b580      	push	{r7, lr}
 8001038:	b084      	sub	sp, #16
 800103a:	af00      	add	r7, sp, #0
 800103c:	6078      	str	r0, [r7, #4]

	/* The lock counts contains the number of extra data items placed or
	removed from the queue while the queue was locked.  When a queue is
	locked items can be added or removed, but the event lists cannot be
	updated. */
	taskENTER_CRITICAL();
 800103e:	f7ff fc3f 	bl	80008c0 <vPortEnterCritical>
	{
		int8_t cTxLock = pxQueue->cTxLock;
 8001042:	230f      	movs	r3, #15
 8001044:	18fb      	adds	r3, r7, r3
 8001046:	687a      	ldr	r2, [r7, #4]
 8001048:	2145      	movs	r1, #69	; 0x45
 800104a:	5c52      	ldrb	r2, [r2, r1]
 800104c:	701a      	strb	r2, [r3, #0]

		/* See if data was added to the queue while it was locked. */
		while( cTxLock > queueLOCKED_UNMODIFIED )
 800104e:	e014      	b.n	800107a <prvUnlockQueue+0x44>
			}
			#else /* configUSE_QUEUE_SETS */
			{
				/* Tasks that are removed from the event list will get added to
				the pending ready list as the scheduler is still suspended. */
				if( listLIST_IS_EMPTY( &( pxQueue->xTasksWaitingToReceive ) ) == pdFALSE )
 8001050:	687b      	ldr	r3, [r7, #4]
 8001052:	6a5b      	ldr	r3, [r3, #36]	; 0x24
 8001054:	2b00      	cmp	r3, #0
 8001056:	d017      	beq.n	8001088 <prvUnlockQueue+0x52>
				{
					if( xTaskRemoveFromEventList( &( pxQueue->xTasksWaitingToReceive ) ) != pdFALSE )
 8001058:	687b      	ldr	r3, [r7, #4]
 800105a:	3324      	adds	r3, #36	; 0x24
 800105c:	0018      	movs	r0, r3
 800105e:	f000 fc61 	bl	8001924 <xTaskRemoveFromEventList>
 8001062:	1e03      	subs	r3, r0, #0
 8001064:	d001      	beq.n	800106a <prvUnlockQueue+0x34>
					{
						/* The task waiting has a higher priority so record that
						a context switch is required. */
						vTaskMissedYield();
 8001066:	f000 fd6f 	bl	8001b48 <vTaskMissedYield>
					break;
				}
			}
			#endif /* configUSE_QUEUE_SETS */

			--cTxLock;
 800106a:	230f      	movs	r3, #15
 800106c:	18fb      	adds	r3, r7, r3
 800106e:	781b      	ldrb	r3, [r3, #0]
 8001070:	3b01      	subs	r3, #1
 8001072:	b2da      	uxtb	r2, r3
 8001074:	230f      	movs	r3, #15
 8001076:	18fb      	adds	r3, r7, r3
 8001078:	701a      	strb	r2, [r3, #0]
		while( cTxLock > queueLOCKED_UNMODIFIED )
 800107a:	230f      	movs	r3, #15
 800107c:	18fb      	adds	r3, r7, r3
 800107e:	781b      	ldrb	r3, [r3, #0]
 8001080:	b25b      	sxtb	r3, r3
 8001082:	2b00      	cmp	r3, #0
 8001084:	dce4      	bgt.n	8001050 <prvUnlockQueue+0x1a>
 8001086:	e000      	b.n	800108a <prvUnlockQueue+0x54>
					break;
 8001088:	46c0      	nop			; (mov r8, r8)
		}

		pxQueue->cTxLock = queueUNLOCKED;
 800108a:	687b      	ldr	r3, [r7, #4]
 800108c:	2245      	movs	r2, #69	; 0x45
 800108e:	21ff      	movs	r1, #255	; 0xff
 8001090:	5499      	strb	r1, [r3, r2]
	}
	taskEXIT_CRITICAL();
 8001092:	f7ff fc27 	bl	80008e4 <vPortExitCritical>

	/* Do the same for the Rx lock. */
	taskENTER_CRITICAL();
 8001096:	f7ff fc13 	bl	80008c0 <vPortEnterCritical>
	{
		int8_t cRxLock = pxQueue->cRxLock;
 800109a:	230e      	movs	r3, #14
 800109c:	18fb      	adds	r3, r7, r3
 800109e:	687a      	ldr	r2, [r7, #4]
 80010a0:	2144      	movs	r1, #68	; 0x44
 80010a2:	5c52      	ldrb	r2, [r2, r1]
 80010a4:	701a      	strb	r2, [r3, #0]

		while( cRxLock > queueLOCKED_UNMODIFIED )
 80010a6:	e014      	b.n	80010d2 <prvUnlockQueue+0x9c>
		{
			if( listLIST_IS_EMPTY( &( pxQueue->xTasksWaitingToSend ) ) == pdFALSE )
 80010a8:	687b      	ldr	r3, [r7, #4]
 80010aa:	691b      	ldr	r3, [r3, #16]
 80010ac:	2b00      	cmp	r3, #0
 80010ae:	d017      	beq.n	80010e0 <prvUnlockQueue+0xaa>
			{
				if( xTaskRemoveFromEventList( &( pxQueue->xTasksWaitingToSend ) ) != pdFALSE )
 80010b0:	687b      	ldr	r3, [r7, #4]
 80010b2:	3310      	adds	r3, #16
 80010b4:	0018      	movs	r0, r3
 80010b6:	f000 fc35 	bl	8001924 <xTaskRemoveFromEventList>
 80010ba:	1e03      	subs	r3, r0, #0
 80010bc:	d001      	beq.n	80010c2 <prvUnlockQueue+0x8c>
				{
					vTaskMissedYield();
 80010be:	f000 fd43 	bl	8001b48 <vTaskMissedYield>
				else
				{
					mtCOVERAGE_TEST_MARKER();
				}

				--cRxLock;
 80010c2:	230e      	movs	r3, #14
 80010c4:	18fb      	adds	r3, r7, r3
 80010c6:	781b      	ldrb	r3, [r3, #0]
 80010c8:	3b01      	subs	r3, #1
 80010ca:	b2da      	uxtb	r2, r3
 80010cc:	230e      	movs	r3, #14
 80010ce:	18fb      	adds	r3, r7, r3
 80010d0:	701a      	strb	r2, [r3, #0]
		while( cRxLock > queueLOCKED_UNMODIFIED )
 80010d2:	230e      	movs	r3, #14
 80010d4:	18fb      	adds	r3, r7, r3
 80010d6:	781b      	ldrb	r3, [r3, #0]
 80010d8:	b25b      	sxtb	r3, r3
 80010da:	2b00      	cmp	r3, #0
 80010dc:	dce4      	bgt.n	80010a8 <prvUnlockQueue+0x72>
 80010de:	e000      	b.n	80010e2 <prvUnlockQueue+0xac>
			}
			else
			{
				break;
 80010e0:	46c0      	nop			; (mov r8, r8)
			}
		}

		pxQueue->cRxLock = queueUNLOCKED;
 80010e2:	687b      	ldr	r3, [r7, #4]
 80010e4:	2244      	movs	r2, #68	; 0x44
 80010e6:	21ff      	movs	r1, #255	; 0xff
 80010e8:	5499      	strb	r1, [r3, r2]
	}
	taskEXIT_CRITICAL();
 80010ea:	f7ff fbfb 	bl	80008e4 <vPortExitCritical>
}
 80010ee:	46c0      	nop			; (mov r8, r8)
 80010f0:	46bd      	mov	sp, r7
 80010f2:	b004      	add	sp, #16
 80010f4:	bd80      	pop	{r7, pc}

080010f6 <prvIsQueueEmpty>:
/*-----------------------------------------------------------*/

static BaseType_t prvIsQueueEmpty( const Queue_t *pxQueue )
{
 80010f6:	b580      	push	{r7, lr}
 80010f8:	b084      	sub	sp, #16
 80010fa:	af00      	add	r7, sp, #0
 80010fc:	6078      	str	r0, [r7, #4]
BaseType_t xReturn;

	taskENTER_CRITICAL();
 80010fe:	f7ff fbdf 	bl	80008c0 <vPortEnterCritical>
	{
		if( pxQueue->uxMessagesWaiting == ( UBaseType_t )  0 )
 8001102:	687b      	ldr	r3, [r7, #4]
 8001104:	6b9b      	ldr	r3, [r3, #56]	; 0x38
 8001106:	2b00      	cmp	r3, #0
 8001108:	d102      	bne.n	8001110 <prvIsQueueEmpty+0x1a>
		{
			xReturn = pdTRUE;
 800110a:	2301      	movs	r3, #1
 800110c:	60fb      	str	r3, [r7, #12]
 800110e:	e001      	b.n	8001114 <prvIsQueueEmpty+0x1e>
		}
		else
		{
			xReturn = pdFALSE;
 8001110:	2300      	movs	r3, #0
 8001112:	60fb      	str	r3, [r7, #12]
		}
	}
	taskEXIT_CRITICAL();
 8001114:	f7ff fbe6 	bl	80008e4 <vPortExitCritical>

	return xReturn;
 8001118:	68fb      	ldr	r3, [r7, #12]
}
 800111a:	0018      	movs	r0, r3
 800111c:	46bd      	mov	sp, r7
 800111e:	b004      	add	sp, #16
 8001120:	bd80      	pop	{r7, pc}

08001122 <prvIsQueueFull>:
	return xReturn;
} /*lint !e818 xQueue could not be pointer to const because it is a typedef. */
/*-----------------------------------------------------------*/

static BaseType_t prvIsQueueFull( const Queue_t *pxQueue )
{
 8001122:	b580      	push	{r7, lr}
 8001124:	b084      	sub	sp, #16
 8001126:	af00      	add	r7, sp, #0
 8001128:	6078      	str	r0, [r7, #4]
BaseType_t xReturn;

	taskENTER_CRITICAL();
 800112a:	f7ff fbc9 	bl	80008c0 <vPortEnterCritical>
	{
		if( pxQueue->uxMessagesWaiting == pxQueue->uxLength )
 800112e:	687b      	ldr	r3, [r7, #4]
 8001130:	6b9a      	ldr	r2, [r3, #56]	; 0x38
 8001132:	687b      	ldr	r3, [r7, #4]
 8001134:	6bdb      	ldr	r3, [r3, #60]	; 0x3c
 8001136:	429a      	cmp	r2, r3
 8001138:	d102      	bne.n	8001140 <prvIsQueueFull+0x1e>
		{
			xReturn = pdTRUE;
 800113a:	2301      	movs	r3, #1
 800113c:	60fb      	str	r3, [r7, #12]
 800113e:	e001      	b.n	8001144 <prvIsQueueFull+0x22>
		}
		else
		{
			xReturn = pdFALSE;
 8001140:	2300      	movs	r3, #0
 8001142:	60fb      	str	r3, [r7, #12]
		}
	}
	taskEXIT_CRITICAL();
 8001144:	f7ff fbce 	bl	80008e4 <vPortExitCritical>

	return xReturn;
 8001148:	68fb      	ldr	r3, [r7, #12]
}
 800114a:	0018      	movs	r0, r3
 800114c:	46bd      	mov	sp, r7
 800114e:	b004      	add	sp, #16
 8001150:	bd80      	pop	{r7, pc}
	...

08001154 <vQueueAddToRegistry>:
/*-----------------------------------------------------------*/

#if ( configQUEUE_REGISTRY_SIZE > 0 )

	void vQueueAddToRegistry( QueueHandle_t xQueue, const char *pcQueueName ) /*lint !e971 Unqualified char types are allowed for strings and single characters only. */
	{
 8001154:	b580      	push	{r7, lr}
 8001156:	b084      	sub	sp, #16
 8001158:	af00      	add	r7, sp, #0
 800115a:	6078      	str	r0, [r7, #4]
 800115c:	6039      	str	r1, [r7, #0]
	UBaseType_t ux;

		/* See if there is an empty space in the registry.  A NULL name denotes
		a free slot. */
		for( ux = ( UBaseType_t ) 0U; ux < ( UBaseType_t ) configQUEUE_REGISTRY_SIZE; ux++ )
 800115e:	2300      	movs	r3, #0
 8001160:	60fb      	str	r3, [r7, #12]
 8001162:	e015      	b.n	8001190 <vQueueAddToRegistry+0x3c>
		{
			if( xQueueRegistry[ ux ].pcQueueName == NULL )
 8001164:	4b0e      	ldr	r3, [pc, #56]	; (80011a0 <vQueueAddToRegistry+0x4c>)
 8001166:	68fa      	ldr	r2, [r7, #12]
 8001168:	00d2      	lsls	r2, r2, #3
 800116a:	58d3      	ldr	r3, [r2, r3]
 800116c:	2b00      	cmp	r3, #0
 800116e:	d10c      	bne.n	800118a <vQueueAddToRegistry+0x36>
			{
				/* Store the information on this queue. */
				xQueueRegistry[ ux ].pcQueueName = pcQueueName;
 8001170:	4b0b      	ldr	r3, [pc, #44]	; (80011a0 <vQueueAddToRegistry+0x4c>)
 8001172:	68fa      	ldr	r2, [r7, #12]
 8001174:	00d2      	lsls	r2, r2, #3
 8001176:	6839      	ldr	r1, [r7, #0]
 8001178:	50d1      	str	r1, [r2, r3]
				xQueueRegistry[ ux ].xHandle = xQueue;
 800117a:	4a09      	ldr	r2, [pc, #36]	; (80011a0 <vQueueAddToRegistry+0x4c>)
 800117c:	68fb      	ldr	r3, [r7, #12]
 800117e:	00db      	lsls	r3, r3, #3
 8001180:	18d3      	adds	r3, r2, r3
 8001182:	3304      	adds	r3, #4
 8001184:	687a      	ldr	r2, [r7, #4]
 8001186:	601a      	str	r2, [r3, #0]

				traceQUEUE_REGISTRY_ADD( xQueue, pcQueueName );
				break;
 8001188:	e005      	b.n	8001196 <vQueueAddToRegistry+0x42>
		for( ux = ( UBaseType_t ) 0U; ux < ( UBaseType_t ) configQUEUE_REGISTRY_SIZE; ux++ )
 800118a:	68fb      	ldr	r3, [r7, #12]
 800118c:	3301      	adds	r3, #1
 800118e:	60fb      	str	r3, [r7, #12]
 8001190:	68fb      	ldr	r3, [r7, #12]
 8001192:	2b07      	cmp	r3, #7
 8001194:	d9e6      	bls.n	8001164 <vQueueAddToRegistry+0x10>
			else
			{
				mtCOVERAGE_TEST_MARKER();
			}
		}
	}
 8001196:	46c0      	nop			; (mov r8, r8)
 8001198:	46bd      	mov	sp, r7
 800119a:	b004      	add	sp, #16
 800119c:	bd80      	pop	{r7, pc}
 800119e:	46c0      	nop			; (mov r8, r8)
 80011a0:	20001b04 	.word	0x20001b04

080011a4 <vQueueWaitForMessageRestricted>:
/*-----------------------------------------------------------*/

#if ( configUSE_TIMERS == 1 )

	void vQueueWaitForMessageRestricted( QueueHandle_t xQueue, TickType_t xTicksToWait, const BaseType_t xWaitIndefinitely )
	{
 80011a4:	b580      	push	{r7, lr}
 80011a6:	b086      	sub	sp, #24
 80011a8:	af00      	add	r7, sp, #0
 80011aa:	60f8      	str	r0, [r7, #12]
 80011ac:	60b9      	str	r1, [r7, #8]
 80011ae:	607a      	str	r2, [r7, #4]
	Queue_t * const pxQueue = xQueue;
 80011b0:	68fb      	ldr	r3, [r7, #12]
 80011b2:	617b      	str	r3, [r7, #20]
		will not actually cause the task to block, just place it on a blocked
		list.  It will not block until the scheduler is unlocked - at which
		time a yield will be performed.  If an item is added to the queue while
		the queue is locked, and the calling task blocks on the queue, then the
		calling task will be immediately unblocked when the queue is unlocked. */
		prvLockQueue( pxQueue );
 80011b4:	f7ff fb84 	bl	80008c0 <vPortEnterCritical>
 80011b8:	697b      	ldr	r3, [r7, #20]
 80011ba:	2244      	movs	r2, #68	; 0x44
 80011bc:	5c9b      	ldrb	r3, [r3, r2]
 80011be:	b25b      	sxtb	r3, r3
 80011c0:	3301      	adds	r3, #1
 80011c2:	d103      	bne.n	80011cc <vQueueWaitForMessageRestricted+0x28>
 80011c4:	697b      	ldr	r3, [r7, #20]
 80011c6:	2244      	movs	r2, #68	; 0x44
 80011c8:	2100      	movs	r1, #0
 80011ca:	5499      	strb	r1, [r3, r2]
 80011cc:	697b      	ldr	r3, [r7, #20]
 80011ce:	2245      	movs	r2, #69	; 0x45
 80011d0:	5c9b      	ldrb	r3, [r3, r2]
 80011d2:	b25b      	sxtb	r3, r3
 80011d4:	3301      	adds	r3, #1
 80011d6:	d103      	bne.n	80011e0 <vQueueWaitForMessageRestricted+0x3c>
 80011d8:	697b      	ldr	r3, [r7, #20]
 80011da:	2245      	movs	r2, #69	; 0x45
 80011dc:	2100      	movs	r1, #0
 80011de:	5499      	strb	r1, [r3, r2]
 80011e0:	f7ff fb80 	bl	80008e4 <vPortExitCritical>
		if( pxQueue->uxMessagesWaiting == ( UBaseType_t ) 0U )
 80011e4:	697b      	ldr	r3, [r7, #20]
 80011e6:	6b9b      	ldr	r3, [r3, #56]	; 0x38
 80011e8:	2b00      	cmp	r3, #0
 80011ea:	d106      	bne.n	80011fa <vQueueWaitForMessageRestricted+0x56>
		{
			/* There is nothing in the queue, block for the specified period. */
			vTaskPlaceOnEventListRestricted( &( pxQueue->xTasksWaitingToReceive ), xTicksToWait, xWaitIndefinitely );
 80011ec:	697b      	ldr	r3, [r7, #20]
 80011ee:	3324      	adds	r3, #36	; 0x24
 80011f0:	687a      	ldr	r2, [r7, #4]
 80011f2:	68b9      	ldr	r1, [r7, #8]
 80011f4:	0018      	movs	r0, r3
 80011f6:	f000 fb6f 	bl	80018d8 <vTaskPlaceOnEventListRestricted>
		}
		else
		{
			mtCOVERAGE_TEST_MARKER();
		}
		prvUnlockQueue( pxQueue );
 80011fa:	697b      	ldr	r3, [r7, #20]
 80011fc:	0018      	movs	r0, r3
 80011fe:	f7ff ff1a 	bl	8001036 <prvUnlockQueue>
	}
 8001202:	46c0      	nop			; (mov r8, r8)
 8001204:	46bd      	mov	sp, r7
 8001206:	b006      	add	sp, #24
 8001208:	bd80      	pop	{r7, pc}

0800120a <xTaskCreate>:
							const char * const pcName,		/*lint !e971 Unqualified char types are allowed for strings and single characters only. */
							const configSTACK_DEPTH_TYPE usStackDepth,
							void * const pvParameters,
							UBaseType_t uxPriority,
							TaskHandle_t * const pxCreatedTask )
	{
 800120a:	b590      	push	{r4, r7, lr}
 800120c:	b08d      	sub	sp, #52	; 0x34
 800120e:	af04      	add	r7, sp, #16
 8001210:	60f8      	str	r0, [r7, #12]
 8001212:	60b9      	str	r1, [r7, #8]
 8001214:	603b      	str	r3, [r7, #0]
 8001216:	1dbb      	adds	r3, r7, #6
 8001218:	801a      	strh	r2, [r3, #0]
		#else /* portSTACK_GROWTH */
		{
		StackType_t *pxStack;

			/* Allocate space for the stack used by the task being created. */
			pxStack = pvPortMalloc( ( ( ( size_t ) usStackDepth ) * sizeof( StackType_t ) ) ); /*lint !e9079 All values returned by pvPortMalloc() have at least the alignment required by the MCU's stack and this allocation is the stack. */
 800121a:	1dbb      	adds	r3, r7, #6
 800121c:	881b      	ldrh	r3, [r3, #0]
 800121e:	009b      	lsls	r3, r3, #2
 8001220:	0018      	movs	r0, r3
 8001222:	f7ff f91d 	bl	8000460 <pvPortMalloc>
 8001226:	0003      	movs	r3, r0
 8001228:	617b      	str	r3, [r7, #20]

			if( pxStack != NULL )
 800122a:	697b      	ldr	r3, [r7, #20]
 800122c:	2b00      	cmp	r3, #0
 800122e:	d010      	beq.n	8001252 <xTaskCreate+0x48>
			{
				/* Allocate space for the TCB. */
				pxNewTCB = ( TCB_t * ) pvPortMalloc( sizeof( TCB_t ) ); /*lint !e9087 !e9079 All values returned by pvPortMalloc() have at least the alignment required by the MCU's stack, and the first member of TCB_t is always a pointer to the task's stack. */
 8001230:	2054      	movs	r0, #84	; 0x54
 8001232:	f7ff f915 	bl	8000460 <pvPortMalloc>
 8001236:	0003      	movs	r3, r0
 8001238:	61fb      	str	r3, [r7, #28]

				if( pxNewTCB != NULL )
 800123a:	69fb      	ldr	r3, [r7, #28]
 800123c:	2b00      	cmp	r3, #0
 800123e:	d003      	beq.n	8001248 <xTaskCreate+0x3e>
				{
					/* Store the stack location in the TCB. */
					pxNewTCB->pxStack = pxStack;
 8001240:	69fb      	ldr	r3, [r7, #28]
 8001242:	697a      	ldr	r2, [r7, #20]
 8001244:	631a      	str	r2, [r3, #48]	; 0x30
 8001246:	e006      	b.n	8001256 <xTaskCreate+0x4c>
				}
				else
				{
					/* The stack cannot be used as the TCB was not created.  Free
					it again. */
					vPortFree( pxStack );
 8001248:	697b      	ldr	r3, [r7, #20]
 800124a:	0018      	movs	r0, r3
 800124c:	f7ff f996 	bl	800057c <vPortFree>
 8001250:	e001      	b.n	8001256 <xTaskCreate+0x4c>
				}
			}
			else
			{
				pxNewTCB = NULL;
 8001252:	2300      	movs	r3, #0
 8001254:	61fb      	str	r3, [r7, #28]
			}
		}
		#endif /* portSTACK_GROWTH */

		if( pxNewTCB != NULL )
 8001256:	69fb      	ldr	r3, [r7, #28]
 8001258:	2b00      	cmp	r3, #0
 800125a:	d016      	beq.n	800128a <xTaskCreate+0x80>
				task was created dynamically in case it is later deleted. */
				pxNewTCB->ucStaticallyAllocated = tskDYNAMICALLY_ALLOCATED_STACK_AND_TCB;
			}
			#endif /* tskSTATIC_AND_DYNAMIC_ALLOCATION_POSSIBLE */

			prvInitialiseNewTask( pxTaskCode, pcName, ( uint32_t ) usStackDepth, pvParameters, uxPriority, pxCreatedTask, pxNewTCB, NULL );
 800125c:	1dbb      	adds	r3, r7, #6
 800125e:	881a      	ldrh	r2, [r3, #0]
 8001260:	683c      	ldr	r4, [r7, #0]
 8001262:	68b9      	ldr	r1, [r7, #8]
 8001264:	68f8      	ldr	r0, [r7, #12]
 8001266:	2300      	movs	r3, #0
 8001268:	9303      	str	r3, [sp, #12]
 800126a:	69fb      	ldr	r3, [r7, #28]
 800126c:	9302      	str	r3, [sp, #8]
 800126e:	6b7b      	ldr	r3, [r7, #52]	; 0x34
 8001270:	9301      	str	r3, [sp, #4]
 8001272:	6b3b      	ldr	r3, [r7, #48]	; 0x30
 8001274:	9300      	str	r3, [sp, #0]
 8001276:	0023      	movs	r3, r4
 8001278:	f000 f810 	bl	800129c <prvInitialiseNewTask>
			prvAddNewTaskToReadyList( pxNewTCB );
 800127c:	69fb      	ldr	r3, [r7, #28]
 800127e:	0018      	movs	r0, r3
 8001280:	f000 f88e 	bl	80013a0 <prvAddNewTaskToReadyList>
			xReturn = pdPASS;
 8001284:	2301      	movs	r3, #1
 8001286:	61bb      	str	r3, [r7, #24]
 8001288:	e002      	b.n	8001290 <xTaskCreate+0x86>
		}
		else
		{
			xReturn = errCOULD_NOT_ALLOCATE_REQUIRED_MEMORY;
 800128a:	2301      	movs	r3, #1
 800128c:	425b      	negs	r3, r3
 800128e:	61bb      	str	r3, [r7, #24]
		}

		return xReturn;
 8001290:	69bb      	ldr	r3, [r7, #24]
	}
 8001292:	0018      	movs	r0, r3
 8001294:	46bd      	mov	sp, r7
 8001296:	b009      	add	sp, #36	; 0x24
 8001298:	bd90      	pop	{r4, r7, pc}
	...

0800129c <prvInitialiseNewTask>:
									void * const pvParameters,
									UBaseType_t uxPriority,
									TaskHandle_t * const pxCreatedTask,
									TCB_t *pxNewTCB,
									const MemoryRegion_t * const xRegions )
{
 800129c:	b580      	push	{r7, lr}
 800129e:	b086      	sub	sp, #24
 80012a0:	af00      	add	r7, sp, #0
 80012a2:	60f8      	str	r0, [r7, #12]
 80012a4:	60b9      	str	r1, [r7, #8]
 80012a6:	607a      	str	r2, [r7, #4]
 80012a8:	603b      	str	r3, [r7, #0]
	grows from high memory to low (as per the 80x86) or vice versa.
	portSTACK_GROWTH is used to make the result positive or negative as required
	by the port. */
	#if( portSTACK_GROWTH < 0 )
	{
		pxTopOfStack = &( pxNewTCB->pxStack[ ulStackDepth - ( uint32_t ) 1 ] );
 80012aa:	6abb      	ldr	r3, [r7, #40]	; 0x28
 80012ac:	6b1a      	ldr	r2, [r3, #48]	; 0x30
 80012ae:	687b      	ldr	r3, [r7, #4]
 80012b0:	493a      	ldr	r1, [pc, #232]	; (800139c <prvInitialiseNewTask+0x100>)
 80012b2:	468c      	mov	ip, r1
 80012b4:	4463      	add	r3, ip
 80012b6:	009b      	lsls	r3, r3, #2
 80012b8:	18d3      	adds	r3, r2, r3
 80012ba:	613b      	str	r3, [r7, #16]
		pxTopOfStack = ( StackType_t * ) ( ( ( portPOINTER_SIZE_TYPE ) pxTopOfStack ) & ( ~( ( portPOINTER_SIZE_TYPE ) portBYTE_ALIGNMENT_MASK ) ) ); /*lint !e923 !e9033 !e9078 MISRA exception.  Avoiding casts between pointers and integers is not practical.  Size differences accounted for using portPOINTER_SIZE_TYPE type.  Checked by assert(). */
 80012bc:	693b      	ldr	r3, [r7, #16]
 80012be:	2207      	movs	r2, #7
 80012c0:	4393      	bics	r3, r2
 80012c2:	613b      	str	r3, [r7, #16]

		/* Check the alignment of the calculated top of stack is correct. */
		configASSERT( ( ( ( portPOINTER_SIZE_TYPE ) pxTopOfStack & ( portPOINTER_SIZE_TYPE ) portBYTE_ALIGNMENT_MASK ) == 0UL ) );
 80012c4:	693b      	ldr	r3, [r7, #16]
 80012c6:	2207      	movs	r2, #7
 80012c8:	4013      	ands	r3, r2
 80012ca:	d001      	beq.n	80012d0 <prvInitialiseNewTask+0x34>
 80012cc:	b672      	cpsid	i
 80012ce:	e7fe      	b.n	80012ce <prvInitialiseNewTask+0x32>
		pxNewTCB->pxEndOfStack = pxNewTCB->pxStack + ( ulStackDepth - ( uint32_t ) 1 );
	}
	#endif /* portSTACK_GROWTH */

	/* Store the task name in the TCB. */
	if( pcName != NULL )
 80012d0:	68bb      	ldr	r3, [r7, #8]
 80012d2:	2b00      	cmp	r3, #0
 80012d4:	d020      	beq.n	8001318 <prvInitialiseNewTask+0x7c>
	{
		for( x = ( UBaseType_t ) 0; x < ( UBaseType_t ) configMAX_TASK_NAME_LEN; x++ )
 80012d6:	2300      	movs	r3, #0
 80012d8:	617b      	str	r3, [r7, #20]
 80012da:	e013      	b.n	8001304 <prvInitialiseNewTask+0x68>
		{
			pxNewTCB->pcTaskName[ x ] = pcName[ x ];
 80012dc:	68ba      	ldr	r2, [r7, #8]
 80012de:	697b      	ldr	r3, [r7, #20]
 80012e0:	18d3      	adds	r3, r2, r3
 80012e2:	7818      	ldrb	r0, [r3, #0]
 80012e4:	6aba      	ldr	r2, [r7, #40]	; 0x28
 80012e6:	2134      	movs	r1, #52	; 0x34
 80012e8:	697b      	ldr	r3, [r7, #20]
 80012ea:	18d3      	adds	r3, r2, r3
 80012ec:	185b      	adds	r3, r3, r1
 80012ee:	1c02      	adds	r2, r0, #0
 80012f0:	701a      	strb	r2, [r3, #0]

			/* Don't copy all configMAX_TASK_NAME_LEN if the string is shorter than
			configMAX_TASK_NAME_LEN characters just in case the memory after the
			string is not accessible (extremely unlikely). */
			if( pcName[ x ] == ( char ) 0x00 )
 80012f2:	68ba      	ldr	r2, [r7, #8]
 80012f4:	697b      	ldr	r3, [r7, #20]
 80012f6:	18d3      	adds	r3, r2, r3
 80012f8:	781b      	ldrb	r3, [r3, #0]
 80012fa:	2b00      	cmp	r3, #0
 80012fc:	d006      	beq.n	800130c <prvInitialiseNewTask+0x70>
		for( x = ( UBaseType_t ) 0; x < ( UBaseType_t ) configMAX_TASK_NAME_LEN; x++ )
 80012fe:	697b      	ldr	r3, [r7, #20]
 8001300:	3301      	adds	r3, #1
 8001302:	617b      	str	r3, [r7, #20]
 8001304:	697b      	ldr	r3, [r7, #20]
 8001306:	2b0f      	cmp	r3, #15
 8001308:	d9e8      	bls.n	80012dc <prvInitialiseNewTask+0x40>
 800130a:	e000      	b.n	800130e <prvInitialiseNewTask+0x72>
			{
				break;
 800130c:	46c0      	nop			; (mov r8, r8)
			}
		}

		/* Ensure the name string is terminated in the case that the string length
		was greater or equal to configMAX_TASK_NAME_LEN. */
		pxNewTCB->pcTaskName[ configMAX_TASK_NAME_LEN - 1 ] = '\0';
 800130e:	6abb      	ldr	r3, [r7, #40]	; 0x28
 8001310:	2243      	movs	r2, #67	; 0x43
 8001312:	2100      	movs	r1, #0
 8001314:	5499      	strb	r1, [r3, r2]
 8001316:	e003      	b.n	8001320 <prvInitialiseNewTask+0x84>
	}
	else
	{
		/* The task has not been given a name, so just ensure there is a NULL
		terminator when it is read out. */
		pxNewTCB->pcTaskName[ 0 ] = 0x00;
 8001318:	6abb      	ldr	r3, [r7, #40]	; 0x28
 800131a:	2234      	movs	r2, #52	; 0x34
 800131c:	2100      	movs	r1, #0
 800131e:	5499      	strb	r1, [r3, r2]
	}

	/* This is used as an array index so must ensure it's not too large.  First
	remove the privilege bit if one is present. */
	if( uxPriority >= ( UBaseType_t ) configMAX_PRIORITIES )
 8001320:	6a3b      	ldr	r3, [r7, #32]
 8001322:	2b04      	cmp	r3, #4
 8001324:	d901      	bls.n	800132a <prvInitialiseNewTask+0x8e>
	{
		uxPriority = ( UBaseType_t ) configMAX_PRIORITIES - ( UBaseType_t ) 1U;
 8001326:	2304      	movs	r3, #4
 8001328:	623b      	str	r3, [r7, #32]
	else
	{
		mtCOVERAGE_TEST_MARKER();
	}

	pxNewTCB->uxPriority = uxPriority;
 800132a:	6abb      	ldr	r3, [r7, #40]	; 0x28
 800132c:	6a3a      	ldr	r2, [r7, #32]
 800132e:	62da      	str	r2, [r3, #44]	; 0x2c
	#if ( configUSE_MUTEXES == 1 )
	{
		pxNewTCB->uxBasePriority = uxPriority;
 8001330:	6abb      	ldr	r3, [r7, #40]	; 0x28
 8001332:	6a3a      	ldr	r2, [r7, #32]
 8001334:	645a      	str	r2, [r3, #68]	; 0x44
		pxNewTCB->uxMutexesHeld = 0;
 8001336:	6abb      	ldr	r3, [r7, #40]	; 0x28
 8001338:	2200      	movs	r2, #0
 800133a:	649a      	str	r2, [r3, #72]	; 0x48
	}
	#endif /* configUSE_MUTEXES */

	vListInitialiseItem( &( pxNewTCB->xStateListItem ) );
 800133c:	6abb      	ldr	r3, [r7, #40]	; 0x28
 800133e:	3304      	adds	r3, #4
 8001340:	0018      	movs	r0, r3
 8001342:	f7ff f99b 	bl	800067c <vListInitialiseItem>
	vListInitialiseItem( &( pxNewTCB->xEventListItem ) );
 8001346:	6abb      	ldr	r3, [r7, #40]	; 0x28
 8001348:	3318      	adds	r3, #24
 800134a:	0018      	movs	r0, r3
 800134c:	f7ff f996 	bl	800067c <vListInitialiseItem>

	/* Set the pxNewTCB as a link back from the ListItem_t.  This is so we can get
	back to	the containing TCB from a generic item in a list. */
	listSET_LIST_ITEM_OWNER( &( pxNewTCB->xStateListItem ), pxNewTCB );
 8001350:	6abb      	ldr	r3, [r7, #40]	; 0x28
 8001352:	6aba      	ldr	r2, [r7, #40]	; 0x28
 8001354:	611a      	str	r2, [r3, #16]

	/* Event lists are always in priority order. */
	listSET_LIST_ITEM_VALUE( &( pxNewTCB->xEventListItem ), ( TickType_t ) configMAX_PRIORITIES - ( TickType_t ) uxPriority ); /*lint !e961 MISRA exception as the casts are only redundant for some ports. */
 8001356:	6a3b      	ldr	r3, [r7, #32]
 8001358:	2205      	movs	r2, #5
 800135a:	1ad2      	subs	r2, r2, r3
 800135c:	6abb      	ldr	r3, [r7, #40]	; 0x28
 800135e:	619a      	str	r2, [r3, #24]
	listSET_LIST_ITEM_OWNER( &( pxNewTCB->xEventListItem ), pxNewTCB );
 8001360:	6abb      	ldr	r3, [r7, #40]	; 0x28
 8001362:	6aba      	ldr	r2, [r7, #40]	; 0x28
 8001364:	625a      	str	r2, [r3, #36]	; 0x24
	}
	#endif

	#if ( configUSE_TASK_NOTIFICATIONS == 1 )
	{
		pxNewTCB->ulNotifiedValue = 0;
 8001366:	6abb      	ldr	r3, [r7, #40]	; 0x28
 8001368:	2200      	movs	r2, #0
 800136a:	64da      	str	r2, [r3, #76]	; 0x4c
		pxNewTCB->ucNotifyState = taskNOT_WAITING_NOTIFICATION;
 800136c:	6abb      	ldr	r3, [r7, #40]	; 0x28
 800136e:	2250      	movs	r2, #80	; 0x50
 8001370:	2100      	movs	r1, #0
 8001372:	5499      	strb	r1, [r3, r2]
			}
			#endif /* portSTACK_GROWTH */
		}
		#else /* portHAS_STACK_OVERFLOW_CHECKING */
		{
			pxNewTCB->pxTopOfStack = pxPortInitialiseStack( pxTopOfStack, pxTaskCode, pvParameters );
 8001374:	683a      	ldr	r2, [r7, #0]
 8001376:	68f9      	ldr	r1, [r7, #12]
 8001378:	693b      	ldr	r3, [r7, #16]
 800137a:	0018      	movs	r0, r3
 800137c:	f7ff fa0a 	bl	8000794 <pxPortInitialiseStack>
 8001380:	0002      	movs	r2, r0
 8001382:	6abb      	ldr	r3, [r7, #40]	; 0x28
 8001384:	601a      	str	r2, [r3, #0]
		}
		#endif /* portHAS_STACK_OVERFLOW_CHECKING */
	}
	#endif /* portUSING_MPU_WRAPPERS */

	if( pxCreatedTask != NULL )
 8001386:	6a7b      	ldr	r3, [r7, #36]	; 0x24
 8001388:	2b00      	cmp	r3, #0
 800138a:	d002      	beq.n	8001392 <prvInitialiseNewTask+0xf6>
	{
		/* Pass the handle out in an anonymous way.  The handle can be used to
		change the created task's priority, delete the created task, etc.*/
		*pxCreatedTask = ( TaskHandle_t ) pxNewTCB;
 800138c:	6a7b      	ldr	r3, [r7, #36]	; 0x24
 800138e:	6aba      	ldr	r2, [r7, #40]	; 0x28
 8001390:	601a      	str	r2, [r3, #0]
	}
	else
	{
		mtCOVERAGE_TEST_MARKER();
	}
}
 8001392:	46c0      	nop			; (mov r8, r8)
 8001394:	46bd      	mov	sp, r7
 8001396:	b006      	add	sp, #24
 8001398:	bd80      	pop	{r7, pc}
 800139a:	46c0      	nop			; (mov r8, r8)
 800139c:	3fffffff 	.word	0x3fffffff

080013a0 <prvAddNewTaskToReadyList>:
/*-----------------------------------------------------------*/

static void prvAddNewTaskToReadyList( TCB_t *pxNewTCB )
{
 80013a0:	b580      	push	{r7, lr}
 80013a2:	b082      	sub	sp, #8
 80013a4:	af00      	add	r7, sp, #0
 80013a6:	6078      	str	r0, [r7, #4]
	/* Ensure interrupts don't access the task lists while the lists are being
	updated. */
	taskENTER_CRITICAL();
 80013a8:	f7ff fa8a 	bl	80008c0 <vPortEnterCritical>
	{
		uxCurrentNumberOfTasks++;
 80013ac:	4b28      	ldr	r3, [pc, #160]	; (8001450 <prvAddNewTaskToReadyList+0xb0>)
 80013ae:	681b      	ldr	r3, [r3, #0]
 80013b0:	1c5a      	adds	r2, r3, #1
 80013b2:	4b27      	ldr	r3, [pc, #156]	; (8001450 <prvAddNewTaskToReadyList+0xb0>)
 80013b4:	601a      	str	r2, [r3, #0]
		if( pxCurrentTCB == NULL )
 80013b6:	4b27      	ldr	r3, [pc, #156]	; (8001454 <prvAddNewTaskToReadyList+0xb4>)
 80013b8:	681b      	ldr	r3, [r3, #0]
 80013ba:	2b00      	cmp	r3, #0
 80013bc:	d109      	bne.n	80013d2 <prvAddNewTaskToReadyList+0x32>
		{
			/* There are no other tasks, or all the other tasks are in
			the suspended state - make this the current task. */
			pxCurrentTCB = pxNewTCB;
 80013be:	4b25      	ldr	r3, [pc, #148]	; (8001454 <prvAddNewTaskToReadyList+0xb4>)
 80013c0:	687a      	ldr	r2, [r7, #4]
 80013c2:	601a      	str	r2, [r3, #0]

			if( uxCurrentNumberOfTasks == ( UBaseType_t ) 1 )
 80013c4:	4b22      	ldr	r3, [pc, #136]	; (8001450 <prvAddNewTaskToReadyList+0xb0>)
 80013c6:	681b      	ldr	r3, [r3, #0]
 80013c8:	2b01      	cmp	r3, #1
 80013ca:	d110      	bne.n	80013ee <prvAddNewTaskToReadyList+0x4e>
			{
				/* This is the first task to be created so do the preliminary
				initialisation required.  We will not recover if this call
				fails, but we will report the failure. */
				prvInitialiseTaskLists();
 80013cc:	f000 fbd6 	bl	8001b7c <prvInitialiseTaskLists>
 80013d0:	e00d      	b.n	80013ee <prvAddNewTaskToReadyList+0x4e>
		else
		{
			/* If the scheduler is not already running, make this task the
			current task if it is the highest priority task to be created
			so far. */
			if( xSchedulerRunning == pdFALSE )
 80013d2:	4b21      	ldr	r3, [pc, #132]	; (8001458 <prvAddNewTaskToReadyList+0xb8>)
 80013d4:	681b      	ldr	r3, [r3, #0]
 80013d6:	2b00      	cmp	r3, #0
 80013d8:	d109      	bne.n	80013ee <prvAddNewTaskToReadyList+0x4e>
			{
				if( pxCurrentTCB->uxPriority <= pxNewTCB->uxPriority )
 80013da:	4b1e      	ldr	r3, [pc, #120]	; (8001454 <prvAddNewTaskToReadyList+0xb4>)
 80013dc:	681b      	ldr	r3, [r3, #0]
 80013de:	6ada      	ldr	r2, [r3, #44]	; 0x2c
 80013e0:	687b      	ldr	r3, [r7, #4]
 80013e2:	6adb      	ldr	r3, [r3, #44]	; 0x2c
 80013e4:	429a      	cmp	r2, r3
 80013e6:	d802      	bhi.n	80013ee <prvAddNewTaskToReadyList+0x4e>
				{
					pxCurrentTCB = pxNewTCB;
 80013e8:	4b1a      	ldr	r3, [pc, #104]	; (8001454 <prvAddNewTaskToReadyList+0xb4>)
 80013ea:	687a      	ldr	r2, [r7, #4]
 80013ec:	601a      	str	r2, [r3, #0]
			{
				mtCOVERAGE_TEST_MARKER();
			}
		}

		uxTaskNumber++;
 80013ee:	4b1b      	ldr	r3, [pc, #108]	; (800145c <prvAddNewTaskToReadyList+0xbc>)
 80013f0:	681b      	ldr	r3, [r3, #0]
 80013f2:	1c5a      	adds	r2, r3, #1
 80013f4:	4b19      	ldr	r3, [pc, #100]	; (800145c <prvAddNewTaskToReadyList+0xbc>)
 80013f6:	601a      	str	r2, [r3, #0]
			pxNewTCB->uxTCBNumber = uxTaskNumber;
		}
		#endif /* configUSE_TRACE_FACILITY */
		traceTASK_CREATE( pxNewTCB );

		prvAddTaskToReadyList( pxNewTCB );
 80013f8:	687b      	ldr	r3, [r7, #4]
 80013fa:	6ada      	ldr	r2, [r3, #44]	; 0x2c
 80013fc:	4b18      	ldr	r3, [pc, #96]	; (8001460 <prvAddNewTaskToReadyList+0xc0>)
 80013fe:	681b      	ldr	r3, [r3, #0]
 8001400:	429a      	cmp	r2, r3
 8001402:	d903      	bls.n	800140c <prvAddNewTaskToReadyList+0x6c>
 8001404:	687b      	ldr	r3, [r7, #4]
 8001406:	6ada      	ldr	r2, [r3, #44]	; 0x2c
 8001408:	4b15      	ldr	r3, [pc, #84]	; (8001460 <prvAddNewTaskToReadyList+0xc0>)
 800140a:	601a      	str	r2, [r3, #0]
 800140c:	687b      	ldr	r3, [r7, #4]
 800140e:	6ada      	ldr	r2, [r3, #44]	; 0x2c
 8001410:	0013      	movs	r3, r2
 8001412:	009b      	lsls	r3, r3, #2
 8001414:	189b      	adds	r3, r3, r2
 8001416:	009b      	lsls	r3, r3, #2
 8001418:	4a12      	ldr	r2, [pc, #72]	; (8001464 <prvAddNewTaskToReadyList+0xc4>)
 800141a:	189a      	adds	r2, r3, r2
 800141c:	687b      	ldr	r3, [r7, #4]
 800141e:	3304      	adds	r3, #4
 8001420:	0019      	movs	r1, r3
 8001422:	0010      	movs	r0, r2
 8001424:	f7ff f935 	bl	8000692 <vListInsertEnd>

		portSETUP_TCB( pxNewTCB );
	}
	taskEXIT_CRITICAL();
 8001428:	f7ff fa5c 	bl	80008e4 <vPortExitCritical>

	if( xSchedulerRunning != pdFALSE )
 800142c:	4b0a      	ldr	r3, [pc, #40]	; (8001458 <prvAddNewTaskToReadyList+0xb8>)
 800142e:	681b      	ldr	r3, [r3, #0]
 8001430:	2b00      	cmp	r3, #0
 8001432:	d008      	beq.n	8001446 <prvAddNewTaskToReadyList+0xa6>
	{
		/* If the created task is of a higher priority than the current task
		then it should run now. */
		if( pxCurrentTCB->uxPriority < pxNewTCB->uxPriority )
 8001434:	4b07      	ldr	r3, [pc, #28]	; (8001454 <prvAddNewTaskToReadyList+0xb4>)
 8001436:	681b      	ldr	r3, [r3, #0]
 8001438:	6ada      	ldr	r2, [r3, #44]	; 0x2c
 800143a:	687b      	ldr	r3, [r7, #4]
 800143c:	6adb      	ldr	r3, [r3, #44]	; 0x2c
 800143e:	429a      	cmp	r2, r3
 8001440:	d201      	bcs.n	8001446 <prvAddNewTaskToReadyList+0xa6>
		{
			taskYIELD_IF_USING_PREEMPTION();
 8001442:	f7ff fa2d 	bl	80008a0 <vPortYield>
	}
	else
	{
		mtCOVERAGE_TEST_MARKER();
	}
}
 8001446:	46c0      	nop			; (mov r8, r8)
 8001448:	46bd      	mov	sp, r7
 800144a:	b002      	add	sp, #8
 800144c:	bd80      	pop	{r7, pc}
 800144e:	46c0      	nop			; (mov r8, r8)
 8001450:	20001a94 	.word	0x20001a94
 8001454:	200019bc 	.word	0x200019bc
 8001458:	20001aa0 	.word	0x20001aa0
 800145c:	20001ab0 	.word	0x20001ab0
 8001460:	20001a9c 	.word	0x20001a9c
 8001464:	200019c0 	.word	0x200019c0

08001468 <vTaskStartScheduler>:

#endif /* ( ( INCLUDE_xTaskResumeFromISR == 1 ) && ( INCLUDE_vTaskSuspend == 1 ) ) */
/*-----------------------------------------------------------*/

void vTaskStartScheduler( void )
{
 8001468:	b580      	push	{r7, lr}
 800146a:	b084      	sub	sp, #16
 800146c:	af02      	add	r7, sp, #8
		}
	}
	#else
	{
		/* The Idle task is being created using dynamically allocated RAM. */
		xReturn = xTaskCreate(	prvIdleTask,
 800146e:	4916      	ldr	r1, [pc, #88]	; (80014c8 <vTaskStartScheduler+0x60>)
 8001470:	4816      	ldr	r0, [pc, #88]	; (80014cc <vTaskStartScheduler+0x64>)
 8001472:	4b17      	ldr	r3, [pc, #92]	; (80014d0 <vTaskStartScheduler+0x68>)
 8001474:	9301      	str	r3, [sp, #4]
 8001476:	2300      	movs	r3, #0
 8001478:	9300      	str	r3, [sp, #0]
 800147a:	2300      	movs	r3, #0
 800147c:	2246      	movs	r2, #70	; 0x46
 800147e:	f7ff fec4 	bl	800120a <xTaskCreate>
 8001482:	0003      	movs	r3, r0
 8001484:	607b      	str	r3, [r7, #4]
	}
	#endif /* configSUPPORT_STATIC_ALLOCATION */

	#if ( configUSE_TIMERS == 1 )
	{
		if( xReturn == pdPASS )
 8001486:	687b      	ldr	r3, [r7, #4]
 8001488:	2b01      	cmp	r3, #1
 800148a:	d103      	bne.n	8001494 <vTaskStartScheduler+0x2c>
		{
			xReturn = xTimerCreateTimerTask();
 800148c:	f000 fcfa 	bl	8001e84 <xTimerCreateTimerTask>
 8001490:	0003      	movs	r3, r0
 8001492:	607b      	str	r3, [r7, #4]
			mtCOVERAGE_TEST_MARKER();
		}
	}
	#endif /* configUSE_TIMERS */

	if( xReturn == pdPASS )
 8001494:	687b      	ldr	r3, [r7, #4]
 8001496:	2b01      	cmp	r3, #1
 8001498:	d10d      	bne.n	80014b6 <vTaskStartScheduler+0x4e>
		/* Interrupts are turned off here, to ensure a tick does not occur
		before or during the call to xPortStartScheduler().  The stacks of
		the created tasks contain a status word with interrupts switched on
		so interrupts will automatically get re-enabled when the first task
		starts to run. */
		portDISABLE_INTERRUPTS();
 800149a:	b672      	cpsid	i
			for additional information. */
			_impure_ptr = &( pxCurrentTCB->xNewLib_reent );
		}
		#endif /* configUSE_NEWLIB_REENTRANT */

		xNextTaskUnblockTime = portMAX_DELAY;
 800149c:	4b0d      	ldr	r3, [pc, #52]	; (80014d4 <vTaskStartScheduler+0x6c>)
 800149e:	2201      	movs	r2, #1
 80014a0:	4252      	negs	r2, r2
 80014a2:	601a      	str	r2, [r3, #0]
		xSchedulerRunning = pdTRUE;
 80014a4:	4b0c      	ldr	r3, [pc, #48]	; (80014d8 <vTaskStartScheduler+0x70>)
 80014a6:	2201      	movs	r2, #1
 80014a8:	601a      	str	r2, [r3, #0]
		xTickCount = ( TickType_t ) configINITIAL_TICK_COUNT;
 80014aa:	4b0c      	ldr	r3, [pc, #48]	; (80014dc <vTaskStartScheduler+0x74>)
 80014ac:	2200      	movs	r2, #0
 80014ae:	601a      	str	r2, [r3, #0]

		traceTASK_SWITCHED_IN();

		/* Setting up the timer tick is hardware specific and thus in the
		portable interface. */
		if( xPortStartScheduler() != pdFALSE )
 80014b0:	f7ff f9d2 	bl	8000858 <xPortStartScheduler>
	}

	/* Prevent compiler warnings if INCLUDE_xTaskGetIdleTaskHandle is set to 0,
	meaning xIdleTaskHandle is not used anywhere else. */
	( void ) xIdleTaskHandle;
}
 80014b4:	e004      	b.n	80014c0 <vTaskStartScheduler+0x58>
		configASSERT( xReturn != errCOULD_NOT_ALLOCATE_REQUIRED_MEMORY );
 80014b6:	687b      	ldr	r3, [r7, #4]
 80014b8:	3301      	adds	r3, #1
 80014ba:	d101      	bne.n	80014c0 <vTaskStartScheduler+0x58>
 80014bc:	b672      	cpsid	i
 80014be:	e7fe      	b.n	80014be <vTaskStartScheduler+0x56>
}
 80014c0:	46c0      	nop			; (mov r8, r8)
 80014c2:	46bd      	mov	sp, r7
 80014c4:	b002      	add	sp, #8
 80014c6:	bd80      	pop	{r7, pc}
 80014c8:	08002e14 	.word	0x08002e14
 80014cc:	08001b5d 	.word	0x08001b5d
 80014d0:	20001ab8 	.word	0x20001ab8
 80014d4:	20001ab4 	.word	0x20001ab4
 80014d8:	20001aa0 	.word	0x20001aa0
 80014dc:	20001a98 	.word	0x20001a98

080014e0 <vTaskSuspendAll>:
	vPortEndScheduler();
}
/*----------------------------------------------------------*/

void vTaskSuspendAll( void )
{
 80014e0:	b580      	push	{r7, lr}
 80014e2:	af00      	add	r7, sp, #0
	do not otherwise exhibit real time behaviour. */
	portSOFTWARE_BARRIER();

	/* The scheduler is suspended if uxSchedulerSuspended is non-zero.  An increment
	is used to allow calls to vTaskSuspendAll() to nest. */
	++uxSchedulerSuspended;
 80014e4:	4b03      	ldr	r3, [pc, #12]	; (80014f4 <vTaskSuspendAll+0x14>)
 80014e6:	681b      	ldr	r3, [r3, #0]
 80014e8:	1c5a      	adds	r2, r3, #1
 80014ea:	4b02      	ldr	r3, [pc, #8]	; (80014f4 <vTaskSuspendAll+0x14>)
 80014ec:	601a      	str	r2, [r3, #0]

	/* Enforces ordering for ports and optimised compilers that may otherwise place
	the above increment elsewhere. */
	portMEMORY_BARRIER();
}
 80014ee:	46c0      	nop			; (mov r8, r8)
 80014f0:	46bd      	mov	sp, r7
 80014f2:	bd80      	pop	{r7, pc}
 80014f4:	20001abc 	.word	0x20001abc

080014f8 <xTaskResumeAll>:

#endif /* configUSE_TICKLESS_IDLE */
/*----------------------------------------------------------*/

BaseType_t xTaskResumeAll( void )
{
 80014f8:	b580      	push	{r7, lr}
 80014fa:	b084      	sub	sp, #16
 80014fc:	af00      	add	r7, sp, #0
TCB_t *pxTCB = NULL;
 80014fe:	2300      	movs	r3, #0
 8001500:	60fb      	str	r3, [r7, #12]
BaseType_t xAlreadyYielded = pdFALSE;
 8001502:	2300      	movs	r3, #0
 8001504:	60bb      	str	r3, [r7, #8]

	/* If uxSchedulerSuspended is zero then this function does not match a
	previous call to vTaskSuspendAll(). */
	configASSERT( uxSchedulerSuspended );
 8001506:	4b3a      	ldr	r3, [pc, #232]	; (80015f0 <xTaskResumeAll+0xf8>)
 8001508:	681b      	ldr	r3, [r3, #0]
 800150a:	2b00      	cmp	r3, #0
 800150c:	d101      	bne.n	8001512 <xTaskResumeAll+0x1a>
 800150e:	b672      	cpsid	i
 8001510:	e7fe      	b.n	8001510 <xTaskResumeAll+0x18>
	/* It is possible that an ISR caused a task to be removed from an event
	list while the scheduler was suspended.  If this was the case then the
	removed task will have been added to the xPendingReadyList.  Once the
	scheduler has been resumed it is safe to move all the pending ready
	tasks from this list into their appropriate ready list. */
	taskENTER_CRITICAL();
 8001512:	f7ff f9d5 	bl	80008c0 <vPortEnterCritical>
	{
		--uxSchedulerSuspended;
 8001516:	4b36      	ldr	r3, [pc, #216]	; (80015f0 <xTaskResumeAll+0xf8>)
 8001518:	681b      	ldr	r3, [r3, #0]
 800151a:	1e5a      	subs	r2, r3, #1
 800151c:	4b34      	ldr	r3, [pc, #208]	; (80015f0 <xTaskResumeAll+0xf8>)
 800151e:	601a      	str	r2, [r3, #0]

		if( uxSchedulerSuspended == ( UBaseType_t ) pdFALSE )
 8001520:	4b33      	ldr	r3, [pc, #204]	; (80015f0 <xTaskResumeAll+0xf8>)
 8001522:	681b      	ldr	r3, [r3, #0]
 8001524:	2b00      	cmp	r3, #0
 8001526:	d15b      	bne.n	80015e0 <xTaskResumeAll+0xe8>
		{
			if( uxCurrentNumberOfTasks > ( UBaseType_t ) 0U )
 8001528:	4b32      	ldr	r3, [pc, #200]	; (80015f4 <xTaskResumeAll+0xfc>)
 800152a:	681b      	ldr	r3, [r3, #0]
 800152c:	2b00      	cmp	r3, #0
 800152e:	d057      	beq.n	80015e0 <xTaskResumeAll+0xe8>
			{
				/* Move any readied tasks from the pending list into the
				appropriate ready list. */
				while( listLIST_IS_EMPTY( &xPendingReadyList ) == pdFALSE )
 8001530:	e02f      	b.n	8001592 <xTaskResumeAll+0x9a>
				{
					pxTCB = listGET_OWNER_OF_HEAD_ENTRY( ( &xPendingReadyList ) ); /*lint !e9079 void * is used as this macro is used with timers and co-routines too.  Alignment is known to be fine as the type of the pointer stored and retrieved is the same. */
 8001532:	4b31      	ldr	r3, [pc, #196]	; (80015f8 <xTaskResumeAll+0x100>)
 8001534:	68db      	ldr	r3, [r3, #12]
 8001536:	68db      	ldr	r3, [r3, #12]
 8001538:	60fb      	str	r3, [r7, #12]
					( void ) uxListRemove( &( pxTCB->xEventListItem ) );
 800153a:	68fb      	ldr	r3, [r7, #12]
 800153c:	3318      	adds	r3, #24
 800153e:	0018      	movs	r0, r3
 8001540:	f7ff f8ff 	bl	8000742 <uxListRemove>
					( void ) uxListRemove( &( pxTCB->xStateListItem ) );
 8001544:	68fb      	ldr	r3, [r7, #12]
 8001546:	3304      	adds	r3, #4
 8001548:	0018      	movs	r0, r3
 800154a:	f7ff f8fa 	bl	8000742 <uxListRemove>
					prvAddTaskToReadyList( pxTCB );
 800154e:	68fb      	ldr	r3, [r7, #12]
 8001550:	6ada      	ldr	r2, [r3, #44]	; 0x2c
 8001552:	4b2a      	ldr	r3, [pc, #168]	; (80015fc <xTaskResumeAll+0x104>)
 8001554:	681b      	ldr	r3, [r3, #0]
 8001556:	429a      	cmp	r2, r3
 8001558:	d903      	bls.n	8001562 <xTaskResumeAll+0x6a>
 800155a:	68fb      	ldr	r3, [r7, #12]
 800155c:	6ada      	ldr	r2, [r3, #44]	; 0x2c
 800155e:	4b27      	ldr	r3, [pc, #156]	; (80015fc <xTaskResumeAll+0x104>)
 8001560:	601a      	str	r2, [r3, #0]
 8001562:	68fb      	ldr	r3, [r7, #12]
 8001564:	6ada      	ldr	r2, [r3, #44]	; 0x2c
 8001566:	0013      	movs	r3, r2
 8001568:	009b      	lsls	r3, r3, #2
 800156a:	189b      	adds	r3, r3, r2
 800156c:	009b      	lsls	r3, r3, #2
 800156e:	4a24      	ldr	r2, [pc, #144]	; (8001600 <xTaskResumeAll+0x108>)
 8001570:	189a      	adds	r2, r3, r2
 8001572:	68fb      	ldr	r3, [r7, #12]
 8001574:	3304      	adds	r3, #4
 8001576:	0019      	movs	r1, r3
 8001578:	0010      	movs	r0, r2
 800157a:	f7ff f88a 	bl	8000692 <vListInsertEnd>

					/* If the moved task has a priority higher than the current
					task then a yield must be performed. */
					if( pxTCB->uxPriority >= pxCurrentTCB->uxPriority )
 800157e:	68fb      	ldr	r3, [r7, #12]
 8001580:	6ada      	ldr	r2, [r3, #44]	; 0x2c
 8001582:	4b20      	ldr	r3, [pc, #128]	; (8001604 <xTaskResumeAll+0x10c>)
 8001584:	681b      	ldr	r3, [r3, #0]
 8001586:	6adb      	ldr	r3, [r3, #44]	; 0x2c
 8001588:	429a      	cmp	r2, r3
 800158a:	d302      	bcc.n	8001592 <xTaskResumeAll+0x9a>
					{
						xYieldPending = pdTRUE;
 800158c:	4b1e      	ldr	r3, [pc, #120]	; (8001608 <xTaskResumeAll+0x110>)
 800158e:	2201      	movs	r2, #1
 8001590:	601a      	str	r2, [r3, #0]
				while( listLIST_IS_EMPTY( &xPendingReadyList ) == pdFALSE )
 8001592:	4b19      	ldr	r3, [pc, #100]	; (80015f8 <xTaskResumeAll+0x100>)
 8001594:	681b      	ldr	r3, [r3, #0]
 8001596:	2b00      	cmp	r3, #0
 8001598:	d1cb      	bne.n	8001532 <xTaskResumeAll+0x3a>
					{
						mtCOVERAGE_TEST_MARKER();
					}
				}

				if( pxTCB != NULL )
 800159a:	68fb      	ldr	r3, [r7, #12]
 800159c:	2b00      	cmp	r3, #0
 800159e:	d001      	beq.n	80015a4 <xTaskResumeAll+0xac>
					which may have prevented the next unblock time from being
					re-calculated, in which case re-calculate it now.  Mainly
					important for low power tickless implementations, where
					this can prevent an unnecessary exit from low power
					state. */
					prvResetNextTaskUnblockTime();
 80015a0:	f000 fb70 	bl	8001c84 <prvResetNextTaskUnblockTime>
				/* If any ticks occurred while the scheduler was suspended then
				they should be processed now.  This ensures the tick count does
				not	slip, and that any delayed tasks are resumed at the correct
				time. */
				{
					TickType_t xPendedCounts = xPendedTicks; /* Non-volatile copy. */
 80015a4:	4b19      	ldr	r3, [pc, #100]	; (800160c <xTaskResumeAll+0x114>)
 80015a6:	681b      	ldr	r3, [r3, #0]
 80015a8:	607b      	str	r3, [r7, #4]

					if( xPendedCounts > ( TickType_t ) 0U )
 80015aa:	687b      	ldr	r3, [r7, #4]
 80015ac:	2b00      	cmp	r3, #0
 80015ae:	d00f      	beq.n	80015d0 <xTaskResumeAll+0xd8>
					{
						do
						{
							if( xTaskIncrementTick() != pdFALSE )
 80015b0:	f000 f83c 	bl	800162c <xTaskIncrementTick>
 80015b4:	1e03      	subs	r3, r0, #0
 80015b6:	d002      	beq.n	80015be <xTaskResumeAll+0xc6>
							{
								xYieldPending = pdTRUE;
 80015b8:	4b13      	ldr	r3, [pc, #76]	; (8001608 <xTaskResumeAll+0x110>)
 80015ba:	2201      	movs	r2, #1
 80015bc:	601a      	str	r2, [r3, #0]
							}
							else
							{
								mtCOVERAGE_TEST_MARKER();
							}
							--xPendedCounts;
 80015be:	687b      	ldr	r3, [r7, #4]
 80015c0:	3b01      	subs	r3, #1
 80015c2:	607b      	str	r3, [r7, #4]
						} while( xPendedCounts > ( TickType_t ) 0U );
 80015c4:	687b      	ldr	r3, [r7, #4]
 80015c6:	2b00      	cmp	r3, #0
 80015c8:	d1f2      	bne.n	80015b0 <xTaskResumeAll+0xb8>

						xPendedTicks = 0;
 80015ca:	4b10      	ldr	r3, [pc, #64]	; (800160c <xTaskResumeAll+0x114>)
 80015cc:	2200      	movs	r2, #0
 80015ce:	601a      	str	r2, [r3, #0]
					{
						mtCOVERAGE_TEST_MARKER();
					}
				}

				if( xYieldPending != pdFALSE )
 80015d0:	4b0d      	ldr	r3, [pc, #52]	; (8001608 <xTaskResumeAll+0x110>)
 80015d2:	681b      	ldr	r3, [r3, #0]
 80015d4:	2b00      	cmp	r3, #0
 80015d6:	d003      	beq.n	80015e0 <xTaskResumeAll+0xe8>
				{
					#if( configUSE_PREEMPTION != 0 )
					{
						xAlreadyYielded = pdTRUE;
 80015d8:	2301      	movs	r3, #1
 80015da:	60bb      	str	r3, [r7, #8]
					}
					#endif
					taskYIELD_IF_USING_PREEMPTION();
 80015dc:	f7ff f960 	bl	80008a0 <vPortYield>
		else
		{
			mtCOVERAGE_TEST_MARKER();
		}
	}
	taskEXIT_CRITICAL();
 80015e0:	f7ff f980 	bl	80008e4 <vPortExitCritical>

	return xAlreadyYielded;
 80015e4:	68bb      	ldr	r3, [r7, #8]
}
 80015e6:	0018      	movs	r0, r3
 80015e8:	46bd      	mov	sp, r7
 80015ea:	b004      	add	sp, #16
 80015ec:	bd80      	pop	{r7, pc}
 80015ee:	46c0      	nop			; (mov r8, r8)
 80015f0:	20001abc 	.word	0x20001abc
 80015f4:	20001a94 	.word	0x20001a94
 80015f8:	20001a54 	.word	0x20001a54
 80015fc:	20001a9c 	.word	0x20001a9c
 8001600:	200019c0 	.word	0x200019c0
 8001604:	200019bc 	.word	0x200019bc
 8001608:	20001aa8 	.word	0x20001aa8
 800160c:	20001aa4 	.word	0x20001aa4

08001610 <xTaskGetTickCount>:
/*-----------------------------------------------------------*/

TickType_t xTaskGetTickCount( void )
{
 8001610:	b580      	push	{r7, lr}
 8001612:	b082      	sub	sp, #8
 8001614:	af00      	add	r7, sp, #0
TickType_t xTicks;

	/* Critical section required if running on a 16 bit processor. */
	portTICK_TYPE_ENTER_CRITICAL();
	{
		xTicks = xTickCount;
 8001616:	4b04      	ldr	r3, [pc, #16]	; (8001628 <xTaskGetTickCount+0x18>)
 8001618:	681b      	ldr	r3, [r3, #0]
 800161a:	607b      	str	r3, [r7, #4]
	}
	portTICK_TYPE_EXIT_CRITICAL();

	return xTicks;
 800161c:	687b      	ldr	r3, [r7, #4]
}
 800161e:	0018      	movs	r0, r3
 8001620:	46bd      	mov	sp, r7
 8001622:	b002      	add	sp, #8
 8001624:	bd80      	pop	{r7, pc}
 8001626:	46c0      	nop			; (mov r8, r8)
 8001628:	20001a98 	.word	0x20001a98

0800162c <xTaskIncrementTick>:

#endif /* INCLUDE_xTaskAbortDelay */
/*----------------------------------------------------------*/

BaseType_t xTaskIncrementTick( void )
{
 800162c:	b580      	push	{r7, lr}
 800162e:	b086      	sub	sp, #24
 8001630:	af00      	add	r7, sp, #0
TCB_t * pxTCB;
TickType_t xItemValue;
BaseType_t xSwitchRequired = pdFALSE;
 8001632:	2300      	movs	r3, #0
 8001634:	617b      	str	r3, [r7, #20]

	/* Called by the portable layer each time a tick interrupt occurs.
	Increments the tick then checks to see if the new tick value will cause any
	tasks to be unblocked. */
	traceTASK_INCREMENT_TICK( xTickCount );
	if( uxSchedulerSuspended == ( UBaseType_t ) pdFALSE )
 8001636:	4b4e      	ldr	r3, [pc, #312]	; (8001770 <xTaskIncrementTick+0x144>)
 8001638:	681b      	ldr	r3, [r3, #0]
 800163a:	2b00      	cmp	r3, #0
 800163c:	d000      	beq.n	8001640 <xTaskIncrementTick+0x14>
 800163e:	e08a      	b.n	8001756 <xTaskIncrementTick+0x12a>
	{
		/* Minor optimisation.  The tick count cannot change in this
		block. */
		const TickType_t xConstTickCount = xTickCount + ( TickType_t ) 1;
 8001640:	4b4c      	ldr	r3, [pc, #304]	; (8001774 <xTaskIncrementTick+0x148>)
 8001642:	681b      	ldr	r3, [r3, #0]
 8001644:	3301      	adds	r3, #1
 8001646:	613b      	str	r3, [r7, #16]

		/* Increment the RTOS tick, switching the delayed and overflowed
		delayed lists if it wraps to 0. */
		xTickCount = xConstTickCount;
 8001648:	4b4a      	ldr	r3, [pc, #296]	; (8001774 <xTaskIncrementTick+0x148>)
 800164a:	693a      	ldr	r2, [r7, #16]
 800164c:	601a      	str	r2, [r3, #0]

		if( xConstTickCount == ( TickType_t ) 0U ) /*lint !e774 'if' does not always evaluate to false as it is looking for an overflow. */
 800164e:	693b      	ldr	r3, [r7, #16]
 8001650:	2b00      	cmp	r3, #0
 8001652:	d117      	bne.n	8001684 <xTaskIncrementTick+0x58>
		{
			taskSWITCH_DELAYED_LISTS();
 8001654:	4b48      	ldr	r3, [pc, #288]	; (8001778 <xTaskIncrementTick+0x14c>)
 8001656:	681b      	ldr	r3, [r3, #0]
 8001658:	681b      	ldr	r3, [r3, #0]
 800165a:	2b00      	cmp	r3, #0
 800165c:	d001      	beq.n	8001662 <xTaskIncrementTick+0x36>
 800165e:	b672      	cpsid	i
 8001660:	e7fe      	b.n	8001660 <xTaskIncrementTick+0x34>
 8001662:	4b45      	ldr	r3, [pc, #276]	; (8001778 <xTaskIncrementTick+0x14c>)
 8001664:	681b      	ldr	r3, [r3, #0]
 8001666:	60fb      	str	r3, [r7, #12]
 8001668:	4b44      	ldr	r3, [pc, #272]	; (800177c <xTaskIncrementTick+0x150>)
 800166a:	681a      	ldr	r2, [r3, #0]
 800166c:	4b42      	ldr	r3, [pc, #264]	; (8001778 <xTaskIncrementTick+0x14c>)
 800166e:	601a      	str	r2, [r3, #0]
 8001670:	4b42      	ldr	r3, [pc, #264]	; (800177c <xTaskIncrementTick+0x150>)
 8001672:	68fa      	ldr	r2, [r7, #12]
 8001674:	601a      	str	r2, [r3, #0]
 8001676:	4b42      	ldr	r3, [pc, #264]	; (8001780 <xTaskIncrementTick+0x154>)
 8001678:	681b      	ldr	r3, [r3, #0]
 800167a:	1c5a      	adds	r2, r3, #1
 800167c:	4b40      	ldr	r3, [pc, #256]	; (8001780 <xTaskIncrementTick+0x154>)
 800167e:	601a      	str	r2, [r3, #0]
 8001680:	f000 fb00 	bl	8001c84 <prvResetNextTaskUnblockTime>

		/* See if this tick has made a timeout expire.  Tasks are stored in
		the	queue in the order of their wake time - meaning once one task
		has been found whose block time has not expired there is no need to
		look any further down the list. */
		if( xConstTickCount >= xNextTaskUnblockTime )
 8001684:	4b3f      	ldr	r3, [pc, #252]	; (8001784 <xTaskIncrementTick+0x158>)
 8001686:	681b      	ldr	r3, [r3, #0]
 8001688:	693a      	ldr	r2, [r7, #16]
 800168a:	429a      	cmp	r2, r3
 800168c:	d349      	bcc.n	8001722 <xTaskIncrementTick+0xf6>
		{
			for( ;; )
			{
				if( listLIST_IS_EMPTY( pxDelayedTaskList ) != pdFALSE )
 800168e:	4b3a      	ldr	r3, [pc, #232]	; (8001778 <xTaskIncrementTick+0x14c>)
 8001690:	681b      	ldr	r3, [r3, #0]
 8001692:	681b      	ldr	r3, [r3, #0]
 8001694:	2b00      	cmp	r3, #0
 8001696:	d104      	bne.n	80016a2 <xTaskIncrementTick+0x76>
					/* The delayed list is empty.  Set xNextTaskUnblockTime
					to the maximum possible value so it is extremely
					unlikely that the
					if( xTickCount >= xNextTaskUnblockTime ) test will pass
					next time through. */
					xNextTaskUnblockTime = portMAX_DELAY; /*lint !e961 MISRA exception as the casts are only redundant for some ports. */
 8001698:	4b3a      	ldr	r3, [pc, #232]	; (8001784 <xTaskIncrementTick+0x158>)
 800169a:	2201      	movs	r2, #1
 800169c:	4252      	negs	r2, r2
 800169e:	601a      	str	r2, [r3, #0]
					break;
 80016a0:	e03f      	b.n	8001722 <xTaskIncrementTick+0xf6>
				{
					/* The delayed list is not empty, get the value of the
					item at the head of the delayed list.  This is the time
					at which the task at the head of the delayed list must
					be removed from the Blocked state. */
					pxTCB = listGET_OWNER_OF_HEAD_ENTRY( pxDelayedTaskList ); /*lint !e9079 void * is used as this macro is used with timers and co-routines too.  Alignment is known to be fine as the type of the pointer stored and retrieved is the same. */
 80016a2:	4b35      	ldr	r3, [pc, #212]	; (8001778 <xTaskIncrementTick+0x14c>)
 80016a4:	681b      	ldr	r3, [r3, #0]
 80016a6:	68db      	ldr	r3, [r3, #12]
 80016a8:	68db      	ldr	r3, [r3, #12]
 80016aa:	60bb      	str	r3, [r7, #8]
					xItemValue = listGET_LIST_ITEM_VALUE( &( pxTCB->xStateListItem ) );
 80016ac:	68bb      	ldr	r3, [r7, #8]
 80016ae:	685b      	ldr	r3, [r3, #4]
 80016b0:	607b      	str	r3, [r7, #4]

					if( xConstTickCount < xItemValue )
 80016b2:	693a      	ldr	r2, [r7, #16]
 80016b4:	687b      	ldr	r3, [r7, #4]
 80016b6:	429a      	cmp	r2, r3
 80016b8:	d203      	bcs.n	80016c2 <xTaskIncrementTick+0x96>
						/* It is not time to unblock this item yet, but the
						item value is the time at which the task at the head
						of the blocked list must be removed from the Blocked
						state -	so record the item value in
						xNextTaskUnblockTime. */
						xNextTaskUnblockTime = xItemValue;
 80016ba:	4b32      	ldr	r3, [pc, #200]	; (8001784 <xTaskIncrementTick+0x158>)
 80016bc:	687a      	ldr	r2, [r7, #4]
 80016be:	601a      	str	r2, [r3, #0]
						break; /*lint !e9011 Code structure here is deedmed easier to understand with multiple breaks. */
 80016c0:	e02f      	b.n	8001722 <xTaskIncrementTick+0xf6>
					{
						mtCOVERAGE_TEST_MARKER();
					}

					/* It is time to remove the item from the Blocked state. */
					( void ) uxListRemove( &( pxTCB->xStateListItem ) );
 80016c2:	68bb      	ldr	r3, [r7, #8]
 80016c4:	3304      	adds	r3, #4
 80016c6:	0018      	movs	r0, r3
 80016c8:	f7ff f83b 	bl	8000742 <uxListRemove>

					/* Is the task waiting on an event also?  If so remove
					it from the event list. */
					if( listLIST_ITEM_CONTAINER( &( pxTCB->xEventListItem ) ) != NULL )
 80016cc:	68bb      	ldr	r3, [r7, #8]
 80016ce:	6a9b      	ldr	r3, [r3, #40]	; 0x28
 80016d0:	2b00      	cmp	r3, #0
 80016d2:	d004      	beq.n	80016de <xTaskIncrementTick+0xb2>
					{
						( void ) uxListRemove( &( pxTCB->xEventListItem ) );
 80016d4:	68bb      	ldr	r3, [r7, #8]
 80016d6:	3318      	adds	r3, #24
 80016d8:	0018      	movs	r0, r3
 80016da:	f7ff f832 	bl	8000742 <uxListRemove>
						mtCOVERAGE_TEST_MARKER();
					}

					/* Place the unblocked task into the appropriate ready
					list. */
					prvAddTaskToReadyList( pxTCB );
 80016de:	68bb      	ldr	r3, [r7, #8]
 80016e0:	6ada      	ldr	r2, [r3, #44]	; 0x2c
 80016e2:	4b29      	ldr	r3, [pc, #164]	; (8001788 <xTaskIncrementTick+0x15c>)
 80016e4:	681b      	ldr	r3, [r3, #0]
 80016e6:	429a      	cmp	r2, r3
 80016e8:	d903      	bls.n	80016f2 <xTaskIncrementTick+0xc6>
 80016ea:	68bb      	ldr	r3, [r7, #8]
 80016ec:	6ada      	ldr	r2, [r3, #44]	; 0x2c
 80016ee:	4b26      	ldr	r3, [pc, #152]	; (8001788 <xTaskIncrementTick+0x15c>)
 80016f0:	601a      	str	r2, [r3, #0]
 80016f2:	68bb      	ldr	r3, [r7, #8]
 80016f4:	6ada      	ldr	r2, [r3, #44]	; 0x2c
 80016f6:	0013      	movs	r3, r2
 80016f8:	009b      	lsls	r3, r3, #2
 80016fa:	189b      	adds	r3, r3, r2
 80016fc:	009b      	lsls	r3, r3, #2
 80016fe:	4a23      	ldr	r2, [pc, #140]	; (800178c <xTaskIncrementTick+0x160>)
 8001700:	189a      	adds	r2, r3, r2
 8001702:	68bb      	ldr	r3, [r7, #8]
 8001704:	3304      	adds	r3, #4
 8001706:	0019      	movs	r1, r3
 8001708:	0010      	movs	r0, r2
 800170a:	f7fe ffc2 	bl	8000692 <vListInsertEnd>
					{
						/* Preemption is on, but a context switch should
						only be performed if the unblocked task has a
						priority that is equal to or higher than the
						currently executing task. */
						if( pxTCB->uxPriority >= pxCurrentTCB->uxPriority )
 800170e:	68bb      	ldr	r3, [r7, #8]
 8001710:	6ada      	ldr	r2, [r3, #44]	; 0x2c
 8001712:	4b1f      	ldr	r3, [pc, #124]	; (8001790 <xTaskIncrementTick+0x164>)
 8001714:	681b      	ldr	r3, [r3, #0]
 8001716:	6adb      	ldr	r3, [r3, #44]	; 0x2c
 8001718:	429a      	cmp	r2, r3
 800171a:	d3b8      	bcc.n	800168e <xTaskIncrementTick+0x62>
						{
							xSwitchRequired = pdTRUE;
 800171c:	2301      	movs	r3, #1
 800171e:	617b      	str	r3, [r7, #20]
				if( listLIST_IS_EMPTY( pxDelayedTaskList ) != pdFALSE )
 8001720:	e7b5      	b.n	800168e <xTaskIncrementTick+0x62>
		/* Tasks of equal priority to the currently running task will share
		processing time (time slice) if preemption is on, and the application
		writer has not explicitly turned time slicing off. */
		#if ( ( configUSE_PREEMPTION == 1 ) && ( configUSE_TIME_SLICING == 1 ) )
		{
			if( listCURRENT_LIST_LENGTH( &( pxReadyTasksLists[ pxCurrentTCB->uxPriority ] ) ) > ( UBaseType_t ) 1 )
 8001722:	4b1b      	ldr	r3, [pc, #108]	; (8001790 <xTaskIncrementTick+0x164>)
 8001724:	681b      	ldr	r3, [r3, #0]
 8001726:	6ada      	ldr	r2, [r3, #44]	; 0x2c
 8001728:	4918      	ldr	r1, [pc, #96]	; (800178c <xTaskIncrementTick+0x160>)
 800172a:	0013      	movs	r3, r2
 800172c:	009b      	lsls	r3, r3, #2
 800172e:	189b      	adds	r3, r3, r2
 8001730:	009b      	lsls	r3, r3, #2
 8001732:	585b      	ldr	r3, [r3, r1]
 8001734:	2b01      	cmp	r3, #1
 8001736:	d901      	bls.n	800173c <xTaskIncrementTick+0x110>
			{
				xSwitchRequired = pdTRUE;
 8001738:	2301      	movs	r3, #1
 800173a:	617b      	str	r3, [r7, #20]

		#if ( configUSE_TICK_HOOK == 1 )
		{
			/* Guard against the tick hook being called when the pended tick
			count is being unwound (when the scheduler is being unlocked). */
			if( xPendedTicks == ( TickType_t ) 0 )
 800173c:	4b15      	ldr	r3, [pc, #84]	; (8001794 <xTaskIncrementTick+0x168>)
 800173e:	681b      	ldr	r3, [r3, #0]
 8001740:	2b00      	cmp	r3, #0
 8001742:	d101      	bne.n	8001748 <xTaskIncrementTick+0x11c>
			{
				vApplicationTickHook();
 8001744:	f001 f816 	bl	8002774 <vApplicationTickHook>
		}
		#endif /* configUSE_TICK_HOOK */

		#if ( configUSE_PREEMPTION == 1 )
		{
			if( xYieldPending != pdFALSE )
 8001748:	4b13      	ldr	r3, [pc, #76]	; (8001798 <xTaskIncrementTick+0x16c>)
 800174a:	681b      	ldr	r3, [r3, #0]
 800174c:	2b00      	cmp	r3, #0
 800174e:	d009      	beq.n	8001764 <xTaskIncrementTick+0x138>
			{
				xSwitchRequired = pdTRUE;
 8001750:	2301      	movs	r3, #1
 8001752:	617b      	str	r3, [r7, #20]
 8001754:	e006      	b.n	8001764 <xTaskIncrementTick+0x138>
		}
		#endif /* configUSE_PREEMPTION */
	}
	else
	{
		++xPendedTicks;
 8001756:	4b0f      	ldr	r3, [pc, #60]	; (8001794 <xTaskIncrementTick+0x168>)
 8001758:	681b      	ldr	r3, [r3, #0]
 800175a:	1c5a      	adds	r2, r3, #1
 800175c:	4b0d      	ldr	r3, [pc, #52]	; (8001794 <xTaskIncrementTick+0x168>)
 800175e:	601a      	str	r2, [r3, #0]

		/* The tick hook gets called at regular intervals, even if the
		scheduler is locked. */
		#if ( configUSE_TICK_HOOK == 1 )
		{
			vApplicationTickHook();
 8001760:	f001 f808 	bl	8002774 <vApplicationTickHook>
		}
		#endif
	}

	return xSwitchRequired;
 8001764:	697b      	ldr	r3, [r7, #20]
}
 8001766:	0018      	movs	r0, r3
 8001768:	46bd      	mov	sp, r7
 800176a:	b006      	add	sp, #24
 800176c:	bd80      	pop	{r7, pc}
 800176e:	46c0      	nop			; (mov r8, r8)
 8001770:	20001abc 	.word	0x20001abc
 8001774:	20001a98 	.word	0x20001a98
 8001778:	20001a4c 	.word	0x20001a4c
 800177c:	20001a50 	.word	0x20001a50
 8001780:	20001aac 	.word	0x20001aac
 8001784:	20001ab4 	.word	0x20001ab4
 8001788:	20001a9c 	.word	0x20001a9c
 800178c:	200019c0 	.word	0x200019c0
 8001790:	200019bc 	.word	0x200019bc
 8001794:	20001aa4 	.word	0x20001aa4
 8001798:	20001aa8 	.word	0x20001aa8

0800179c <vTaskSwitchContext>:

#endif /* configUSE_APPLICATION_TASK_TAG */
/*-----------------------------------------------------------*/

void vTaskSwitchContext( void )
{
 800179c:	b580      	push	{r7, lr}
 800179e:	b082      	sub	sp, #8
 80017a0:	af00      	add	r7, sp, #0
	if( uxSchedulerSuspended != ( UBaseType_t ) pdFALSE )
 80017a2:	4b22      	ldr	r3, [pc, #136]	; (800182c <vTaskSwitchContext+0x90>)
 80017a4:	681b      	ldr	r3, [r3, #0]
 80017a6:	2b00      	cmp	r3, #0
 80017a8:	d003      	beq.n	80017b2 <vTaskSwitchContext+0x16>
	{
		/* The scheduler is currently suspended - do not allow a context
		switch. */
		xYieldPending = pdTRUE;
 80017aa:	4b21      	ldr	r3, [pc, #132]	; (8001830 <vTaskSwitchContext+0x94>)
 80017ac:	2201      	movs	r2, #1
 80017ae:	601a      	str	r2, [r3, #0]
			for additional information. */
			_impure_ptr = &( pxCurrentTCB->xNewLib_reent );
		}
		#endif /* configUSE_NEWLIB_REENTRANT */
	}
}
 80017b0:	e037      	b.n	8001822 <vTaskSwitchContext+0x86>
		xYieldPending = pdFALSE;
 80017b2:	4b1f      	ldr	r3, [pc, #124]	; (8001830 <vTaskSwitchContext+0x94>)
 80017b4:	2200      	movs	r2, #0
 80017b6:	601a      	str	r2, [r3, #0]
		taskSELECT_HIGHEST_PRIORITY_TASK(); /*lint !e9079 void * is used as this macro is used with timers and co-routines too.  Alignment is known to be fine as the type of the pointer stored and retrieved is the same. */
 80017b8:	4b1e      	ldr	r3, [pc, #120]	; (8001834 <vTaskSwitchContext+0x98>)
 80017ba:	681b      	ldr	r3, [r3, #0]
 80017bc:	607b      	str	r3, [r7, #4]
 80017be:	e007      	b.n	80017d0 <vTaskSwitchContext+0x34>
 80017c0:	687b      	ldr	r3, [r7, #4]
 80017c2:	2b00      	cmp	r3, #0
 80017c4:	d101      	bne.n	80017ca <vTaskSwitchContext+0x2e>
 80017c6:	b672      	cpsid	i
 80017c8:	e7fe      	b.n	80017c8 <vTaskSwitchContext+0x2c>
 80017ca:	687b      	ldr	r3, [r7, #4]
 80017cc:	3b01      	subs	r3, #1
 80017ce:	607b      	str	r3, [r7, #4]
 80017d0:	4919      	ldr	r1, [pc, #100]	; (8001838 <vTaskSwitchContext+0x9c>)
 80017d2:	687a      	ldr	r2, [r7, #4]
 80017d4:	0013      	movs	r3, r2
 80017d6:	009b      	lsls	r3, r3, #2
 80017d8:	189b      	adds	r3, r3, r2
 80017da:	009b      	lsls	r3, r3, #2
 80017dc:	585b      	ldr	r3, [r3, r1]
 80017de:	2b00      	cmp	r3, #0
 80017e0:	d0ee      	beq.n	80017c0 <vTaskSwitchContext+0x24>
 80017e2:	687a      	ldr	r2, [r7, #4]
 80017e4:	0013      	movs	r3, r2
 80017e6:	009b      	lsls	r3, r3, #2
 80017e8:	189b      	adds	r3, r3, r2
 80017ea:	009b      	lsls	r3, r3, #2
 80017ec:	4a12      	ldr	r2, [pc, #72]	; (8001838 <vTaskSwitchContext+0x9c>)
 80017ee:	189b      	adds	r3, r3, r2
 80017f0:	603b      	str	r3, [r7, #0]
 80017f2:	683b      	ldr	r3, [r7, #0]
 80017f4:	685b      	ldr	r3, [r3, #4]
 80017f6:	685a      	ldr	r2, [r3, #4]
 80017f8:	683b      	ldr	r3, [r7, #0]
 80017fa:	605a      	str	r2, [r3, #4]
 80017fc:	683b      	ldr	r3, [r7, #0]
 80017fe:	685a      	ldr	r2, [r3, #4]
 8001800:	683b      	ldr	r3, [r7, #0]
 8001802:	3308      	adds	r3, #8
 8001804:	429a      	cmp	r2, r3
 8001806:	d104      	bne.n	8001812 <vTaskSwitchContext+0x76>
 8001808:	683b      	ldr	r3, [r7, #0]
 800180a:	685b      	ldr	r3, [r3, #4]
 800180c:	685a      	ldr	r2, [r3, #4]
 800180e:	683b      	ldr	r3, [r7, #0]
 8001810:	605a      	str	r2, [r3, #4]
 8001812:	683b      	ldr	r3, [r7, #0]
 8001814:	685b      	ldr	r3, [r3, #4]
 8001816:	68da      	ldr	r2, [r3, #12]
 8001818:	4b08      	ldr	r3, [pc, #32]	; (800183c <vTaskSwitchContext+0xa0>)
 800181a:	601a      	str	r2, [r3, #0]
 800181c:	4b05      	ldr	r3, [pc, #20]	; (8001834 <vTaskSwitchContext+0x98>)
 800181e:	687a      	ldr	r2, [r7, #4]
 8001820:	601a      	str	r2, [r3, #0]
}
 8001822:	46c0      	nop			; (mov r8, r8)
 8001824:	46bd      	mov	sp, r7
 8001826:	b002      	add	sp, #8
 8001828:	bd80      	pop	{r7, pc}
 800182a:	46c0      	nop			; (mov r8, r8)
 800182c:	20001abc 	.word	0x20001abc
 8001830:	20001aa8 	.word	0x20001aa8
 8001834:	20001a9c 	.word	0x20001a9c
 8001838:	200019c0 	.word	0x200019c0
 800183c:	200019bc 	.word	0x200019bc

08001840 <vTaskPlaceOnEventList>:
/*-----------------------------------------------------------*/

void vTaskPlaceOnEventList( List_t * const pxEventList, const TickType_t xTicksToWait )
{
 8001840:	b580      	push	{r7, lr}
 8001842:	b082      	sub	sp, #8
 8001844:	af00      	add	r7, sp, #0
 8001846:	6078      	str	r0, [r7, #4]
 8001848:	6039      	str	r1, [r7, #0]
	configASSERT( pxEventList );
 800184a:	687b      	ldr	r3, [r7, #4]
 800184c:	2b00      	cmp	r3, #0
 800184e:	d101      	bne.n	8001854 <vTaskPlaceOnEventList+0x14>
 8001850:	b672      	cpsid	i
 8001852:	e7fe      	b.n	8001852 <vTaskPlaceOnEventList+0x12>

	/* Place the event list item of the TCB in the appropriate event list.
	This is placed in the list in priority order so the highest priority task
	is the first to be woken by the event.  The queue that contains the event
	list is locked, preventing simultaneous access from interrupts. */
	vListInsert( pxEventList, &( pxCurrentTCB->xEventListItem ) );
 8001854:	4b08      	ldr	r3, [pc, #32]	; (8001878 <vTaskPlaceOnEventList+0x38>)
 8001856:	681b      	ldr	r3, [r3, #0]
 8001858:	3318      	adds	r3, #24
 800185a:	001a      	movs	r2, r3
 800185c:	687b      	ldr	r3, [r7, #4]
 800185e:	0011      	movs	r1, r2
 8001860:	0018      	movs	r0, r3
 8001862:	f7fe ff38 	bl	80006d6 <vListInsert>

	prvAddCurrentTaskToDelayedList( xTicksToWait, pdTRUE );
 8001866:	683b      	ldr	r3, [r7, #0]
 8001868:	2101      	movs	r1, #1
 800186a:	0018      	movs	r0, r3
 800186c:	f000 fab6 	bl	8001ddc <prvAddCurrentTaskToDelayedList>
}
 8001870:	46c0      	nop			; (mov r8, r8)
 8001872:	46bd      	mov	sp, r7
 8001874:	b002      	add	sp, #8
 8001876:	bd80      	pop	{r7, pc}
 8001878:	200019bc 	.word	0x200019bc

0800187c <vTaskPlaceOnUnorderedEventList>:
/*-----------------------------------------------------------*/

void vTaskPlaceOnUnorderedEventList( List_t * pxEventList, const TickType_t xItemValue, const TickType_t xTicksToWait )
{
 800187c:	b580      	push	{r7, lr}
 800187e:	b084      	sub	sp, #16
 8001880:	af00      	add	r7, sp, #0
 8001882:	60f8      	str	r0, [r7, #12]
 8001884:	60b9      	str	r1, [r7, #8]
 8001886:	607a      	str	r2, [r7, #4]
	configASSERT( pxEventList );
 8001888:	68fb      	ldr	r3, [r7, #12]
 800188a:	2b00      	cmp	r3, #0
 800188c:	d101      	bne.n	8001892 <vTaskPlaceOnUnorderedEventList+0x16>
 800188e:	b672      	cpsid	i
 8001890:	e7fe      	b.n	8001890 <vTaskPlaceOnUnorderedEventList+0x14>

	/* THIS FUNCTION MUST BE CALLED WITH THE SCHEDULER SUSPENDED.  It is used by
	the event groups implementation. */
	configASSERT( uxSchedulerSuspended != 0 );
 8001892:	4b0f      	ldr	r3, [pc, #60]	; (80018d0 <vTaskPlaceOnUnorderedEventList+0x54>)
 8001894:	681b      	ldr	r3, [r3, #0]
 8001896:	2b00      	cmp	r3, #0
 8001898:	d101      	bne.n	800189e <vTaskPlaceOnUnorderedEventList+0x22>
 800189a:	b672      	cpsid	i
 800189c:	e7fe      	b.n	800189c <vTaskPlaceOnUnorderedEventList+0x20>

	/* Store the item value in the event list item.  It is safe to access the
	event list item here as interrupts won't access the event list item of a
	task that is not in the Blocked state. */
	listSET_LIST_ITEM_VALUE( &( pxCurrentTCB->xEventListItem ), xItemValue | taskEVENT_LIST_ITEM_VALUE_IN_USE );
 800189e:	4b0d      	ldr	r3, [pc, #52]	; (80018d4 <vTaskPlaceOnUnorderedEventList+0x58>)
 80018a0:	681b      	ldr	r3, [r3, #0]
 80018a2:	68ba      	ldr	r2, [r7, #8]
 80018a4:	2180      	movs	r1, #128	; 0x80
 80018a6:	0609      	lsls	r1, r1, #24
 80018a8:	430a      	orrs	r2, r1
 80018aa:	619a      	str	r2, [r3, #24]
	/* Place the event list item of the TCB at the end of the appropriate event
	list.  It is safe to access the event list here because it is part of an
	event group implementation - and interrupts don't access event groups
	directly (instead they access them indirectly by pending function calls to
	the task level). */
	vListInsertEnd( pxEventList, &( pxCurrentTCB->xEventListItem ) );
 80018ac:	4b09      	ldr	r3, [pc, #36]	; (80018d4 <vTaskPlaceOnUnorderedEventList+0x58>)
 80018ae:	681b      	ldr	r3, [r3, #0]
 80018b0:	3318      	adds	r3, #24
 80018b2:	001a      	movs	r2, r3
 80018b4:	68fb      	ldr	r3, [r7, #12]
 80018b6:	0011      	movs	r1, r2
 80018b8:	0018      	movs	r0, r3
 80018ba:	f7fe feea 	bl	8000692 <vListInsertEnd>

	prvAddCurrentTaskToDelayedList( xTicksToWait, pdTRUE );
 80018be:	687b      	ldr	r3, [r7, #4]
 80018c0:	2101      	movs	r1, #1
 80018c2:	0018      	movs	r0, r3
 80018c4:	f000 fa8a 	bl	8001ddc <prvAddCurrentTaskToDelayedList>
}
 80018c8:	46c0      	nop			; (mov r8, r8)
 80018ca:	46bd      	mov	sp, r7
 80018cc:	b004      	add	sp, #16
 80018ce:	bd80      	pop	{r7, pc}
 80018d0:	20001abc 	.word	0x20001abc
 80018d4:	200019bc 	.word	0x200019bc

080018d8 <vTaskPlaceOnEventListRestricted>:
/*-----------------------------------------------------------*/

#if( configUSE_TIMERS == 1 )

	void vTaskPlaceOnEventListRestricted( List_t * const pxEventList, TickType_t xTicksToWait, const BaseType_t xWaitIndefinitely )
	{
 80018d8:	b580      	push	{r7, lr}
 80018da:	b084      	sub	sp, #16
 80018dc:	af00      	add	r7, sp, #0
 80018de:	60f8      	str	r0, [r7, #12]
 80018e0:	60b9      	str	r1, [r7, #8]
 80018e2:	607a      	str	r2, [r7, #4]
		configASSERT( pxEventList );
 80018e4:	68fb      	ldr	r3, [r7, #12]
 80018e6:	2b00      	cmp	r3, #0
 80018e8:	d101      	bne.n	80018ee <vTaskPlaceOnEventListRestricted+0x16>
 80018ea:	b672      	cpsid	i
 80018ec:	e7fe      	b.n	80018ec <vTaskPlaceOnEventListRestricted+0x14>

		/* Place the event list item of the TCB in the appropriate event list.
		In this case it is assume that this is the only task that is going to
		be waiting on this event list, so the faster vListInsertEnd() function
		can be used in place of vListInsert. */
		vListInsertEnd( pxEventList, &( pxCurrentTCB->xEventListItem ) );
 80018ee:	4b0c      	ldr	r3, [pc, #48]	; (8001920 <vTaskPlaceOnEventListRestricted+0x48>)
 80018f0:	681b      	ldr	r3, [r3, #0]
 80018f2:	3318      	adds	r3, #24
 80018f4:	001a      	movs	r2, r3
 80018f6:	68fb      	ldr	r3, [r7, #12]
 80018f8:	0011      	movs	r1, r2
 80018fa:	0018      	movs	r0, r3
 80018fc:	f7fe fec9 	bl	8000692 <vListInsertEnd>

		/* If the task should block indefinitely then set the block time to a
		value that will be recognised as an indefinite delay inside the
		prvAddCurrentTaskToDelayedList() function. */
		if( xWaitIndefinitely != pdFALSE )
 8001900:	687b      	ldr	r3, [r7, #4]
 8001902:	2b00      	cmp	r3, #0
 8001904:	d002      	beq.n	800190c <vTaskPlaceOnEventListRestricted+0x34>
		{
			xTicksToWait = portMAX_DELAY;
 8001906:	2301      	movs	r3, #1
 8001908:	425b      	negs	r3, r3
 800190a:	60bb      	str	r3, [r7, #8]
		}

		traceTASK_DELAY_UNTIL( ( xTickCount + xTicksToWait ) );
		prvAddCurrentTaskToDelayedList( xTicksToWait, xWaitIndefinitely );
 800190c:	687a      	ldr	r2, [r7, #4]
 800190e:	68bb      	ldr	r3, [r7, #8]
 8001910:	0011      	movs	r1, r2
 8001912:	0018      	movs	r0, r3
 8001914:	f000 fa62 	bl	8001ddc <prvAddCurrentTaskToDelayedList>
	}
 8001918:	46c0      	nop			; (mov r8, r8)
 800191a:	46bd      	mov	sp, r7
 800191c:	b004      	add	sp, #16
 800191e:	bd80      	pop	{r7, pc}
 8001920:	200019bc 	.word	0x200019bc

08001924 <xTaskRemoveFromEventList>:

#endif /* configUSE_TIMERS */
/*-----------------------------------------------------------*/

BaseType_t xTaskRemoveFromEventList( const List_t * const pxEventList )
{
 8001924:	b580      	push	{r7, lr}
 8001926:	b084      	sub	sp, #16
 8001928:	af00      	add	r7, sp, #0
 800192a:	6078      	str	r0, [r7, #4]
	get called - the lock count on the queue will get modified instead.  This
	means exclusive access to the event list is guaranteed here.

	This function assumes that a check has already been made to ensure that
	pxEventList is not empty. */
	pxUnblockedTCB = listGET_OWNER_OF_HEAD_ENTRY( pxEventList ); /*lint !e9079 void * is used as this macro is used with timers and co-routines too.  Alignment is known to be fine as the type of the pointer stored and retrieved is the same. */
 800192c:	687b      	ldr	r3, [r7, #4]
 800192e:	68db      	ldr	r3, [r3, #12]
 8001930:	68db      	ldr	r3, [r3, #12]
 8001932:	60bb      	str	r3, [r7, #8]
	configASSERT( pxUnblockedTCB );
 8001934:	68bb      	ldr	r3, [r7, #8]
 8001936:	2b00      	cmp	r3, #0
 8001938:	d101      	bne.n	800193e <xTaskRemoveFromEventList+0x1a>
 800193a:	b672      	cpsid	i
 800193c:	e7fe      	b.n	800193c <xTaskRemoveFromEventList+0x18>
	( void ) uxListRemove( &( pxUnblockedTCB->xEventListItem ) );
 800193e:	68bb      	ldr	r3, [r7, #8]
 8001940:	3318      	adds	r3, #24
 8001942:	0018      	movs	r0, r3
 8001944:	f7fe fefd 	bl	8000742 <uxListRemove>

	if( uxSchedulerSuspended == ( UBaseType_t ) pdFALSE )
 8001948:	4b1e      	ldr	r3, [pc, #120]	; (80019c4 <xTaskRemoveFromEventList+0xa0>)
 800194a:	681b      	ldr	r3, [r3, #0]
 800194c:	2b00      	cmp	r3, #0
 800194e:	d11d      	bne.n	800198c <xTaskRemoveFromEventList+0x68>
	{
		( void ) uxListRemove( &( pxUnblockedTCB->xStateListItem ) );
 8001950:	68bb      	ldr	r3, [r7, #8]
 8001952:	3304      	adds	r3, #4
 8001954:	0018      	movs	r0, r3
 8001956:	f7fe fef4 	bl	8000742 <uxListRemove>
		prvAddTaskToReadyList( pxUnblockedTCB );
 800195a:	68bb      	ldr	r3, [r7, #8]
 800195c:	6ada      	ldr	r2, [r3, #44]	; 0x2c
 800195e:	4b1a      	ldr	r3, [pc, #104]	; (80019c8 <xTaskRemoveFromEventList+0xa4>)
 8001960:	681b      	ldr	r3, [r3, #0]
 8001962:	429a      	cmp	r2, r3
 8001964:	d903      	bls.n	800196e <xTaskRemoveFromEventList+0x4a>
 8001966:	68bb      	ldr	r3, [r7, #8]
 8001968:	6ada      	ldr	r2, [r3, #44]	; 0x2c
 800196a:	4b17      	ldr	r3, [pc, #92]	; (80019c8 <xTaskRemoveFromEventList+0xa4>)
 800196c:	601a      	str	r2, [r3, #0]
 800196e:	68bb      	ldr	r3, [r7, #8]
 8001970:	6ada      	ldr	r2, [r3, #44]	; 0x2c
 8001972:	0013      	movs	r3, r2
 8001974:	009b      	lsls	r3, r3, #2
 8001976:	189b      	adds	r3, r3, r2
 8001978:	009b      	lsls	r3, r3, #2
 800197a:	4a14      	ldr	r2, [pc, #80]	; (80019cc <xTaskRemoveFromEventList+0xa8>)
 800197c:	189a      	adds	r2, r3, r2
 800197e:	68bb      	ldr	r3, [r7, #8]
 8001980:	3304      	adds	r3, #4
 8001982:	0019      	movs	r1, r3
 8001984:	0010      	movs	r0, r2
 8001986:	f7fe fe84 	bl	8000692 <vListInsertEnd>
 800198a:	e007      	b.n	800199c <xTaskRemoveFromEventList+0x78>
	}
	else
	{
		/* The delayed and ready lists cannot be accessed, so hold this task
		pending until the scheduler is resumed. */
		vListInsertEnd( &( xPendingReadyList ), &( pxUnblockedTCB->xEventListItem ) );
 800198c:	68bb      	ldr	r3, [r7, #8]
 800198e:	3318      	adds	r3, #24
 8001990:	001a      	movs	r2, r3
 8001992:	4b0f      	ldr	r3, [pc, #60]	; (80019d0 <xTaskRemoveFromEventList+0xac>)
 8001994:	0011      	movs	r1, r2
 8001996:	0018      	movs	r0, r3
 8001998:	f7fe fe7b 	bl	8000692 <vListInsertEnd>
	}

	if( pxUnblockedTCB->uxPriority > pxCurrentTCB->uxPriority )
 800199c:	68bb      	ldr	r3, [r7, #8]
 800199e:	6ada      	ldr	r2, [r3, #44]	; 0x2c
 80019a0:	4b0c      	ldr	r3, [pc, #48]	; (80019d4 <xTaskRemoveFromEventList+0xb0>)
 80019a2:	681b      	ldr	r3, [r3, #0]
 80019a4:	6adb      	ldr	r3, [r3, #44]	; 0x2c
 80019a6:	429a      	cmp	r2, r3
 80019a8:	d905      	bls.n	80019b6 <xTaskRemoveFromEventList+0x92>
	{
		/* Return true if the task removed from the event list has a higher
		priority than the calling task.  This allows the calling task to know if
		it should force a context switch now. */
		xReturn = pdTRUE;
 80019aa:	2301      	movs	r3, #1
 80019ac:	60fb      	str	r3, [r7, #12]

		/* Mark that a yield is pending in case the user is not using the
		"xHigherPriorityTaskWoken" parameter to an ISR safe FreeRTOS function. */
		xYieldPending = pdTRUE;
 80019ae:	4b0a      	ldr	r3, [pc, #40]	; (80019d8 <xTaskRemoveFromEventList+0xb4>)
 80019b0:	2201      	movs	r2, #1
 80019b2:	601a      	str	r2, [r3, #0]
 80019b4:	e001      	b.n	80019ba <xTaskRemoveFromEventList+0x96>
	}
	else
	{
		xReturn = pdFALSE;
 80019b6:	2300      	movs	r3, #0
 80019b8:	60fb      	str	r3, [r7, #12]
	}

	return xReturn;
 80019ba:	68fb      	ldr	r3, [r7, #12]
}
 80019bc:	0018      	movs	r0, r3
 80019be:	46bd      	mov	sp, r7
 80019c0:	b004      	add	sp, #16
 80019c2:	bd80      	pop	{r7, pc}
 80019c4:	20001abc 	.word	0x20001abc
 80019c8:	20001a9c 	.word	0x20001a9c
 80019cc:	200019c0 	.word	0x200019c0
 80019d0:	20001a54 	.word	0x20001a54
 80019d4:	200019bc 	.word	0x200019bc
 80019d8:	20001aa8 	.word	0x20001aa8

080019dc <vTaskRemoveFromUnorderedEventList>:
/*-----------------------------------------------------------*/

void vTaskRemoveFromUnorderedEventList( ListItem_t * pxEventListItem, const TickType_t xItemValue )
{
 80019dc:	b580      	push	{r7, lr}
 80019de:	b084      	sub	sp, #16
 80019e0:	af00      	add	r7, sp, #0
 80019e2:	6078      	str	r0, [r7, #4]
 80019e4:	6039      	str	r1, [r7, #0]
TCB_t *pxUnblockedTCB;

	/* THIS FUNCTION MUST BE CALLED WITH THE SCHEDULER SUSPENDED.  It is used by
	the event flags implementation. */
	configASSERT( uxSchedulerSuspended != pdFALSE );
 80019e6:	4b21      	ldr	r3, [pc, #132]	; (8001a6c <vTaskRemoveFromUnorderedEventList+0x90>)
 80019e8:	681b      	ldr	r3, [r3, #0]
 80019ea:	2b00      	cmp	r3, #0
 80019ec:	d101      	bne.n	80019f2 <vTaskRemoveFromUnorderedEventList+0x16>
 80019ee:	b672      	cpsid	i
 80019f0:	e7fe      	b.n	80019f0 <vTaskRemoveFromUnorderedEventList+0x14>

	/* Store the new item value in the event list. */
	listSET_LIST_ITEM_VALUE( pxEventListItem, xItemValue | taskEVENT_LIST_ITEM_VALUE_IN_USE );
 80019f2:	683b      	ldr	r3, [r7, #0]
 80019f4:	2280      	movs	r2, #128	; 0x80
 80019f6:	0612      	lsls	r2, r2, #24
 80019f8:	431a      	orrs	r2, r3
 80019fa:	687b      	ldr	r3, [r7, #4]
 80019fc:	601a      	str	r2, [r3, #0]

	/* Remove the event list form the event flag.  Interrupts do not access
	event flags. */
	pxUnblockedTCB = listGET_LIST_ITEM_OWNER( pxEventListItem ); /*lint !e9079 void * is used as this macro is used with timers and co-routines too.  Alignment is known to be fine as the type of the pointer stored and retrieved is the same. */
 80019fe:	687b      	ldr	r3, [r7, #4]
 8001a00:	68db      	ldr	r3, [r3, #12]
 8001a02:	60fb      	str	r3, [r7, #12]
	configASSERT( pxUnblockedTCB );
 8001a04:	68fb      	ldr	r3, [r7, #12]
 8001a06:	2b00      	cmp	r3, #0
 8001a08:	d101      	bne.n	8001a0e <vTaskRemoveFromUnorderedEventList+0x32>
 8001a0a:	b672      	cpsid	i
 8001a0c:	e7fe      	b.n	8001a0c <vTaskRemoveFromUnorderedEventList+0x30>
	( void ) uxListRemove( pxEventListItem );
 8001a0e:	687b      	ldr	r3, [r7, #4]
 8001a10:	0018      	movs	r0, r3
 8001a12:	f7fe fe96 	bl	8000742 <uxListRemove>
	#endif

	/* Remove the task from the delayed list and add it to the ready list.  The
	scheduler is suspended so interrupts will not be accessing the ready
	lists. */
	( void ) uxListRemove( &( pxUnblockedTCB->xStateListItem ) );
 8001a16:	68fb      	ldr	r3, [r7, #12]
 8001a18:	3304      	adds	r3, #4
 8001a1a:	0018      	movs	r0, r3
 8001a1c:	f7fe fe91 	bl	8000742 <uxListRemove>
	prvAddTaskToReadyList( pxUnblockedTCB );
 8001a20:	68fb      	ldr	r3, [r7, #12]
 8001a22:	6ada      	ldr	r2, [r3, #44]	; 0x2c
 8001a24:	4b12      	ldr	r3, [pc, #72]	; (8001a70 <vTaskRemoveFromUnorderedEventList+0x94>)
 8001a26:	681b      	ldr	r3, [r3, #0]
 8001a28:	429a      	cmp	r2, r3
 8001a2a:	d903      	bls.n	8001a34 <vTaskRemoveFromUnorderedEventList+0x58>
 8001a2c:	68fb      	ldr	r3, [r7, #12]
 8001a2e:	6ada      	ldr	r2, [r3, #44]	; 0x2c
 8001a30:	4b0f      	ldr	r3, [pc, #60]	; (8001a70 <vTaskRemoveFromUnorderedEventList+0x94>)
